:020000040800F2
:1000000000C00020A94E0008951A0008971A0008A1
:10001000991A00089B1A00089D1A000800000000A9
:100020000000000000000000000000009F1A00080F
:10003000A11A000800000000A31A0008A51A000871
:10004000F14E0008F14E0008F14E0008F14E000894
:10005000F14E0008F14E0008F14E0008591A000850
:10006000F14E0008F14E0008F14E0008F14E000874
:10007000F14E0008F14E0008F14E0008F14E000864
:10008000F14E0008F14E0008751A0008F14E000804
:10009000F14E0008F14E0008F14E0008F14E000844
:1000A000F14E0008F14E0008F14E0008F14E000834
:1000B000651A0008F14E0008F14E0008F14E0008E4
:1000C000F14E0008F14E0008F14E0008F14E000814
:1000D000F14E0008F14E0008F14E00080D1800081E
:1000E000F14E0008F14E0008F14E0008F14E0008F4
:1000F000F14E0008F14E0008F14E0008F14E0008E4
:10010000F14E0008F14E0008F14E0008F14E0008D3
:10011000F14E0008F14E0008851A0008F14E000863
:10012000F14E0008F14E0008F14E0008F14E0008B3
:1001300000000000000000000000000000000000BF
:1001400000000000000000000000000000000000AF
:10015000000000000000000000000000000000009F
:10016000000000000000000000000000000000008F
:10017000000000000000000000000000000000007F
:10018000000000000000000000000000000000006F
:10019000000000000000000000000000000000005F
:1001A000000000000000000000000000000000004F
:1001B000000000000000000000000000000000003F
:1001C000000000000000000000000000000000002F
:1001D000000000000000000000000000000000001F
:0401E0005FF8E0F1F3
:1001E80010B5054C237833B9044B13B10448AFF369
:1001F80000800123237010BD0C00002000000000C7
:10020800684F000808B5034B1BB103490348AFF317
:10021800008008BD0000000010000020684F0008A2
:1002280070B54FF0FF0C4CF4E06C1CEA11541DBF84
:100238001CEA135594EA0C0F95EA0C0F00F0DEF84F
:100248002C4481EA030621EA4C5123EA4C5350EA34
:10025800013518BF52EA033541F4801143F4801385
:1002680038D0A0FB02CE4FF00005E1FB02E506F016
:100278000042E0FB03E54FF00006E1FB03569CF06B
:10028800000F18BF4EF0010EA4F1FF04B6F5007F71
:1002980064F5407404D25FEA4E0E6D4146EB0606E3
:1002A80042EAC62141EA55514FEAC52040EA5E506C
:1002B8004FEACE2EB4F1FD0C88BFBCF5E06F1ED816
:1002C800BEF1004F08BF5FEA500E50F1000041EB4D
:1002D800045170BD06F0004646EA010140EA0200FA
:1002E80081EA0301B4EB5C04C2BFD4EB0C0541EA1C
:1002F800045170BD41F480114FF0000E013C00F331
:10030800AB8014F1360FDEBF002001F0004170BD54
:10031800C4F10004203C35DA0C341BDC04F114046D
:10032800C4F1200500FA05F320FA04F001FA05F2F9
:1003380040EA020001F0004221F0004110EBD370C6
:1003480021FA04F642EB06015EEA430E08BF20EAF2
:10035800D37070BDC4F10C04C4F1200500FA04F395
:1003680020FA05F001FA04F240EA020001F0004127
:1003780010EBD37041F100015EEA430E08BF20EA9A
:10038800D37070BDC4F1200500FA05F24EEA020EE2
:1003980020FA04F301FA05F243EA020321FA04F011
:1003A80001F0004121FA04F220EA020000EBD370C8
:1003B8005EEA430E08BF20EAD37070BD94F0000FC8
:1003C8000FD101F00046400041EB010111F4801FFC
:1003D80008BF013CF7D041EA060195F0000F18BFAD
:1003E800704703F00046520043EB030313F4801FE9
:1003F80008BF013DF7D043EA0603704794EA0C0FA3
:100408000CEA135518BF95EA0C0F0CD050EA4106B8
:1004180018BF52EA4306D1D181EA030101F0004135
:100428004FF0000070BD50EA410606BF104619465D
:1004380052EA430619D094EA0C0F02D150EA013669
:1004480013D195EA0C0F05D152EA03361CBF1046AA
:1004580019460AD181EA030101F0004141F0FE4149
:1004680041F470014FF0000070BD41F0FE4141F4CD
:10047800780170BD4FF0FF0C1CEAD0521EBF1CEA79
:10048800D15392EA0C0F93EA0C0F6FD01A4480EA0A
:10049800010C400218BF5FEA41211ED04FF00063F3
:1004A80043EA501043EA5111A0FB01310CF000401F
:1004B800B1F5000F3EBF490041EAD3715B0040EA45
:1004C800010062F17F02FD2A1DD8B3F1004F40EB15
:1004D800C25008BF20F00100704790F0000F0CF0E8
:1004E800004C08BF49024CEA502040EA51207F3AAC
:1004F800C2BFD2F1FF0340EAC250704740F4000087
:100508004FF00003013A5DDC12F1190FDCBF00F077
:1005180000407047C2F10002410021FA02F1C2F125
:10052800200200FA02FC5FEA310040F1000053EAC1
:100538004C0308BF20EADC70704792F0000F00F00F
:10054800004C02BF400010F4000F013AF9D040EA15
:100558000C0093F0000F01F0004C02BF490011F4A9
:10056800000F013BF9D041EA0C018FE70CEAD153A7
:1005780092EA0C0F18BF93EA0C0F0AD030F0004C27
:1005880018BF31F0004CD8D180EA010000F00040DB
:10059800704790F0000F17BF90F0004F084691F099
:1005A800000F91F0004F14D092EA0C0F01D14202D3
:1005B8000FD193EA0C0F03D14B0218BF084608D19C
:1005C80080EA010000F0004040F0FE4040F40000E6
:1005D800704740F0FE4040F44000704781F0004111
:1005E80002E000BF83F0004330B54FEA41044FEA10
:1005F800430594EA050F08BF90EA020F1FBF54EAAB
:10060800000C55EA020C7FEA645C7FEA655C00F046
:10061800E2804FEA5454D4EB5555B8BF6D420CDD17
:100628002C4480EA020281EA030382EA000083EA9A
:10063800010180EA020281EA0303362D88BF30BD3A
:1006480011F0004F4FEA01314FF4801C4CEA113190
:1006580002D0404261EB410113F0004F4FEA0333EF
:100668004CEA133302D0524263EB430394EA050F7A
:1006780000F0A780A4F10104D5F1200E0DDB02FAE9
:100688000EFC22FA05F2801841F1000103FA0EF27D
:10069800801843FA05F359410EE0A5F120050EF143
:1006A800200E012A03FA0EFC28BF4CF0020C43FA74
:1006B80005F3C01851EBE37101F0004507D54FF081
:1006C800000EDCF1000C7EEB00006EEB0101B1F5D1
:1006D800801F1BD3B1F5001F0CD349085FEA300017
:1006E8004FEA3C0C04F101044FEA445212F5800F22
:1006F80080F09A80BCF1004F08BF5FEA500C50F1BF
:10070800000041EB045141EA050130BD5FEA4C0CA1
:10071800404141EB0101013C28BFB1F5801FE9D2FE
:1007280091F0000F04BF01460020B1FA81F308BF21
:100738002033A3F10B03B3F120020CDA0C3208DDED
:1007480002F1140CC2F10C0201FA0CF021FA02F1C8
:100758000CE002F11402D8BFC2F1200C01FA02F138
:1007680020FA0CFCDCBF41EA0C019040E41AA2BF5D
:1007780001EB0451294330BD6FEA04041F3C1CDA25
:100788000C340EDC04F11404C4F1200220FA04F045
:1007980001FA02F340EA030021FA04F345EA0301EF
:1007A80030BDC4F10C04C4F1200220FA02F001FAB1
:1007B80004F340EA0300294630BD21FA04F0294633
:1007C80030BD94F0000F83F4801306BF81F48011CC
:1007D8000134013D4EE77FEA645C18BF7FEA655C3F
:1007E80029D094EA050F08BF90EA020F05D054EA11
:1007F800000C04BF1946104630BD91EA030F1EBF16
:100808000021002030BD5FEA545C05D14000494119
:1008180028BF41F0004130BD14F580043CBF01F50C
:10082800801130BD01F0004545F0FE4141F47001F2
:100838004FF0000030BD7FEA645C1ABF19461046CD
:100848007FEA655C1CBF0B46024650EA013406BFCE
:1008580052EA033591EA030F41F4002130BD00BF8D
:1008680090F0000F04BF0021704730B54FF480644A
:1008780004F132044FF000054FF0000150E700BFCB
:1008880090F0000F04BF0021704730B54FF480642A
:1008980004F1320410F0004548BF40424FF0000117
:1008A8003EE700BF42004FEAE2014FEA31014FEA5A
:1008B80002701FBF12F07F4393F07F4F81F06051A9
:1008C800704732F07F4208BF704793F07F4F04BFF4
:1008D80041F40021704730B54FF4607401F00045D1
:1008E80021F000411CE700BF50EA010208BF704731
:1008F80030B54FF000050AE050EA010208BF704722
:1009080030B511F0004502D5404261EB41014FF48A
:10091800806404F132045FEA915C3FF4D8AE4FF092
:1009280003025FEADC0C18BF03325FEADC0C18BF75
:10093800033202EBDC02C2F1200300FA03FC20FAC6
:1009480002F001FA03FE40EA0E0021FA02F1144413
:10095800BDE600BF4FEA4102B2F1E04324BFB3F560
:10096800001CDCF1FE5C0DD901F0004C4FEAC0021E
:100978004CEA5070B2F1004F40EB830008BF20F002
:100988000100704711F0804F21D113F13872BCBFBC
:1009980001F00040704741F480114FEA5252C2F111
:1009A8001802C2F1200C10FA0CF320FA02F018BF5A
:1009B80040F001004FEAC1234FEAD32303FA0CFCAD
:1009C80040EA0C0023FA02F34FEA4303CCE77FEA3C
:1009D800625307D150EA01331EBF4FF0FE4040F486
:1009E8004000704701F0004040F0FE4040F4000035
:1009F800704700BF80F0004002E000BF81F0004176
:100A080042001FBF5FEA410392EA030F7FEA226CAC
:100A18007FEA236C6AD04FEA1262D2EB1363C1BF3C
:100A2800D218414048404140B8BF5B42192B88BFAB
:100A3800704710F0004F40F4000020F07F4018BFCE
:100A4800404211F0004F41F4000121F07F4118BFEE
:100A5800494292EA030F3FD0A2F1010241FA03FC96
:100A680010EB0C00C3F1200301FA03F100F000437E
:100A780002D5494260EB4000B0F5000F13D3B0F146
:100A8800807F06D340084FEA310102F10102FE2AB5
:100A980051D2B1F1004F40EBC25008BF20F0010025
:100AA80040EA03007047490040EB0000013A28BFC4
:100AB800B0F5000FEDD2B0FA80FCACF1080CB2EB47
:100AC8000C0200FA0CF0AABF00EBC25052421843C5
:100AD800BCBFD0401843704792F0000F81F400016A
:100AE80006BF80F400000132013BB5E74FEA41033D
:100AF8007FEA226C18BF7FEA236C21D092EA030FA9
:100B080004D092F0000F08BF0846704790EA010F22
:100B18001CBF0020704712F07F4F04D1400028BF4F
:100B280040F00040704712F100723CBF00F5000031
:100B3800704700F0004343F0FE4040F40000704767
:100B48007FEA226216BF08467FEA23630146420213
:100B580006BF5FEA412390EA010F40F48000704726
:100B68004FF0000304E000BF10F0004348BF4042CC
:100B78005FEA000C08BF704743F0964301464FF008
:100B880000001CE050EA010208BF70474FF0000364
:100B98000AE000BF50EA010208BF704711F00043A5
:100BA80002D5404261EB41015FEA010C02BF844675
:100BB8000146002043F0B64308BFA3F18053A3F5D4
:100BC8000003BCFA8CF2083AA3EBC25310DB01FA1B
:100BD80002FC634400FA02FCC2F12002BCF1004F9F
:100BE80020FA02F243EB020008BF20F00100704730
:100BF80002F1200201FA02FCC2F1200250EA4C0084
:100C080021FA02F243EB020008BF20EADC707047C9
:100C18004FF0FF3C06E000BF4FF0010C02E000BFC0
:100C28004FF0010C4DF804CD4FEA40024FEA410362
:100C38007FEA226C18BF7FEA236C11D001B052EA18
:100C4800530C18BF90EA010F58BFB2EB030088BFDE
:100C5800C81738BF6FEAE17018BF40F0010070474D
:100C68007FEA226C02D15FEA402C05D17FEA236C2F
:100C7800E4D15FEA412CE1D05DF8040B704700BF76
:100C8800844608466146FFE70FB5FFF7C9FF00280D
:100C980048BF10F1000F0FBD4DF808EDFFF7F4FF46
:100CA8000CBF012000205DF808FB00BF4DF808EDDF
:100CB800FFF7EAFF34BF012000205DF808FB00BF02
:100CC8004DF808EDFFF7E0FF94BF012000205DF824
:100CD80008FB00BF4DF808EDFFF7D2FF94BF0120D5
:100CE80000205DF808FB00BF4DF808EDFFF7C8FFCE
:100CF80034BF012000205DF808FB00BF4FEA400226
:100D0800B2F1FE4F0FD34FF09E03B3EB12620DD931
:100D18004FEA002343F0004310F0004F23FA02F09B
:100D280018BF404270474FF00000704712F1610F42
:100D380001D1420205D110F0004008BF6FF0004019
:100D480070474FF00000704742000ED2B2F1FE4FDC
:100D58000BD34FF09E03B3EB126209D44FEA002382
:100D680043F0004323FA02F070474FF00000704749
:100D780012F1610F01D1420202D14FF0FF307047EA
:100D88004FF00000704700BF53B94AB9002908BFA7
:100D980000281CBF4FF0FF314FF0FF3000F06EB954
:100DA800ADF1080C6DE904CE00F006F8DDF804E0BA
:100DB800DDE9022304B070472DE9F047089E0D468F
:100DC80004468E46002B40F083808A42174647D956
:100DD800B2FA82F34BB1C3F1200105FA03FE20FAFF
:100DE80001F19F4041EA0E0E9C404FEA1748BEFBB6
:100DF800F8FC1FFA87F908FB1CE20CFB09F0210C30
:100E080041EA024290420AD9BA180CF1FF3180F047
:100E18001881904240F21581ACF1020C3A44121A42
:100E2800B2FBF8F008FB102200FB09F1A4B244EA77
:100E38000244A14209D93C1900F1FF3280F0038134
:100E4800A14240F2008102383C44641A002140EA81
:100E58000C401EB10022DC40C6E90042BDE8F08724
:100E680002B9FFDEB2FA82F3002B4FD18D1A0121AD
:100E78004FEA124E1FFA82F8B5FBFEFC0EFB1C551A
:100E880008FB0CF0220C42EA0545A84207D97D1957
:100E98000CF1FF3202D2A84200F2E98094462D1AE2
:100EA800B5FBFEF00EFB105508FB00F8A4B244EAAF
:100EB8000544A04507D93C1900F1FF3202D2A045EC
:100EC80000F2D9801046A4EB080440EA0C40C0E7C1
:100ED8008B4208D9002E00F0B1800021C6E9000538
:100EE8000846BDE8F087B3FA83F100294BD1AB423D
:100EF80002D3824200F2B980841A65EB0303012011
:100F08009E46002EAAD0C6E9004EA7E79F40C3F12F
:100F18002002D1404FEA174EB1FBFEF01FFA87F8C6
:100F28000EFB101124FA02F29D4000FB08FC2A4334
:100F3800150C45EA0145AC4504FA03F409D97D19B5
:100F480000F1FF3180F08F80AC4540F28C80023890
:100F58003D44A5EB0C05B5FBFEF10EFB115C01FB56
:100F680008F995B245EA0C45A94507D97D1901F15B
:100F7800FF3274D2A94572D902393D44A5EB09055F
:100F880041EA004178E7C1F120078B4022FA07FCCB
:100F98004CEA030C25FA07F44FEA1C4EB4FBFEF9A1
:100FA8001FFA8CF80EFB194420FA07F309FB08FA1C
:100FB8008D401D432B0C43EA0444A24502FA01F27A
:100FC80000FA01F309D91CEB040409F1FF3048D2F7
:100FD800A24546D9A9F102096444A4EB0A04B4FB6A
:100FE800FEF00EFB104400FB08FAADB245EA0444DB
:100FF800A24508D91CEB040400F1FF352DD2A24507
:101008002BD90238644440EA0940A0FB0289A4EBCA
:101018000A044C45C6464D4619D316D05EB1B3EB0B
:101028000E0264EB050404FA07F722FA01F31F43E2
:10103800CC40C6E900740021BDE8F087314630464F
:101048000CE78C46EBE61046FFE64345E6D2B8EBE4
:10105800020E69EB0C050138E0E72846D3E7114694
:101068008CE78146B9E7084673E7084649E7ACF1DB
:10107800020C3D4413E702383C4424E7704700BFA4
:1010880030B585B00023029302A903A803F0E6FD5A
:101098000398FFF707FC04460D460298FFF702FC89
:1010A800CDE9000122462B460449002003F0A4FBA9
:1010B8000299039803F0E6FE05B030BD804F0008A2
:1010C80030B589B005AA06A907A803F0B5FC0798AA
:1010D800FFF7E8FB04460D460598FFF7E3FBCDE96B
:1010E80002010698FFF7DEFBCDE9000122462B46F8
:1010F8000549002003F080FB059A0699079803F03C
:10110800C7FE09B030BD00BF984F000872B6FEE7B1
:1011180000B597B000230F93119312930793089388
:1011280009930A930B9301930293039304930593F2
:10113800069301210C914FF480320D920E93109179
:101148000223139314924FF4E01315930CA801F0A3
:101158005BFDC0B90F23079302210891002309936F
:101168004FF480620A920B9307A801F08BFF80B9B5
:10117800102301930023069301A802F05FF870B9C9
:1011880017B05DF804FB0949002003F035FBFFF7B1
:10119800BDFF0749002003F02FFBFFF7B7FF054904
:1011A800002003F029FBFFF7B1FF00BFC04F000884
:1011B800CC4F0008D84F000800B585B001F0D6FC28
:1011C8003149002003F018FBFFF7A2FF2F49002048
:1011D80003F012FB2E4A536823F0E06343F00073D8
:1011E8005360536823F0C00343F0E06343F04003C7
:1011F800536000F059F800F0E1F800F0DFF900F072
:101208003DF900F035FA03F005FC00F077FB4FF4E8
:10121800165000F0CDFA03F02FFB03F0BFFD1D4878
:1012280002F056FB642001F0C5FC03F0FDFC03F05E
:101238006BFD1949002003F0DFFA4FF4FA6001F062
:10124800B9FC012215494FF4FA6003F0BFFD0122F1
:1012580013494FF4FA6003F0B9FD0D2301930023FD
:101268000293ADF80C3000F0AFFB02460D490020A8
:1012780003F0C2FA0A2101A803F022FB40F6B830B5
:1012880001F098FCEFE700BFE44F0008F84F0008B2
:1012980000000140C407002014500008891000080D
:1012A800C9100008305000082DE9F04389B0002427
:1012B80004940594069407943C4B9A6942F01002F2
:1012C8009A619A6902F010020092009A9A6942F0B3
:1012D80020029A619A6902F020020192019A9A69A1
:1012E80042F004029A619A6902F004020292029A98
:1012F8009A6942F008029A619B6903F00803039314
:10130800039B2B4F22460421384602F0CCF9DFF824
:10131800A49022460421484602F0C5F9DFF89880D7
:10132800224640F20271404602F0BDF904230493BC
:101338000126059606940225079504A9384602F069
:101348008FF841F20273049305960694079504A951
:10135800404602F085F84FF482730493059606948C
:1013680004A9484602F07CF84FF48073049305956D
:101378004FF00309CDF81C9004A9384602F070F824
:10138800802304930595CDF81C9004A9384602F0F3
:1013980067F82023049305960694079504A9404608
:1013A80002F05EF809B0BDE8F08300BF001002400B
:1013B8000008014000100140000C014008B50F482A
:1013C8000F4B03604FF48273436000238360C36054
:1013D80002220261012242614FF4007282611822E6
:1013E800C2610362436283620A23C36200F09EFC07
:1013F80000B908BDFFF78AFEFBE700BF24070020FD
:101408000038004010B586B000230293039304937C
:1014180005930268174B9A4201D006B010BD03F538
:10142800EC33DA6942F48042DA61DA6902F4804224
:101438000092009A9A6942F008029A619B6903F047
:1014480008030193019B4FF4204302930223039363
:1014580003230593084C02A9204602F001F84FF433
:101468008043029300230393049302A9204601F0CA
:10147800F7FFD2E700380040000C014000B583B008
:10148800124BDA6942F01002DA61DB6903F01003EB
:101498000193019B0E480F4B0360472343600023D1
:1014A800836040F2E732C260836102F073FB50B997
:1014B80000221146362002F01DF9362002F04EF9BE
:1014C80003B05DF804FBFFF721FEF1E700100240CE
:1014D800C40700200010004082B003680E4A9342FF
:1014E80004D00E4A93420CD002B070470C4B9A6954
:1014F80042F400629A619B6903F400630093009BC5
:10150800F2E7074B9A6942F400529A619B6903F427
:1015180000530193019BE7E7002C01400034014090
:101528000010024030B587B0002302930393049360
:10153800059303681C4A934204D01C4A93421FD067
:1015480007B030BD1A4B9A6942F004029A619B6950
:1015580003F004030093009B4FF48073029302246A
:1015680003940594134D02A9284601F079FF8023BE
:1015780002930394059402A9284601F071FFDFE75E
:101588000B4B9A6942F010029A619B6903F01003B1
:101598000193019B8023029302230393059302A9DD
:1015A800054801F05DFFCBE7002C01400034014005
:1015B80000100240000801400010014010B592B030
:1015C80000241094119409940A940B940C940D948B
:1015D8000E940F942022214601A803F0B9FC22485A
:1015E800224B03602F23436084607223C36004612D
:1015F8004461846102F0FAFA00282CD10023109388
:10160800119310A9184802F051FD38BB60230993C3
:1016180000220A920B920C920D920E920F9209A937
:10162800114802F047FBE0B90023019302930393AA
:10163800AD22049205934FF4005306934FF4804370
:101648000893094C01A9204602F06CFD2046FFF7DB
:1016580069FF12B010BDFFF759FDCFE7FFF756FD40
:10166800D4E7FFF753FDDFE70C080020002C01400A
:1016780010B592B000241094119409940A940B9414
:101688000C940D940E940F942022214601A803F087
:101698005FFC2348234B0360446084604FF6FF736C
:1016A800C36004614461846102F0A0FA00282AD171
:1016B80000231093119310A9194802F0F7FC28BBD6
:1016C8006023099300230A930B930C930D930E93B5
:1016D8000F93042209A9124802F0ECFAC8B90023B2
:1016E800019302930393049305934FF400520692D7
:1016F800089301A90A4802F015FD68B90848FFF7E0
:1017080011FF12B010BDFFF701FDD1E7FFF7FEFC96
:10171800D6E7FFF7FBFCE2E7FFF7F8FCEEE700BFD0
:101728007C0700200034014030B589B01E4B9A690F
:1017380042F001029A619A6902F001020192019A4B
:101748009A6942F008029A619A6902F008020292C4
:10175800029ADA6942F48022DA61DB6903F48023B1
:101768000393039B002406944FF48063049302239D
:101778000593032307930D4D04A9284601F070FE35
:101788004FF4006304930594069404A9284601F0D5
:1017980067FE22460121272001F0ACFF272001F037
:1017A800DDFF09B030BD00BF00100240000C014051
:1017B80010B50446FFF7B8FF0F48104B03604460AC
:1017C80000238360C36003610C2242618361C361AB
:1017D80000F0C9F950B9084B1B68DA6842F02002DA
:1017E800DA605A6942F001025A6110BD04490020CA
:1017F80003F002F8EFE700BF9C0800200048004013
:1018080040500008114B1B681A6812F02F0F1BD0AC
:101818005968C9B20E4B1B889BB201335A42C3F3B5
:101828000803C2F3080258BF53429BB2094A128800
:1018380092B29A4208D010B40548028892B2064C77
:10184800A154038010BC7047704700BF9C0800205B
:10185800280200202A0200202800002082B00D4B18
:101868009A6942F004029A619A6902F004020092AD
:10187800009A9A6942F400729A619A6902F40072B5
:101888000192019A5A6822F4404242F400425A6096
:1018980002B070470010024000B585B000230293E3
:1018A800039301230093032301936946024801F03F
:1018B800D7FD05B05DF804FB0008014070B584B0A1
:1018C8000C4C0D4B23600025A560257325756560BC
:1018D800012626614FF46023E361204601F074F885
:1018E800019502960723039301A9204600F074FE90
:1018F80004B070BD2C0200200024014008B5FFF799
:10190800ADFFFFF7C9FFFFF7D9FF08BD38B50D4890
:1019180000F042FF10B10024204638BD0A210948D2
:1019280000F00EFD40B9074D284600F0CBFD84B20B
:10193800284601F0DBF8EFE7024801F0D7F8002469
:10194800EAE700BF2C02002038B5002425461F2CEA
:1019580004D8FFF7DBFF05440134F8E7C5F34F105F
:1019680038BD38B5FFF7F0FF0025031845EB050231
:101978001B1845EB020251015C010A46231845EB8E
:101988000202110141EA13711C011B1941EB020209
:10199800DC1842EB020140F6FF720023201845EBE9
:1019A8000101FFF7F1F938BD08B5FFF7DAFF42F298
:1019B800107200230249A0FB0101FFF7E5F908BDF9
:1019C800B0AD01000000000008B5FFF7EDFF42F6DA
:1019D800E06398421BD944F29F13984219D86423B4
:1019E80003FB00F0A0F59210A0F578600C4BA3FB68
:1019F8000030400AFEF734FF07A3D3E90023FEF7BF
:101A08000FFCFEF7A7FFFFF79FF9C0B208BD002043
:101A1800FCE76420FAE700BFED9E3C2CD49AF23F25
:101A2800B5814E1B10B504460268074B9A4204D094
:101A38002368B3F1804F03D010BD03F0EBF9F7E74B
:101A4800024800F01DFFF7E7001000408C09002055
:101A580008B5022001F02EFE08BD000008B50248B6
:101A680001F08FFF08BD00BF5408002008B50248E8
:101A780000F02CFD08BD00BF8C09002008B5024805
:101A880001F07FFF08BD00BFC4070020FEE7FEE7A6
:101A9800FEE7FEE7FEE770477047704708B501F0BC
:101AA80077F808BD82B00A4B9A6942F001029A6140
:101AB8009A6902F001020092009ADA6942F08052B3
:101AC800DA61DB6903F080530193019B02B0704730
:101AD8000010024010B504460268136923F440530D
:101AE800C1680B43136183680269134342691A434F
:101AF8000168CB6823F4B05323F00C031343CB6085
:101B08000268536923F4407381690B435361026887
:101B1800124B9A421FD001F071FB00EB800303EBDC
:101B2800830362689200B3FBF2F20D48A0FB023116
:101B38004909642303FB11231B013233A0FB032350
:101B48005B0903F0F00202EB011203F00F032168B6
:101B580013448B6010BD01F061FBDEE700380140E3
:101B68001F85EB51704758B310B5044690F83D30C7
:101B78000BB3242384F83D302268D36823F4005340
:101B8800D3602046FFF7A6FF2268136923F4904329
:101B980013612268536923F02A0353612268D368CA
:101BA80043F40053D36000202064202384F83D30A0
:101BB80084F83E3010BD80F83C30FFF7D3FFD8E7FB
:101BC800012070472DE9F04782B005468846174640
:101BD8001E4600F0E9FF0A9B1B1A03EB060900F0FA
:101BE800E3FF82462A4B1B68C3F3CB3309FB03F39D
:101BF80001932B689C6838EA04030CBF0124002475
:101C0800BC4240D0B6F1FF3FF3D000F0CDFFA0EBCF
:101C18000A0048450AD2B9F1000F07D0019A02B16B
:101C28004A46019B013B01939146E2E72A685368C3
:101C380023F0E00353606B68B3F5827F0BD0AB6A87
:101C4800B3F5005F14D0012385F85130002385F8DF
:101C58005030032018E0AB68B3F5004F02D0B3F55D
:101C6800806FECD12A68136823F040031360E6E71D
:101C78002A68136823F4005313602A68136843F42E
:101C880000531360DFE7002002B0BDE8F08700BF13
:101C98000800002010B582B004460B4600920022CE
:101CA8008021FFF78FFF08B902B010BD636D43F0C4
:101CB800200363650320F7E710B582B004460B469E
:101CC8004168B1F5827F10D06168B1F5827F03D198
:101CD800A168B1F5806F15D00092002280212046BE
:101CE800FFF770FFE0B902B010BD8168B1F5004F91
:101CF80002D0B1F5806FE7D12068016821F040017A
:101D08000160E1E70092002201212046FFF75AFF17
:101D18000028E8D0636D43F0200363650320E2E701
:101D2800636D43F0200363650320DCE7002856D089
:101D380010B50446436A33B94368B3F5827F05D0CA
:101D48000023C36102E00023036143610023A3620F
:101D580094F85130002B3CD0022384F8513022688B
:101D6800136823F040031360636803F48273A26866
:101D780002F404421343E26802F400621343226946
:101D880002F002021343626902F001021343A269DE
:101D980002F400721343E26902F038021343226A24
:101DA80002F080021343A26A02F40052216813432E
:101DB8000B60638B226803F0040353602268D369C5
:101DC80023F40063D36100206065012384F8513057
:101DD80010BD84F850302046FFF714FBBCE7012003
:101DE80070472DE9F04383B01D4690F85030012B21
:101DF80000F0CC80044688469146012380F8503094
:101E080000F0D2FE074694F85160F6B2012E40F079
:101E1800AA80B8F1000F00F0A780B9F1000F00F018
:101E2800A380032384F8513000236365C4F830800D
:101E3800A4F83490A4F83690A363A387E387636477
:101E48002364A368B3F5004F1ED023681A6812F004
:101E5800400F03D11A6842F040021A60E368B3F5F4
:101E6800006F1CD0636813B1B9F1010F52D1226B16
:101E7800236812781A73236B01332363E38E9BB2B2
:101E8800013B9BB2E38645E02268136823F04003D8
:101E980013602268136843F480431360D5E76368CE
:101EA80013B1B9F1010F16D1226B23681288DA60D9
:101EB800236B02332363E38E9BB2013B9BB2E38621
:101EC80009E000F071FEC01BA84202D3B5F1FF3F44
:101ED80054D1002D54D0E38E9BB2002B2ED0236812
:101EE8009A6812F0020FECD0226B1288DA60236B2A
:101EF80002332363E38E9BB2013B9BB2E386EAE79E
:101F080000F052FEC01BA84202D3B5F1FF3F39D101
:101F1800002D39D0E38E9BB283B123689A6812F002
:101F2800020FEDD0226B12781A73236B01332363EF
:101F3800E28E92B2013A92B2E286EBE73A4629463D
:101F48002046FFF7A7FE08B120236365A36833B9CD
:101F580001932368DA6801929B680193019B636D82
:101F680013B9002600E00226012384F8513000232B
:101F780084F85030304603B0BDE8F0830326F3E719
:101F88000326F1E70326EFE70326EDE70226F1E74C
:101F98002DE9F04383B01F460A9D90F85030012B7D
:101FA80000F01081044688469146012380F850309D
:101FB80000F0FAFD064694F85130DBB26268012B56
:101FC8000AD0B2F5827F40F0E380A268002A40F090
:101FD800E980042B40F0E880B8F1000F00F0E680BB
:101FE800B9F1000F00F0E480002F00F0E38094F8CE
:101FF8005130DBB2042B02D0052384F85130002382
:102008006365C4F83890E787A787C4F83080E78607
:10201800A7862364636423681A6812F0400F03D10B
:102028001A6842F040021A60E368B3F5006F11D0F5
:1020380063680BB1012F0BD1226B236812781A73D6
:10204800236B01332363E38E9BB2013B9BB2E38690
:1020580001276BE063680BB1012F0BD1226B23685A
:102068001288DA60236B02332363E38E9BB2013B51
:102078009BB2E38601271CE023689A6812F0010FDF
:102088000ED0E28F92B25AB1DA68A36B1A80A36BB2
:102098000233A363E38F9BB2013B9BB2E387012723
:1020A80000F082FD801BA84203D3B5F1FF3F40F04A
:1020B8008380E38E9BB21BB9E38F9BB2002B53D076
:1020C80023689A6812F0020FD6D0E28E92B2002AE4
:1020D800D2D0002FD0D0226B1288DA60236B023363
:1020E8002363E38E9BB2013B9BB2E3860027C3E7E1
:1020F80023689A6812F0010F0ED0E28F92B25AB19B
:10210800DA68A36B1A70A36B0133A363E38F9BB2E6
:10211800013B9BB2E387012700F046FD831BAB42DE
:1021280002D3B5F1FF3F49D1002D49D0E38E9BB2D0
:1021380013B9E38F9BB2BBB123689A6812F0020F00
:10214800D6D0E28E92B2002AD2D0002FD0D0226B05
:1021580012781A73236B01332363E38E9BB2013B1E
:102168009BB2E3860027C3E7324629462046FFF79D
:1021780091FD48B9A36863B901932368DA680192AD
:102188009B680193019B04E020236365012000E024
:102198000220012384F85130002384F8503003B022
:1021A800BDE8F0830220F4E70220F2E70120F0E71F
:1021B8000120EEE70120ECE70320EAE70320E8E747
:1021C8000320E6E70220EAE72DE9F04383B004465E
:1021D800884691461D464368B3F5827F38D094F807
:1021E8005030012B00F0A880012384F8503000F013
:1021F800DBFC074694F85160F6B2012E40F0898066
:10220800B8F1000F00F08680B9F1000F00F082806D
:10221800042384F8513000236365C4F83880A4F897
:102228003C90A4F83E902363A386E386236463640A
:10223800A368B3F5004F18D023681A6812F0400F4E
:1022480003D11A6842F040021A60E36813B340E011
:102258008368002BC3D1042380F8513000951346BE
:102268000A46FFF795FE06465AE02268136823F0EF
:10227800400313602268136823F480431360DBE78C
:1022880000F092FCC01BA84202D3B5F1FF3F4BD12E
:10229800002D4BD0E38F9BB2002B2ED023689A6879
:1022A80012F0010FECD0A26B1B7B1370A36B0133F0
:1022B800A363E38F9BB2013B9BB2E387EAE700F09D
:1022C80073FCC01BA84202D3B5F1FF3F30D1002DEB
:1022D80030D0E38F9BB283B123689A6812F0010F64
:1022E800EDD0DA68A36B1A80A36B0233A363E28F85
:1022F80092B2013A92B2E287EBE73A462946204683
:10230800FFF7DAFC08B120236365636D13B9002673
:1023180000E00226012384F85130002384F850306D
:10232800304603B0BDE8F0830326F3E70326F1E760
:102338000326EFE70326EDE70226F1E770470000E2
:10234800F0B583B005460C460023019300F02CFC41
:102358002B689A6812F4807F23D107465A6812F4D2
:10236800807F03D1DB6A13F4700F29D0504B1E68AD
:10237800022000F0EDFFB6FBF0F02B6819694D4A1A
:10238800114236D1D96802F15C42114231D1196942
:10239800494A114240D1DA68484B1A423ED02926B0
:1023A80041E0AB6A43F02003AB62002385F8243098
:1023B800012003B0F0BD2B681B6813F0020F0FD08B
:1023C8002B681B6813F0020F4FD1B4F1FF3FF7D011
:1023D800002CF0D000F0E8FBC31BA342F0D9EAE7D9
:1023E800AB6A43F00403AB62002385F82430032072
:1023F800DFE71969304A114204D1D96802F16E4207
:1024080011420DD019692E4A0A405AB9DA682C4B84
:1024180013405BB1FC2606E0292604E0142602E0FE
:10242800542600E0FC2606FB00F607E05426FAE7EF
:10243800019BB34210D3019B01330193019BB3422B
:1024480013D2B4F1FF3FF6D0002CF1D000F0ACFB72
:10245800C01BA042EFD9EBE7AB6A43F00403AB62C1
:10246800002385F824300320A3E72B686FF01202BD
:102478001A60AB6A43F40073AB622B689B6803F481
:102488006023B3F5602F01D0002092E7287B60B964
:10249800AB6A23F48073AB62AB6A13F4805F88D1B4
:1024A800AB6A43F00103AB6283E7002081E700BF1A
:1024B80008000020244992249224491292244900B9
:1024C800499224000368D86C7047704710B50446D9
:1024D80003685A6812F0200F18D01A6812F0020F19
:1024E80014D0826A12F0100F03D1826A42F400728B
:1024F80082629A6802F46022B2F5602F38D02046D2
:1025080002F034FA23686FF012021A6023685A68DE
:1025180012F0800F22D01A6812F0040F1ED0A26A9F
:1025280012F0100F03D1A26A42F40052A2629A6814
:1025380002F4E042B2F5E04F31D05A6812F4806FED
:1025480005D19A6802F46022B2F5602F24D02046A3
:1025580002F034FA23686FF00C021A6023685A6894
:1025680012F0400F03D01B6813F0010F28D110BDE3
:10257800227B002AC3D15A6822F020025A60A36A3B
:1025880023F48073A362A36A13F4805FB7D1A36AAC
:1025980043F00103A362B2E7227B002AD7D15A682D
:1025A80022F080025A60A36A23F48053A362A36ACC
:1025B80013F4807FCBD1A36A43F00103A362C6E77B
:1025C800A36A43F48033A3622046FFF77EFF2368A3
:1025D8006FF001021A60CAE730B482B0002201929B
:1025E80090F82420012A00F08B800346012280F80D
:1025F80024204A68062A29D80568686B02EB8202FB
:10260800053A1F24944020EA04000C6804FA02F2F8
:1026180002436A630A68092A38D91D68E86802EB28
:1026280042021E3A0724944020EA04008C6804FA07
:1026380002F20243EA600A68103A012A34D90020FB
:10264800002283F8242002B030BC70470C2A0ED830
:102658000568286B02EB8202233A1F24944020EA83
:1026680004000C6804FA02F202432A63D2E7056800
:10267800E86A02EB8202413A1F24944020EA0400EF
:102688000C6804FA02F20243EA62C3E71D6828698B
:1026980002EB42020724944020EA04008C6804FA02
:1026A80002F202432A61C6E71A681648824205D038
:1026B8009A6A42F020029A620120C1E7906810F4F9
:1026C800000F1BD1906840F4000090600A68102A3F
:1026D80001D00020B4E70C4A12680C49A1FB021291
:1026E800920C02EB82025200019202E0019A013A36
:1026F8000192019A002AF9D10020A1E700209FE762
:102708000220A0E7002401400800002083DE1B43CC
:1027180030B583B00023019303689A6812F0010F63
:1027280032D104469A6842F001029A60184B1B683D
:10273800184AA2FB03239B0C0193019B1BB1019B2D
:10274800013B0193F9E700F02FFA054623689B68DF
:1027580013F0010F16D100F027FA431B022BF5D90D
:1027680023689B6813F0010FF0D1A36A43F01003AC
:10277800A362E36A43F00103E362002384F8243090
:10278800012002E0002000E0002003B030BD00BFBF
:102798000800002083DE1B4390F82430012B68D00A
:1027A80010B50446012380F82430FFF7B1FF002854
:1027B8005BD1A36A23F4407323F0010343F48073CD
:1027C800A36223682C4A934227D0A26A22F480127B
:1027D800A2625A6812F4806F05D0A26A22F44052AD
:1027E80042F48052A262A26A12F4805F2BD0E26A9D
:1027F80022F00602E262002284F824206FF002022E
:102808001A6023689A6802F46022B2F5602F1DD01E
:102818009A6842F480129A602AE0A2F580625268AF
:1028280012F4702FD1D0A26A42F48012A262134A25
:10283800526812F4806FD6D0A26A22F4405242F451
:102848008052A262CFE70022E262D4E70A4A9342AA
:1028580004D09A6842F4A0029A6009E0A2F5806266
:10286800526812F4702FD3D1F3E7002384F8243090
:1028780010BD0220704700BF00280140002401401D
:1028880090F82430012B6DD010B50446012380F850
:102898002430FFF73DFF002860D1A36A23F470635A
:1028A80023F0010343F48073A36223682E4A934202
:1028B8002CD0A26A22F48012A2625A6812F4806FA5
:1028C80005D0A26A22F4405242F48052A262A26A5F
:1028D80012F4805F30D0E26A22F00602E26200223F
:1028E80084F824206FF002021A602268536843F0CB
:1028F8002003536023689A6802F46022B2F5602FBF
:102908001DD09A6842F480129A602AE0A2F580628B
:10291800526812F4702FCCD0A26A42F48012A262DC
:10292800124A526812F4806FD1D0A26A22F440523F
:1029380042F48052A262CAE70022E262CFE70A4A62
:10294800934204D09A6842F4A0029A6009E0A2F582
:102958008062526812F4702FD3D1F3E7002384F811
:10296800243010BD02207047002801400024014097
:1029780038B503689A6812F0010F01D1002038BDFC
:1029880004469A6822F001029A6000F00DF90546A3
:1029980023689B6813F0010F13D000F005F9431B5F
:1029A800022BF5D923689B6813F0010FF0D0A36AB6
:1029B80043F01003A362E36A43F00103E3620120DA
:1029C800DDE70020DBE70000002800F08680F8B58E
:1029D8000446836A002B50D02046FFF7C9FFA36A3C
:1029E80013F0100373D1002871D1A26A22F488521F
:1029F80022F0020242F00202A262626826683849A6
:102A08008E4240D0E1690A43217B42EA4102A5682F
:102A1800B5F5807F02D0012D3CD01D46277D012FC2
:102A28003BD0716821F46941294371602568AE681B
:102A38002C4931401143A960A168B1F5807F01D0CC
:102A4800012902D12369013B1B052568E96A21F4A4
:102A580070010B43EB6223689968234B0B409A4241
:102A68002CD0A36A23F0120343F01003A362E36A95
:102A780043F00103E36201202EE0C36280F82430B2
:102A8800FFF75CFCA8E7E169B1F5402FBBD14FF433
:102A98000021B8E74FF48075C0E731B9A169013961
:102AA80045EA413141F40065BBE7A16A41F02001E4
:102AB800A162E16A41F00101E162B2E70023E36249
:102AC800A36A23F0030343F00103A36204E0A36AAB
:102AD80043F01003A3620120F8BD0120704700BF36
:102AE800003C0140FDF7E1FFFE0E1FFF90F8243087
:102AF800012B13D010B50446012380F82430FFF7CA
:102B080037FF38B9A36A23F4885323F0010343F04D
:102B18000103A362002384F8243010BD022070470B
:102B280010B504460E4B18784FF47A73B3FBF0F3E4
:102B38000C4A1068B0FBF3F000F01EFE68B90F2CC9
:102B480001D901200AE0002221464FF0FF3000F0B1
:102B5800D1FD054B1C60002000E0012010BD00BF26
:102B680000000020080000200400002008B5074AE3
:102B7800136843F010031360032000F0A9FD002040
:102B8800FFF7CEFFFEF78EFF002008BD00200240B1
:102B9800034A1168034B1B780B441360704700BF4E
:102BA800E008002000000020014B1868704700BFB3
:102BB800E008002038B50446FFF7F6FF0546B4F1F3
:102BC800FF3F02D0044B1B781C44FFF7EDFF401B6E
:102BD800A042FAD338BD00BF0000002082B0084BE5
:102BE8001B68084AA2FB03235B0A00FB03F301935B
:102BF80000BF019B5A1E0192002BF9D102B0704709
:102C080008000020D34D6210002800F0F18170B553
:102C180082B00446036813F0010F2CD0AA4B5B68FE
:102C280003F00C03042B1DD0A74B5B6803F00C03C7
:102C3800082B12D06368B3F5803F41D0002B55D1E3
:102C480003F1804303F504331A6822F480321A60D2
:102C58001A6822F480221A6037E09B4B5B6813F4F1
:102C6800803FE7D0984B1B6813F4003F03D063689C
:102C7800002B00F0BF81236813F0020F75D0924B30
:102C88005B6813F00C0F5FD08F4B5B6803F00C038D
:102C9800082B54D02369002B00F089808B4B01222C
:102CA8001A60FFF781FF0546874B1B6813F0020F78
:102CB80074D1FFF779FF401B0228F5D903209EE164
:102CC800814A136843F480331360636843B3FFF7A2
:102CD8006BFF05467C4B1B6813F4003FCBD1FFF715
:102CE80063FF401B6428F5D9032088E1B3F5A02FC2
:102CF80009D0754B1A6822F480321A601A6822F4D7
:102D080080221A60E1E703F18043A3F53C331A6897
:102D180042F480221A601A6842F480321A60D4E7BA
:102D2800FFF742FF0546684B1B6813F4003FA2D02B
:102D3800FFF73AFF401B6428F5D903205FE1624B97
:102D48005B6813F4803FA5D15F4B1B6813F0020F3B
:102D580003D02369012B40F04F815B4A136823F0AD
:102D6800F803616943EAC1031360236813F0080F8D
:102D780032D0A369002B45D0554B01221A60FFF7CA
:102D880013FF0546504B5B6A13F0020F21D1FFF782
:102D98000BFF401B0228F5D9032030E14A4A13688B
:102DA80023F0F803616943EAC1031360DDE7474B89
:102DB80000221A60FFF7F8FE0546434B1B6813F024
:102DC800020FD2D0FFF7F0FE401B0228F5D90320EE
:102DD80015E10120FFF702FF236813F0040F00F04C
:102DE8009780394BDB6913F0805F1DD1364BDA6968
:102DF80042F08052DA61DB6903F080530193019B52
:102E0800012512E0324B00221A60FFF7CDFE05467D
:102E18002D4B5B6A13F0020FDED0FFF7C5FE401B97
:102E28000228F5D90320EAE000252A4B1B6813F491
:102E3800807F11D0E368012B22D0002B38D103F119
:102E4800804303F504331A6A22F001021A621A6AEF
:102E580022F004021A6218E01E4A136843F48073D1
:102E68001360FFF7A1FE06461A4B1B6813F4807F18
:102E7800E0D1FFF799FE801B6428F5D90320BEE056
:102E8800114A136A43F001031362E36873B3FFF74F
:102E98008BFE06460C4B1B6A13F0020F37D1FFF767
:102EA80083FE801B41F288339842F3D90320A6E0C1
:102EB800052B11D0044B1A6A22F001021A621A6A11
:102EC80022F004021A62E0E70010024000004242C9
:102ED80080044242007000404D4B1A6A42F00402DE
:102EE8001A621A6A42F001021A62CEE7FFF75CFE24
:102EF8000646474B1B6A13F0020F08D0FFF754FE33
:102F0800801B41F288339842F3D9032077E0E5B972
:102F1800E369002B72D03E4A526802F00C02082A7C
:102F280056D0022B17D03B4B00221A60FFF73CFE0D
:102F38000446374B1B6813F0007F47D0FFF734FE79
:102F4800001B0228F5D9032059E0314AD36923F040
:102F58008053D361DCE72F4B00221A60FFF724FE71
:102F680005462B4B1B6813F0007F06D0FFF71CFEAD
:102F7800401B0228F5D9032041E0236AB3F5803FBE
:102F88001AD023494B6823F47413226A606A0243F7
:102F980013434B601F4B01221A60FFF705FE0446DE
:102FA8001B4B1B6813F0007F0ED1FFF7FDFD001BC4
:102FB8000228F5D9032022E0154A536823F4003388
:102FC800A1680B435360DCE7002018E0002016E0FE
:102FD800012B16D00E4B5B6803F48031226A9142B4
:102FE80011D103F47013626A93420ED1002006E0F7
:102FF80001207047012002E0012000E0002002B01B
:1030080070BD0120FBE70120F9E70120F7E700BFC9
:10301800001002406000424286B0164B0FCB0DF103
:10302800180C0CE90F0040F20123ADF80430124BE4
:103038005B6803F00C02082A02D0104806B07047FB
:10304800C3F38342624412F8102C13F4803F0CD06F
:10305800094B5B68C3F34043634413F8143C0748C7
:1030680000FB02F0B0FBF3F0E8E7054800FB02F0D4
:10307800E4E700BF545000080010024000127A0034
:1030880000093D00002800F0A08070B50D460446F8
:10309800524B1B6803F007038B420BD24F4A13684D
:1030A80023F007030B431360136803F007038B42F5
:1030B80040F08D80236813F0020F17D013F0040F2F
:1030C80004D0474A536843F4E0635360236813F01D
:1030D800080F04D0424A536843F460535360404A8F
:1030E800536823F0F003A1680B435360236813F07F
:1030F800010F31D06368012B20D0022B25D0384A2C
:10310800126812F0020F64D035494A6822F00302AF
:1031180013434B60FFF748FD0646314B5B6803F0ED
:103128000C036268B3EB820F16D0FFF73DFD801BDE
:1031380041F288339842F0D9032045E0284A1268C2
:1031480012F4003FE0D101203EE0254A126812F057
:10315800007FD9D1012037E0204B1B6803F007031B
:10316800AB420AD91D4A136823F007032B431360A7
:10317800136803F00703AB422DD1236813F0040F43
:1031880006D0174A536823F4E063E1680B435360A1
:10319800236813F0080F07D0114A536823F46053CB
:1031A800216943EAC1035360FFF736FF0C4B5B68A4
:1031B800C3F303130B4AD35CD8400B4B18600B4B7B
:1031C8001868FFF7ADFC002070BD01207047012092
:1031D800FAE70120F8E70120F6E700BF00200240E7
:1031E8000010024068500008080000200400002079
:1031F800014B1868704700BF0800002008B5FFF7AA
:10320800F7FF044B5B68C3F30223034AD35CD8403F
:1032180008BD00BF001002407850000808B5FFF74D
:10322800E7FF044B5B68C3F3C223034AD35CD8406F
:1032380008BD00BF001002407850000870B582B089
:103248000446036813F0010F34D03E4BDB6913F0DA
:10325800805F47D13B4BDA6942F08052DA61DB6923
:1032680003F080530193019B0125374B1B6813F42E
:10327800807F39D0334B1B6A13F4407311D06268D6
:1032880002F440729A420CD02E4A136A23F440701A
:103298002E4901260E6000260E60106213F0010F01
:1032A80036D1284A136A23F4407361680B431362CA
:1032B800002D3ED1236813F0020F06D0214A53682F
:1032C80023F44043A1680B435360236813F0100FA5
:1032D80034D01C4A536823F4800361690B4353605C
:1032E80000202CE00025C0E7174A136843F48073D8
:1032F8001360FFF759FC0646134B1B6813F4807FD5
:10330800B8D1FFF751FC801B6428F5D9032016E0DB
:10331800FFF74AFC06460B4B1B6A13F0020FC0D19D
:10332800FFF742FC801B41F288339842F3D903200F
:1033380005E0D36923F08053D361BBE7002002B0D6
:1033480070BD00BF001002400070004040044242BF
:1033580010B586B004463D4B0FCB0DF1180C0CE9A7
:103368000F0040F20123ADF80430601E0F2866D824
:10337800DFE800F0385A653265656535656565656D
:1033880065656508324B5A68186810F0807057D028
:10339800C2F3834306A90B4413F8100C12F4803FC0
:1033A80016D02B4B5B68C3F340430B4413F8142C23
:1033B800284BB3FBF2F300FB03F0254B5B6813F4D7
:1033C800800F3DD14000244BA3FB0030400837E07C
:1033D800224B03FB00F0F0E7FFF71EFE30E0FFF79B
:1033E8001BFE2DE01A4B1B6A40F202321A40B2F55E
:1033F800817F27D003F44073B3F5007F04D0B3F581
:10340800407F09D000201BE0114A526A12F0020FD7
:10341800F5D049F6404013E00D4B186810F4003021
:103428000ED04FF224400BE0FFF7F8FE084B5B6824
:10343800C3F3813301335B00B0FBF3F000E00020FD
:1034480006B010BD4FF40040FAE700BF5450000822
:103458000010024000127A00ABAAAAAA00093D0097
:10346800F0B482B000252C46ABE0854FBB4210D0AB
:1034780007D9844FBB420CD007F58037BB4208D030
:1034880013E0A7F58017BB4203D007F57027BB42AE
:1034980007D18B68002B60D0012B59D042610825D9
:1034A80003E0A7F58017BB42F3D0FF2E57D8844618
:1034B800FF2E57D8A200DCF800300F27974023EAE8
:1034C800070305FA02F21343CCF800304B6813F0F7
:1034D800805F75D06C4B9A6942F001029A619B69D2
:1034E80003F001030193019BA208971C674B53F853
:1034F80027C004F003039F000F23BB402CEA030CF2
:10350800634B984234D003F58063984200F094806E
:1035180003F58063984200F0918003F58063984238
:1035280000F08E8003F58063984200F08B8003F5ED
:10353800806398421AD006231BE0CD68B5E7CD68B2
:103548000435B2E7CD680835AFE7CD680C35ACE790
:1035580002610825A9E70025A7E70425A5E700F1EA
:10356800040CA5E7A4F108029200A4E7052300E0F3
:103578000023BB4043EA0C030232444F47F8223091
:103588004B6813F4803F5FD0424A1368334313609B
:103598004B6813F4003F5DD03E4A53683343536091
:1035A8004B6813F4801F5BD03A4A936833439360A7
:1035B8004B6813F4001F59D0364AD3681E43D660AF
:1035C80001340B6833FA04F256D00122A24003EA10
:1035D800020632EA0303F3D14B68122B3FF645AFDC
:1035E800122B3FF662AF01A757F823F09B3400086F
:1035F800433500084D3500085F350008B33400082E
:10360800B3340008B3340008B3340008B3340008F6
:10361800B3340008B3340008B3340008B3340008E6
:10362800B3340008B3340008B3340008B3340008D6
:10363800473500085335000801239AE7022398E725
:10364800032396E7042394E7124A136823EA060340
:1036580013609DE70F4A536823EA060353609FE708
:103668000C4A936823EA06039360A1E7094AD368E2
:1036780023EA0606D660A3E702B0F0BC704700BF95
:10368800000022100000311000100240000001402C
:1036980000080140000401408368194201D001205C
:1036A8007047002070470AB1016170470904016141
:1036B8007047000008B5054B5B69034200D108BD9F
:1036C800024B586101F03AF9F9E700BF00040140E4
:1036D800074AD36823F4E0631B041B0C000200F4C0
:1036E800E060034343F0BF6343F40033D3607047A3
:1036F80000ED00E030B4174BDB68C3F30223C3F1DD
:103708000704042C28BF04241D1D062D18D9033BCB
:103718004FF0FF3505FA04F421EA0401994005FA4F
:1037280003F322EA0303194300280BDB0901C9B29A
:1037380000F1604000F5614080F8001330BC70472C
:103748000023E5E700F00F000901C9B2024B195444
:10375800F4E700BF00ED00E014ED00E0002807DB0F
:1037680000F01F02400901239340024A42F820302A
:10377800704700BF00E100E00138B0F1807F0AD255
:10378800064B5860064AF02182F823100020986002
:1037980007221A6070470120704700BF10E000E060
:1037A80000ED00E030B4036A23F001030362056A08
:1037B8004268846924F073040B681C4325F00205F1
:1037C8008B682B43104DA84203D005F50065A8422D
:1037D80005D123F00803CD682B4323F004030A4DD9
:1037E800A84203D005F50065A84205D122F440722D
:1037F8004D6915438A692A43426084614A68426375
:10380800036230BC704700BF002C014030B4036A2B
:1038180023F480730362036A4268C46924F0730462
:103828000D682C4323F400738D6843EA0523124D79
:10383800A84203D005F50065A84206D123F4006329
:10384800CD6843EA052323F480630B4DA84203D0D7
:1038580005F50065A84207D122F440524D6942EAB5
:1038680005128D6942EA05124260C4614A68C26362
:10387800036230BC704700BF002C014030B4036ABB
:1038880023F480530362036A4468C26922F4E6425F
:103898000D6842EA052223F400538D6843EA053394
:1038A800094DA84203D005F50065A84204D124F4C7
:1038B80080444D6944EA85144460C2614A680264E0
:1038C800036230BC704700BF002C01407047000005
:1038D80090F83D30DBB2012B2FD1022380F83D3028
:1038E8000268D36843F00103D3600368154A934222
:1038F80018D002F50062934214D0B3F1804F11D072
:10390800A2F5983293420DD002F58062934209D015
:1039180002F58062934205D01A6842F001021A60EB
:10392800002070479A6802F00702062A07D01A6832
:1039380042F001021A600020704701207047002001
:10394800704700BF002C01400268D36823F00103D0
:10395800D3600368196A41F21112114208D1196A39
:1039680040F24442114203D11A6822F001021A605F
:10397800012380F83D30002070477047704770473A
:10398800704710B5044603681A6912F0020F11D087
:10399800DA6812F0020F0DD06FF002021A610123EB
:1039A800037703689B6913F0030F70D0FFF7E6FFF6
:1039B8000023237723681A6912F0040F12D0DA68FB
:1039C80012F0040F0ED06FF004021A61022323775D
:1039D80023689B6913F4407F5FD02046FFF7CEFF32
:1039E8000023237723681A6912F0080F12D0DA68C7
:1039F80012F0080F0ED06FF008021A610423237723
:103A08002368DB6913F0030F4ED02046FFF7B6FF9B
:103A18000023237723681A6912F0100F12D0DA688E
:103A280012F0100F0ED06FF010021A6108232377DE
:103A38002368DB6913F4407F3DD02046FFF79EFFE3
:103A48000023237723681A6912F0010F03D0DA687C
:103A580012F0010F36D123681A6912F0800F03D0D3
:103A6800DA6812F0800F34D123681A6912F0400F17
:103A780003D0DA6812F0400F32D123681A6912F0C5
:103A8800200F03D0DA6812F0200F30D110BDFFF7F5
:103A980074FF2046FFF773FF8AE72046FFF76DFFA4
:103AA8002046FFF76CFF9BE72046FFF766FF20469E
:103AB800FFF765FFACE72046FFF75FFF2046FFF7FB
:103AC8005EFFBDE76FF001021A612046FDF7AAFF0D
:103AD800C1E76FF080021A61204600F04DFBC3E792
:103AE8006FF040021A612046FFF74AFFC5E76FF002
:103AF80020021A61204600F03EFBC7E70368244A0B
:103B0800904212D002F5006290420ED0B0F1804F80
:103B18000BD0A2F59832904207D002F5806290420D
:103B280003D002F58062904203D123F070034A6803
:103B38001343174A904212D002F5006290420ED009
:103B4800B0F1804F0BD0A2F59832904207D002F521
:103B58008062904203D002F58062904203D123F440
:103B68004073CA68134323F080034A691343036010
:103B78008B68C3620B688362054B984203D003F5D8
:103B88000063984201D10B690363012343617047C5
:103B9800002C014040B310B5044690F83D30F3B115
:103BA800022384F83D30214651F8040BFFF7A6FFA5
:103BB800012384F8463084F83E3084F83F3084F896
:103BC800403084F8413084F8423084F8433084F837
:103BD800443084F8453084F83D30002010BD80F82A
:103BE8003C30FFF773FEDBE70120704740B310B5A8
:103BF800044690F83D30F3B1022384F83D30214665
:103C080051F8040BFFF77AFF012384F8463084F853
:103C18003E3084F83F3084F8403084F8413084F8EE
:103C2800423084F8433084F8443084F8453084F8CE
:103C38003D30002010BD80F83C30FDF74DFCDBE73F
:103C48000120704730B4036A23F010030362036A4B
:103C58004468826922F4E6420D6842EA052223F0AC
:103C680020038D6843EA0513114DA84203D005F5DA
:103C78000065A84206D123F08003CD6843EA051306
:103C880023F040030A4DA84203D005F50065A84279
:103C980007D124F440644D6944EA85048D6944EAF7
:103CA8008504446082614A688263036230BC70475D
:103CB800002C014038B590F83C30012B60D0044608
:103CC8000D46012380F83C300C2A1AD8DFE802F0B0
:103CD800071919191D1919193119191944000068FA
:103CE800FFF760FD2268936943F008039361226837
:103CF800936923F0040393612268936929690B434C
:103D08009361002084F83C0038BD0068FFF79AFFF3
:103D18002268936943F4006393612268936923F4EA
:103D28008063936122689369296943EA0123936157
:103D3800E7E70068FFF76AFD2268D36943F00803E4
:103D4800D3612268D36923F00403D3612268D3695D
:103D580029690B43D361D4E70068FFF78FFD226818
:103D6800D36943F40063D3612268D36923F4806381
:103D7800D3612268D369296943EA0123D361C0E783
:103D88000220C1E710B401F01F01012303FA01F476
:103D9800036A23EA04030362036A02FA01F10B438C
:103DA800036210BC7047000010B50446084600299D
:103DB8003AD194F83E30DBB2013B18BF0123002B07
:103DC80066D1002849D1022384F83E3001220146F9
:103DD8002068FFF7D7FF23682F4A934203D002F5E4
:103DE8000062934203D15A6C42F400425A64236839
:103DF800294A934241D002F5006293423DD0B3F183
:103E0800804F3AD0A2F59832934236D002F58062BC
:103E1800934232D002F5806293422ED01A6842F063
:103E280001021A60002032E0042908D008290DD0C8
:103E380094F84130DBB2013B18BF0123BFE794F887
:103E48003F30DBB2013B18BF0123B8E794F840309C
:103E5800DBB2013B18BF0123B1E7042805D00828CD
:103E680007D0022384F84130B0E7022384F83F30BA
:103E7800ACE7022384F84030A8E79A6802F007020A
:103E8800062A07D01A6842F001021A60002010BD05
:103E98000120FCE70020FAE7002C014038B5044671
:103EA8000D4600220068FFF76DFF23681D4A934204
:103EB80018D002F50062934214D02368196A41F2BF
:103EC8001112114208D1196A40F24442114203D139
:103ED8001A6822F001021A609DB9012384F83E3065
:103EE800002038BD196A41F211121142E5D1196A50
:103EF80040F244421142E0D15A6C22F400425A6422
:103F0800DBE7042D05D0082D07D0012384F84130C4
:103F1800E6E7012384F83F30E2E7012384F84030E4
:103F2800DEE700BF002C014010B401F01F0104239C
:103F380003FA01F4036A23EA04030362036A02FA38
:103F480001F10B43036210BC7047000010B5044632
:103F58000846002933D194F84230DBB2013B18BF40
:103F68000123002B5FD1002842D1022384F842307C
:103F7800042201462068FFF7D7FF2268536C43F4F8
:103F88000043536423682A4A934241D002F50062F1
:103F980093423DD0B3F1804F3AD0A2F59832934284
:103FA80036D002F58062934232D002F580629342A5
:103FB8002ED01A6842F001021A60002032E004296B
:103FC80008D008290DD094F84530DBB2013B18BF62
:103FD8000123C6E794F84330DBB2013B18BF012345
:103FE800BFE794F84430DBB2013B18BF0123B8E7C0
:103FF800042805D0082807D0022384F84530B7E7FD
:10400800022384F84330B3E7022384F84430AFE74F
:104018009A6802F00702062A07D01A6842F00102DD
:104028001A60002010BD0120FCE70020FAE700BF5D
:10403800002C014038B504460D4600220068FFF701
:1040480073FF2368196A41F21112114208D1196AE3
:1040580040F24442114203D15A6C22F400425A649D
:104068002368196A41F21112114208D1196A40F203
:104078004442114203D11A6822F001021A6025B99C
:10408800012384F84230002038BD042D05D0082DC6
:1040980007D0012384F84530F5E7012384F843303D
:1040A800F1E7012384F84430EDE7000090F83C3054
:1040B800012B33D030B4012380F83C30022380F840
:1040C8003D3003685C689D6824F070040A682243E8
:1040D8005A600368124A934212D002F50062934272
:1040E8000ED0B3F1804F0BD0A2F59832934207D08F
:1040F80002F58062934203D002F58062934204D1B4
:1041080025F080054A6815439D60012380F83D30FD
:10411800002380F83C30184630BC704702207047B6
:10412800002C014090F83C30012B22D0012380F86C
:104138003C30CB6823F440738A68134323F48063CC
:104148004A68134323F400630A68134323F4805333
:104158000A69134323F400534A69134323F4804341
:10416800CA69134302685364002380F83C30184638
:104178007047022070477047704770470369C268EC
:10418800934204D88068801A0344581E70479B1ACB
:10419800581E70472DE9F843044688461646C568F8
:1041A8008768A7EB0509914507D94068284400F0BE
:1041B800C1FE3544E560BDE8F88340684A462844B6
:1041C80000F0B8FEED1B35442A4608EB090160688B
:1041D80000F0B0FEE560EEE72DE9F84306468846B4
:1041E8001746C5684FF0000918E0641B621EB368E3
:1041F8005C1B944228BF1446BC4228BF3C467068EA
:1042080022464146284400F095FEA144A0443F1BA5
:104218002544B368AB4209D0F5604FB13469A54273
:10422800E3D3B268641B1444621EE0E70025F3E799
:104238004846BDE8F8830000114B03221A615A6111
:1042480010499961104ADA614FF480621A620022BB
:104258009A625A62DA6219660C495966102199669F
:104268001A67DA665A670A4A1068C3F80700094AE3
:1042780092E803001860998020229A71704700BF65
:10428800E4080020805000086C0200205C02002036
:104298008C50000890500008F8B50F461646451C8B
:1042A80005EB4505164B03EBC50500EB400003EB9A
:1042B800C000C46A012C11D0022C1CD014B10024F7
:1042C8002046F8BD2846FFF759FF8642F8D83246FF
:1042D80039462846FFF75EFF3446F1E72846FFF7E0
:1042E8004DFF3446864228BF0446224639462846B2
:1042F800FFF750FFE4E72846FFF76EFF0446DFE7C5
:10430800E4080020F8B504460D461646094B1B780C
:104318006BB1EFF311874FF0200181F3118832461A
:1043280029462046FFF7B8FF87F31188F8BDFFF745
:1043380083FFEEE7E408002010B504468268531CAA
:104348004068834205D820688154A360E36801333C
:10435800E360A26863689A4200D010BD21682069B2
:10436800FFF7D0FFA368984203D04FF0FF33E36014
:10437800F3E70023A360F0E72DE9F84F81460F46E5
:1043880015461E46DDF828A00B9A0B464FF001088B
:10439800AB4204D3B3FBF5F308F10108F8E7B045E5
:1043A80000D2B04612F0010B18D1BAF1000F15D0A7
:1043B80012F0020F02D0BEB1202400E02024BAF18E
:1043C800000F0BD0C24509D90AF1FF3A21464846E9
:1043D800FFF7B2FFD9F80C30002BF0DAD9F80C301F
:1043E800002B25DB012407E03024E8E7B7FBF4F3D2
:1043F8009D4206D805FB04F4012EF7D9013EF9E7E2
:104408001C46B7FBF4F304FB1377124AD15C484609
:10441800FFF792FFD9F80C30002B03DBB4FBF5F360
:10442800AC42EDD2BBF1000F02D0BAF1000F01D1BE
:10443800BDE8F88FBAF1000FFAD0C245F8D90AF1F1
:10444800FF3A20214846FFF777FFD9F80C30002BB8
:10445800F0DAEDE7985000082DE9F04F83B0804678
:10446800894616469A460C9FDDF834B081EAE17415
:10447800A4EBE1740125A64203DC94FBF6F40135B4
:10448800F9E7554500D2554637B1B9F1000F02DBBF
:104498001BF0040F00D0013F1BF0020F02D0BAF14D
:1044A800000F03D01BF0010F00D1C7B9D8F80C30AA
:1044B800002B11DBB9F1000F1FDB1BF0040F23D118
:1044C800D8F80C30002B07DB0BF00303022B20D0AD
:1044D800D8F80C30002B2FDA03B0BDE8F08F002F8E
:1044E800E4D0AF42E2D9013F20214046FFF724FF44
:1044F800D8F80C30002BF2DAD8E7C9F100092D21E1
:104508004046FFF719FFDBE72B214046FFF714FF72
:10451800D6E7BAF1000FDBD1002FD9D0002FD7D0C2
:10452800AF42D5D9013F30214046FFF705FFD8F803
:104538000C30002BF2DACBE7CDF804B000975346E5
:10454800324649464046FFF717FFC5E72DE9F047D1
:1045580098B007460C46164603AB139340231493B2
:10456800002315931790169397E00025012211E078
:1045780045F0010501340CE045F00205013408E07E
:1045880045F00405013404E045F00805013400E075
:1045980000221AB32378233B0D2BF9D801A151F837
:1045A80023F000BF91450008994500089945000887
:1045B800994500089945000899450008994500085B
:1045C800994500088945000899450008794500087B
:1045D8009945000899450008814500084FF00008F2
:1045E8002378A3F13002D2B2092A07D8013408EBA4
:1045F800880803EB4803A3F13008F1E72E2B03D01A
:104608004FF00009237812E001344FF000092378B5
:10461800A3F13002D2B2092AF4D8013409EB89098E
:1046280003EB4909A9F13009F1E714F8013F6C2BB4
:10463800FBD0682BF9D0252B7ED029D3782B27D80F
:10464800462B25D3463B322B22D8DFE803F07A21CC
:104658002121212121212121212121212121212142
:104668004C212121212121212121211A32217A21A4
:10467800212121212121212168212159213F212185
:104688004C0033681A1D3260197813A8FFF754FEDE
:104698000134169B002BC0F2988014F8011B0029E6
:1046A80000F0938025293FF460AF13A8FFF744FE7C
:1046B800EFE733681A1D326019680195CDF800805C
:1046C8004B460A2213A8FFF7C7FEE1E733681A1D15
:1046D800326019680195CDF800804B460A2213A86C
:1046E800FFF74AFED4E733681A1D3260196801954E
:1046F800CDF800804B46102213A8FFF73DFEC7E710
:1047080033681A1D32601D6815F8011B0029BFD0D7
:1047180013A8FFF711FE169B002BF5DAB8E73368EC
:104728001A1D326019680023019308230093102290
:1047380013A8FFF721FEABE7252113A8FFF7FCFD1F
:10474800A6E73368073323F0070303F10802326052
:10475800D3E90001FCF7FEF882460021FCF7A6FA2F
:1047680070BB5046FCF7CAFA0195CDF800804B465D
:104778000A2280EAE071A1EBE07113A8FFF76CFE52
:104788002E2113A8FFF7D8FD19495046FBF772FEF2
:10479800FCF7B4FA0028B8BF4042164B83FB00234D
:1047A800C117C1EBA3110195CDF8008003230A229C
:1047B8004FF47A7505FB110113A8FFF74DFE67E763
:1047C8002D2113A8FFF7B8FDCBE7169B002B05DDBD
:1047D800159A3AB9159A169B13441693169818B059
:1047E800BDE8F08703A93846FFF78CFDF2E700BF64
:1047F80000007A44D34D62100EB400B582B003AB0A
:1048080053F8041B019301AAFFF7A0FE02B05DF85C
:1048180004EB03B070470000064AD36843F0807386
:10482800D360054B00225A601A6842F001021A60F0
:10483800704700BFF0ED00E0001000E0074B1B6878
:10484800074AA2FB03239B0C00FB03F0054B5A68A5
:10485800044B5B689B1A8342FAD370470800002018
:1048680083DE1B43001000E0024B1B6800225A63E2
:10487800704700BF0C08002008B5FFF7F5FF0022BD
:1048880004210648FEF70FFF00224FF48071044808
:10489800FEF709FFFFF7C0FF08BD00BF0008014091
:1048A8000010014008B5054B1A68D36A01335B084C
:1048B8005363FFF7C3FFFFF7D7FF08BD0C080020BD
:1048C8002DE9F04180460F461B4C00212046FFF79A
:1048D8006BFA00212046FFF739FB002616E040F26C
:1048E8004130FFF7ABFF0134072C09DC45FA04F32C
:1048F80013F0010FF3D040F24130FFF7D3FFF2E796
:1049080040F24130FFF7CEFF0136B6B2BE4207D2C1
:1049180018F8065040F24130FFF790FF0024E3E713
:10492800054C00212046FFF7B9FA00212046FFF781
:1049380081FBBDE8F08100BF0C080020022800D0F0
:10494800704708B50023064A1370064A13700648D4
:1049580003686FF001021A61FEF7BAFF08BD00BFD5
:104968006D0600206C0600205408002002680F4BDA
:104978009A4200D0704710B5FDF7A4FD80B2B0F59B
:10498800FA6F94BF0020012009490B789840094C20
:104998002278104320700133DBB20B70072B00D84C
:1049A80010BD0548FEF7D0FFFAE700BF002401401C
:1049B8006C0600206D060020540800207047000097
:1049C80000B583B000F07F008DF804008DF8051065
:1049D80000224FF480510C48FEF765FE4FF0FF337C
:1049E800022201A90948FDF7FCF940B901224FF458
:1049F80080510548FEF757FE03B05DF804FB0449F3
:104A08000020FFF7F9FEF1E7000C01402407002021
:104A1800A850000808B50A20FEF7CCF80A212C2077
:104A2800FFF7CEFF0A213120FFF7CAFF08212D200A
:104A3800FFF7C6FF08BD00002DE9F04182B08046AF
:104A48000F461646F2238DF80730254C00224FF406
:104A580080512046FEF727FE224D4FF0FF330122FA
:104A68000DF107012846FDF7BCF94FF0FF33062288
:104A780069462846FDF7A8FB01224FF480512046DD
:104A8800FEF711FE9DF801301B021BB29DF80000D5
:104A98009DF803502D022DB29DF8022015439DF874
:104AA8000540240224B29DF8042014431843FCF75F
:104AB8005BF80D49FBF7DEFCC8F800002846FCF758
:104AC80053F80949FBF7D6FC38602046FCF74CF848
:104AD8000549FBF7CFFC306002B0BDE8F08100BFAC
:104AE800000C01402407002024977F3B00B585B0C7
:104AF80004230093112301930023029303230393B8
:104B080069460348FEF7ACFC05B05DF804FB00BF3E
:104B18000010014000B585B00023039304220092E1
:104B28000193029369460348FEF79AFC05B05DF8C5
:104B380004FB00BF0010014008B5FFF77FFE08BD69
:104B480010B5FFF7D3FF0A4C002204212046FEF7D8
:104B5800AAFD4FF44870FFF7EFFF01220421204619
:104B6800FEF7A1FD1E20FFF7E7FFFFF7D3FF10BDFB
:104B78000010014010B504210C48FEF78DFD0028F7
:104B8800F9D0002404210948FEF786FD012806D142
:104B98000134642C03D80120FFF7CEFFF2E7142C70
:104BA80001D8002010BD0120FCE700BF0010014023
:104BB80038B50725002007E04000C4B2FFF7DAFF48
:104BC8002043C0B2013D6DB2002DF5DA38BD0000BA
:104BD80010B5002404211248FEF75EFD012806D115
:104BE8000134642C19D80120FFF7A6FFF2E700244E
:104BF80004210B48FEF750FD034630B90134642CFC
:104C080009D80120FFF798FFF2E72246054900205E
:104C1800FFF7F2FD0123184610BD0023FBE700BF94
:104C280000100140C850000800B583B0094B9A69CC
:104C380042F010029A619B6903F010030193019BF3
:104C4800FFF754FF012204210348FEF72CFD03B0AF
:104C58005DF804FB0010024000100140F0B583B07D
:104C680006460D46002300938DF80430FFF768FFD1
:104C7800FFF7AEFF10B9012003B0F0BD3220FFF7F7
:104C8800DDFD0024042C08D8FFF792FF02AB234473
:104C980003F8080C0134E4B2F4E79DF804109DF819
:104CA80000009DF8012083189DF802703B449DF890
:104CB80003402344DBB2994221D142EA0020FBF7AA
:104CC80053FF1049FBF7D6FB286044EA0724204627
:104CD80014F4004F07D1FBF747FF0A49FBF7CAFB5B
:104CE80030600020C8E7C4F30E00FBF73DFF05491C
:104CF800FBF7C0FB00F1004030600020BCE7022059
:104D0800BAE700BFCDCCCC3DF0B587B00024049401
:104D18001F4B9A6942F004029A619A6902F00402F0
:104D28000092009A9A6942F008029A619B6903F01E
:104D380008030193019B3023029301270397032360
:104D48000593144D02A92846FEF78AFB124E224607
:104D580020213046FEF7A7FC4023029303940494D5
:104D680002A92846FEF77CFB3846FDF723FF2246BA
:104D780010212846FEF797FC224620212846FEF7F8
:104D880092FC224620213046FEF78DFC07B0F0BD8C
:104D98000010024000080140000C01400023072BCE
:104DA80011DC10B4084C03EB830290002218002198
:104DB800215451609160D160012111740B44072B7B
:104DC800F0DD10BC70477047700600200023072BE9
:104DD8001ADCF0B403EB83040D4D15F8244034B10C
:104DE8000133072BF6DD4FF0FF30F0BC704703EBC3
:104DF800830605EB8604012705F826706060A0602D
:104E0800E160227458B2F0E74FF0FF30704700BFFE
:104E18007006002010B500240CE0194B13445A68A2
:104E28009A6006E004EB84029100154A0A44013BAB
:104E380093600134072C22DC04EB84029300104AAF
:104E4800D35C002BF5D004EB84039A000C4B13447D
:104E58009B68002BE6D10A4B1344DB6803B19847E3
:104E680004EB84039A00064B13441B7C012BD4D01B
:104E780004EB84029300024A0021D154D9E710BD03
:104E880070060020014B1860596070471007002019
:104E9800024B9860D9601A61704700BF1007002064
:104EA8000C480D490D4A002302E0D458C45004337D
:104EB800C4188C42F9D30A4A0A4C002301E0136053
:104EC8000432A242FBD3FFF758F900F00FF8FCF7C1
:104ED80073F97047000000200C000020E85000081B
:104EE8000C000020BC090020FEE7000070B5002679
:104EF8000C4D0D4C641BA410A64209D100F030F8EB
:104F080000260A4D0A4C641BA410A64205D170BDA8
:104F180055F8043B98470136EEE755F8043B9847A7
:104F28000136F2E7E0500008E0500008E0500008C1
:104F3800E45000080A44914200F1FF3300D1704761
:104F480010B511F8014B914203F8014FF9D110BD8A
:104F580003460244934200D1704703F8011BF9E766
:104F6800F8B500BFF8BC08BC9E467047F8B500BF4E
:084F7800F8BC08BC9E4670471E
:104F800074656D7065722069732025662068756D83
:104F90002069732025660A00786461746120697352
:104FA0002025662C79646174612069732025662C44
:104FB0007A646174612069732025660A000000002C
:104FC0006572726F7220310A000000006572726FA4
:104FD0007220320A000000006572726F7220330A7C
:104FE0000000000068616C5F696E6974207375630E
:104FF000636573730A00000073797374656D636C85
:105000006F636B20696E6974207375636365737376
:105010000A0000007065726970686572616C2069D1
:105020006E697420737563636573730A0000000012
:10503000706F7765722069732025640A0000000094
:10504000756172745F696E69745F6572726F720AFE
:105050000000000002030405060708090A0B0C0DF6
:105060000E0F101000000000000000000000000003
:1050700001020304060708090000000001020304FE
:105080005465726D696E616C0000000052545400EA
:1050900053454747455200003031323334353637B7
:1050A000383941424344454677726974655F726599
:1050B000675F7370695F7472616E736D6974206588
:1050C00072726F720A0000007473737373732069D5
:0850D000732025640A000000B2
:0850D800E8BCFF7F01000000AD
:0450E0000D020008B5
:0450E400E9010008D6
:0C50E80001000000100000000024F40093
:0400000508004EA9F8
:00000001FF
