:020000040800F2
:1000000000C00020E54700086D0D00086F0D0008D6
:10001000710D0008730D0008750D00080000000048
:10002000000000000000000000000000770D000844
:10003000790D0008000000007B0D00087D0D000810
:100040002D4800082D4800082D4800082D480008BC
:100050002D4800082D4800082D4800082D480008AC
:100060002D4800082D4800082D4800082D4800089C
:100070002D4800082D4800082D4800082D4800088C
:100080002D4800082D4800082D4800082D4800087C
:100090002D4800082D4800082D4800082D4800086C
:1000A0002D4800082D4800082D4800082D4800085C
:1000B0002D4800082D480008C90D00082D480008EB
:1000C0002D4800082D4800082D4800082D4800083C
:1000D0002D4800082D4800082D480008890D00080B
:1000E0002D4800082D4800082D4800082D4800081C
:1000F0002D4800082D4800082D4800082D4800080C
:100100002D4800082D4800082D4800082D480008FB
:100110002D4800082D480008050E00082D4800084D
:100120002D4800082D4800082D4800082D480008DB
:1001300000000000000000000000000000000000BF
:1001400000000000000000000000000000000000AF
:10015000000000000000000000000000000000009F
:10016000000000000000000000000000000000008F
:10017000000000000000000000000000000000007F
:10018000000000000000000000000000000000006F
:10019000000000000000000000000000000000005F
:1001A000000000000000000000000000000000004F
:1001B000000000000000000000000000000000003F
:1001C000000000000000000000000000000000002F
:1001D000000000000000000000000000000000001F
:0401E0005FF8E0F1F3
:1001E40010B5054C237833B9044B13B10448AFF36D
:1001F40000800123237010BD1C08002000000000B3
:10020400A448000808B5034B1BB103490348AFF3E6
:10021400008008BD0000000020080020A448000859
:100224004FF0FF0C1CEAD0521EBF1CEAD15392EAD5
:100234000C0F93EA0C0F6FD01A4480EA010C4002B1
:1002440018BF5FEA41211ED04FF0006343EA50100B
:1002540043EA5111A0FB01310CF00040B1F5000F4D
:100264003EBF490041EAD3715B0040EA010062F1FC
:100274007F02FD2A1DD8B3F1004F40EBC25008BFE6
:1002840020F00100704790F0000F0CF0004C08BF04
:1002940049024CEA502040EA51207F3AC2BFD2F1D1
:1002A400FF0340EAC250704740F400004FF00003DF
:1002B400013A5DDC12F1190FDCBF00F00040704719
:1002C400C2F10002410021FA02F1C2F1200200FA57
:1002D40002FC5FEA310040F1000053EA4C0308BF1E
:1002E40020EADC70704792F0000F00F0004C02BF6F
:1002F400400010F4000F013AF9D040EA0C0093F0EA
:10030400000F01F0004C02BF490011F4000F013B43
:10031400F9D041EA0C018FE70CEAD15392EA0C0FB1
:1003240018BF93EA0C0F0AD030F0004C18BF31F01C
:10033400004CD8D180EA010000F00040704790F0F2
:10034400000F17BF90F0004F084691F0000F91F096
:10035400004F14D092EA0C0F01D142020FD193EA5C
:100364000C0F03D14B0218BF084608D180EA0100E4
:1003740000F0004040F0FE4040F40000704740F0C0
:10038400FE4040F4400070474FEA4102B2F1E043BE
:1003940024BFB3F5001CDCF1FE5C0DD901F0004C68
:1003A4004FEAC0024CEA5070B2F1004F40EB8300B8
:1003B40008BF20F00100704711F0804F21D113F1E4
:1003C4003872BCBF01F00040704741F480114FEA1D
:1003D4005252C2F11802C2F1200C10FA0CF320FAA6
:1003E40002F018BF40F001004FEAC1234FEAD323C3
:1003F40003FA0CFC40EA0C0023FA02F34FEA43032D
:10040400CCE77FEA625307D150EA01331EBF4FF0B5
:10041400FE4040F44000704701F0004040F0FE40D0
:1004240040F40000704700BF4FF0FF3C06E000BFFF
:100434004FF0010C02E000BF4FF0010C4DF804CD69
:100444004FEA40024FEA41037FEA226C18BF7FEA79
:10045400236C11D001B052EA530C18BF90EA010F7B
:1004640058BFB2EB030088BFC81738BF6FEAE1700A
:1004740018BF40F0010070477FEA226C02D15FEAA6
:10048400402C05D17FEA236CE4D15FEA412CE1D012
:100494005DF8040B704700BF844608466146FFE7D9
:1004A4000FB5FFF7C9FF002848BF10F1000F0FBDBB
:1004B4004DF808EDFFF7F4FF0CBF012000205DF8B4
:1004C40008FB00BF4DF808EDFFF7EAFF34BF012039
:1004D40000205DF808FB00BF4DF808EDFFF7E0FFD2
:1004E40094BF012000205DF808FB00BF4DF808ED23
:1004F400FFF7D2FF94BF012000205DF808FB00BF86
:100504004DF808EDFFF7C8FF34BF012000205DF867
:1005140008FB00BF4FEA4002B2F1FE4F0FD34FF089
:100524009E03B3EB12620DD94FEA002343F000435C
:1005340010F0004F23FA02F018BF404270474FF00A
:100544000000704712F1610F01D1420205D110F091
:10055400004008BF6FF0004070474FF00000704744
:1005640072B6FEE700B597B000230F931193129370
:100574000793089309930A930B93019302930393AC
:1005840004930593069301210C914FF480320D924C
:100594000E9310910223139314924FF4E0131593C6
:1005A4000CA801F0CBF9C0B90F23079302210891DD
:1005B400002309934FF480620A920B9307A801F079
:1005C400FBFB80B9102301930023069301A801F0DB
:1005D400CFFC70B917B05DF804FB0949002002F0A4
:1005E400EBFFFFF7BDFF0749002002F0E5FFFFF72F
:1005F400B7FF0549002002F0DFFFFFF7B1FF00BF9E
:10060400BC480008C8480008D448000808B501F0F0
:1006140047F91E49002002F0CFFFFFF7A3FF1C4952
:10062400002002F0C9FF1B4A536823F0E06343F043
:1006340000735360536823F0C00343F0E06343F056
:100644004003536000F028F800F0D0F800F006FAF8
:1006540000F064F900F02AF900F060FA00F07CFB85
:10066400642001F041F903F081F8642003F098F864
:100674004FF4165000F0F6FA03F000FE4FF4FA605F
:1006840001F032F903F01EFEFCE700BFE048000869
:10069400F4480008000001402DE9F04788B0002428
:1006A40004940594069407944C4B9A6942F0100202
:1006B4009A619A6902F010020092009A9A6942F0D3
:1006C40020029A619A6902F020020192019A9A69C1
:1006D40042F004029A619A6902F004020292029AB8
:1006E4009A6942F008029A619B6903F00803039334
:1006F400039BDFF8F0A022460421504601F0E5FDFB
:10070400DFF8E49022460421484601F0DEFD344D32
:10071400224640F20271284601F0D7FD04230493D7
:100724000127059706940226079604A9504601F06E
:10073400A9FC41F20233049305970694079604A991
:10074400284601F09FFC4FF48273049305970694A6
:1007540004A9484601F096FC4FF4C073049305962F
:100764004FF00308CDF81C8004A9504601F08AFC20
:10077400802304930596CDF81C8004A9484601F013
:1007840081FC04970596CDF81C8004A9284601F045
:1007940079FC2023049305970694079604A9284618
:1007A40001F070FC22464FF48071284601F08DFD63
:1007B4004FF4806304930596CDF81C8004A9284661
:1007C40001F060FC4FF4006304930594069404A9BB
:1007D400284601F057FC08B0BDE8F087001002403D
:1007E400000C0140000801400010014008B50F480A
:1007F4000F4B03604FF48273436000238360C36034
:1008040002220261012242614FF4007282611822C5
:10081400C2610362436283620A23C36200F063FE1F
:1008240000B908BDFFF79CFEFBE700BFE013002002
:100834000038004010B586B000230293039304935C
:1008440005930268174B9A4201D006B010BD03F518
:10085400EC33DA6942F48042DA61DA6902F4804204
:100864000092009A9A6942F008029A619B6903F027
:1008740008030193019B4FF4204302930223039343
:1008840003230593084C02A9204601F0FBFB4FF417
:100894008043029300230393049302A9204601F0AA
:1008A400F1FBD2E700380040000C014008B50948CC
:1008B400094B0360472343600023836042F20F72B5
:1008C400C2600361836102F045F800B908BDFFF717
:1008D40047FEFBE7801400200008004002680E4B2E
:1008E4009A4200D0704700B583B003F50233DA6949
:1008F40042F00402DA61DB6903F004030193019B13
:10090400002201211E2001F0D1FD1E2001F002FE73
:1009140003B05DF804FB00BF0008004000B583B0DD
:10092400124BDA6942F01002DA61DB6903F010035A
:100934000193019B0E480F4B036047234360002340
:10094400836040F2E732C260836102F003F850B979
:1009540000221146362001F0A9FD362001F0DAFD0F
:1009640003B05DF804FBFFF7FBFDF1E70010024064
:10097400C81400200010004082B003680E4A93425D
:1009840004D00E4A93420CD002B070470C4B9A69C3
:1009940042F400629A619B6903F400630093009B34
:1009A400F2E7074B9A6942F400529A619B6903F497
:1009B40000530193019BE7E7002C01400034014000
:1009C4000010024030B587B00023029303930493D0
:1009D400059303681C4A934204D01C4A93421FD0D7
:1009E40007B030BD1A4B9A6942F004029A619B69C0
:1009F40003F004030093009B4FF4807302930224DA
:100A040003940594134D02A9284601F03BFB80236F
:100A140002930394059402A9284601F033FBDFE70F
:100A24000B4B9A6942F010029A619B6903F0100320
:100A34000193019B8023029302230393059302A94C
:100A4400054801F01FFBCBE7002C014000340140B6
:100A540000100240000801400010014010B592B09F
:100A640000241094119409940A940B940C940D94FA
:100A74000E940F942022214601A803F009FF254873
:100A8400254B03604460846041F26F73C36004616A
:100A94004461846101F08AFF00282ED10023109361
:100AA400119310A91B4802F0E1F948BB6023099394
:100AB40040F6B8330A9300220B920C920D920E92D8
:100AC4000F9209A9134801F0D5FFE0B9002301935F
:100AD400029303934822049205934FF40053069320
:100AE4004FF48043089301A90A4802F0FBF968B95E
:100AF4000848FFF767FF12B010BDFFF731FDCDE7DF
:100B0400FFF72EFDD2E7FFF72BFDDFE7FFF728FD08
:100B1400EEE700BF10150020002C014010B592B084
:100B240000241094119409940A940B940C940D9439
:100B34000E940F942022214601A803F0A9FE254813
:100B4400254B03604460846041F21643C360046132
:100B54004461846101F02AFF00282FD100231093FF
:100B6400119310A91B4802F081F950BB602309932B
:100B740040F60B230A9300230B930C930D930E93CF
:100B84000F93042209A9134801F074FFE0B900236C
:100B94000193029303934822049205934FF4005364
:100BA40006934FF48043089301A90A4802F09AF986
:100BB40068B90848FFF706FF12B010BDFFF7D0FC74
:100BC400CCE7FFF7CDFCD1E7FFF7CAFCDFE7FFF77F
:100BD400C7FCEEE7381400200034014030B589B07A
:100BE4001E4B9A6942F001029A619A6902F001026D
:100BF4000192019A9A6942F008029A619A6902F094
:100C040008020292029ADA6942F48022DA61DB690C
:100C140003F480230393039B002406944FF480631E
:100C2400049302230593032307930D4D04A9284637
:100C340001F028FA4FF4006304930594069404A980
:100C4400284601F01FFA22460121272001F02EFC3C
:100C5400272001F05FFC09B030BD00BF0010024046
:100C6400000C014010B50446FFF7B8FF0F48104BC5
:100C74000360446000238360C36003610C2242610B
:100C84008361C36100F0A3F950B9084B1B68DA68AB
:100C940042F02002DA605A6942F001025A6110BD42
:100CA4000449002002F088FCEFE700BFA0150020F3
:100CB400004800401049000882B00D4B9A6942F088
:100CC40004029A619A6902F004020092009A9A69F5
:100CD40042F400729A619A6902F400720192019AD4
:100CE4005A6822F4404242F400425A6002B070470B
:100CF4000010024000B585B0002302930393012342
:100D04000093032301936946024801F0BBF905B03F
:100D14005DF804FB0008014070B584B00C4C0D4B29
:100D240023600025A560257325756560012626616D
:100D34004FF46023E361204600F0FAFC019502962B
:100D44000723039301A9204600F02AFC04B070BDD8
:100D5400380800200024014008B5FFF7ADFFFFF775
:100D6400C9FFFFF7D9FF08BD7047FEE7FEE7FEE7BE
:100D7400FEE770477047704708B500F0A3FD01F027
:100D8400EEFB08BD08B5024800F074FA08BD00BFC8
:100D9400A015002008B50268034B9A4200D008BD94
:100DA40003F096FAFBE700BF0048004008B502686C
:100DB400034B9A4200D008BD03F08EFAFBE700BF54
:100DC4000048004008B5024801F0BBFC08BD00BF64
:100DD4008014002010B504460268074B9A4204D0E0
:100DE4002268064B9A4203D010BD02F04DFDF7E78E
:100DF40002F0EAFFF8E700BF0008004000100040DE
:100E040008B5024801F09DFC08BD00BFC8140020CD
:100E140082B00A4B9A6942F001029A619A6902F01F
:100E240001020092009ADA6942F08052DA61DB69C9
:100E340003F080530193019B02B0704700100240FD
:100E44000268D36823F49073D3600268536923F073
:100E540001035361036B012B05D0202380F83E303E
:100E64000023036370470268D36823F01003D36040
:100E7400F3E790F83D30DBB2212B01D0022070471C
:100E84008368B3F5805F17D0036A5A1C02621A782C
:100E940003685A60C38C9BB2013B9BB2C3844BB9B9
:100EA4000268D36823F08003D3600268D36843F0F8
:100EB4004003D360002070470369002BE4D1036A28
:100EC4001B880268C3F308035360036A0233036296
:100ED400E0E7000010B504460268136923F44053A8
:100EE400C1680B43136183680269134342691A435F
:100EF4000168CB6823F4B05323F00C031343CB6095
:100F04000268536923F4407381690B435361026897
:100F1400124B9A421FD001F00BF800EB800303EB55
:100F2400830362689200B3FBF2F20D48A0FB023126
:100F34004909642303FB11231B013233A0FB032360
:100F44005B0903F0F00202EB011203F00F032168C6
:100F540013448B6010BD00F0FBFFDEE70038014056
:100F64001F85EB512DE9F84305460F461646994671
:100F7400DDF820802C68246837EA04030CBF0124C0
:100F84000024B4421FD1B8F1FF3FF3D0B8F1000FF1
:100F940005D000F0A3FCA0EB09004045EAD92A687B
:100FA400D36823F4D073D3602A68536923F0010310
:100FB4005361202385F83D3085F83E30002385F8C1
:100FC4003C30032000E00020BDE8F883704758B3AC
:100FD40010B5044690F83D300BB3242384F83D301B
:100FE4002268D36823F40053D3602046FFF772FFCE
:100FF4002268136923F4904313612268536923F030
:101004002A0353612268D36843F40053D360002059
:101014002064202384F83D3084F83E3010BD80F8ED
:101024003C30FFF7D3FFD8E7012070472DE9F041AA
:1010340082B01E4690F83D30DBB2202B54D10446DA
:101044000D469046002953D0002A53D090F83C30E6
:10105400012B51D0012380F83C3000230364212369
:1010640080F83D3000F03AFC0746A4F82480A4F848
:101074002680A368B3F5805F05D04FF000080023F5
:1010840084F83C3012E0236913B14FF00008F6E70E
:10109400A8460025F3E738F8023B2268C3F30803A7
:1010A4005360E28C92B2013A92B2E284E38C9BB236
:1010B40073B100963B46002280212046FFF752FF81
:1010C400E0B9002DE7D015F8012B23685A60E8E752
:1010D40000963B46002240212046FFF743FF78B9A3
:1010E400202384F83D3000E0022002B0BDE8F08106
:1010F4000120FAE70120F8E70220F6E70320F4E7ED
:101104000320F2E710B504460268D36823F4907311
:10111400D3600268536923F001035361036B012B0D
:1011240017D023685A6912F0400F0BD05A6922F085
:1011340040025A61A36B2BB100225A63A06B01F0E9
:10114400CAF860B90020E085202384F83E3020638B
:1011540010BD0268D36823F01003D360E1E7A06BED
:1011640001F090F92028EDD1102323640320EFE748
:10117400704708B50168CA6822F04002CA6020229C
:1011840080F83D20FFF7F4FF002008BD08B5406A51
:101194000023C385C384FFF709FE08BD704790F898
:1011A4003E30DBB2222B60D18368B3F5805F46D03A
:1011B400826AB3F5805F04D0002B4DD10369002B04
:1011C4004AD103685B681370836A01338362C38DF9
:1011D4009BB2013B9BB2C385002B48D100B583B0C1
:1011E4000268D36823F02003D3600268D36823F431
:1011F4008073D3600268536923F001035361202391
:1012040080F83E30036B012B2CD10023036302686A
:10121400D36823F01003D36003681A6812F0100F28
:1012240006D0002201921A6801925B680193019B27
:10123400818DFFF7B3FF002003B05DF804FB026962
:10124400002AB5D1826A03685B68C3F3080313807C
:10125400836A02338362BAE703685B6803F07F033F
:101264001370B1E7FFF796FDE5E702207047002011
:101274007047000030B583B0044602681368D06834
:10128400516913F00F0505D113F0200F02D010F0AF
:10129400200F19D12DB111F0010119D110F4907F53
:1012A40016D1216B012975D013F0800F03D010F0F3
:1012B400800F40F0D78013F0400F03D010F0400FA0
:1012C40040F0D48003B030BD2046FFF768FFF9E753
:1012D40013F0010F06D010F4807F03D0226C42F08B
:1012E4000102226413F0040F04D019B1226C42F0FD
:1012F4000202226413F0020F04D019B1226C42F0EE
:101304000402226413F0080F07D010F0200F00D15C
:1013140019B1226C42F008022264226C002AD1D056
:1013240013F0200F02D010F0200F21D123685B6945
:1013340003F04003226C12F0080F00D123B32046BF
:10134400FFF77EFD23685A6912F0400F18D05A69DE
:1013540022F040025A61A36B73B1464A5A63A06BF0
:1013640000F0DCFF0028ADD0A06B436B9847A9E7E1
:101374002046FFF714FFD9E72046FFF717FDA1E742
:101384002046FFF713FD9DE72046FFF70FFD0023DE
:10139400236497E713F0100F86D010F0100F83D05A
:1013A400002301931368019353680193019B5369CC
:1013B40013F0400F32D0A16B0B685B689BB2002B1B
:1013C40080D0A08D98427FF67DAFE3858B69202B7A
:1013D40008D1A18DE38D9BB2C91A89B22046FFF7CB
:1013E400DDFE6FE7D36823F48073D360226853690A
:1013F40023F0010353612268536923F040035361CE
:10140400202384F83E30002323632268D36823F02A
:101414001003D360A06B00F05EFFDAE7A18DE38DCB
:101424009BB2C91A89B2E38D9BB2002B3FF44AAF39
:1014340000293FF447AFD36823F49073D360226844
:10144400536923F001035361202384F83E300023C1
:1014540023632268D36823F01003D3602046FFF788
:101464009DFE2FE72046FFF704FD2BE72046FFF7FC
:1014740080FE27E791110008034681628285C285B8
:1014840000201864222283F83E2083F83C00196867
:10149400CA6842F48072CA6019684A6942F001025B
:1014A4004A611A68D36843F02003D360704708B5D3
:1014B40090F83E30DBB2202B0DD171B17AB190F8A7
:1014C4003C30012B0DD0012380F83C300023036312
:1014D400FFF7D2FF00E0022008BD0120FCE7012055
:1014E400FAE70220F8E7002856D010B50446436A0C
:1014F40033B94368B3F5827F05D00023C36102E0AA
:101504000023036143610023A36294F85130002B4C
:101514003CD0022384F851302268136823F040033E
:101524001360636803F48273A26802F404421343F1
:10153400E26802F400621343226902F002021343D8
:10154400626902F001021343A26902F400721343B8
:10155400E26902F038021343226A02F08002134364
:10156400A26A02F40052216813430B60638B226861
:1015740003F0040353602268D36923F40063D36146
:1015840000206065012384F8513010BD84F8503088
:101594002046FFF74FF9BCE7012070477047000071
:1015A40030B482B00022019290F82420012A00F085
:1015B4008B800346012280F824204A68062A29D811
:1015C4000568686B02EB8202053A1F24944020EA06
:1015D40004000C6804FA02F202436A630A68092AE6
:1015E40038D91D68E86802EB42021E3A0724944089
:1015F40020EA04008C6804FA02F20243EA600A68F2
:10160400103A012A34D90020002283F8242002B0A1
:1016140030BC70470C2A0ED80568286B02EB820296
:10162400233A1F24944020EA04000C6804FA02F2CE
:1016340002432A63D2E70568E86A02EB8202413A70
:101644001F24944020EA04000C6804FA02F20243C6
:10165400EA62C3E71D68286902EB4202072494404A
:1016640020EA04008C6804FA02F202432A61C6E705
:101674001A681648824205D09A6A42F020029A6299
:101684000120C1E7906810F4000F1BD1906840F46A
:10169400000090600A68102A01D00020B4E70C4AC8
:1016A40012680C49A1FB0212920C02EB8202520056
:1016B400019202E0019A013A0192019A002AF9D1B9
:1016C4000020A1E700209FE70220A0E700240140BA
:1016D4000800002083DE1B4338B503689A6812F0C3
:1016E400010F01D1002038BD04469A6822F001029E
:1016F4009A6000F0F3F8054623689B6813F0010F25
:1017040013D000F0EBF8431B022BF5D923689B6838
:1017140013F0010FF0D0A36A43F01003A362E36A4D
:1017240043F00103E3620120DDE70020DBE7000072
:10173400002800F08680F8B50446836A002B50D058
:101744002046FFF7C9FFA36A13F0100373D10028E2
:1017540071D1A26A22F4885222F0020242F00202FB
:10176400A2626268266838498E4240D0E1690A4321
:10177400217B42EA4102A568B5F5807F02D0012DA4
:101784003CD01D46277D012F3BD0716821F469416F
:10179400294371602568AE682C4931401143A96022
:1017A400A168B1F5807F01D0012902D12369013BF1
:1017B4001B052568E96A21F470010B43EB62236879
:1017C4009968234B0B409A422CD0A36A23F012034E
:1017D40043F01003A362E36A43F00103E3620120D0
:1017E4002EE0C36280F82430FFF7D8FEA8E7E16951
:1017F400B1F5402FBBD14FF40021B8E74FF4807509
:10180400C0E731B9A169013945EA413141F40065C4
:10181400BBE7A16A41F02001A162E16A41F0010144
:10182400E162B2E70023E362A36A23F0030343F017
:101834000103A36204E0A36A43F01003A36201203E
:10184400F8BD0120704700BF003C0140FDF7E1FFF7
:10185400FE0E1FFF10B504460E4B18784FF47A7332
:10186400B3FBF0F30C4A1068B0FBF3F000F060FE39
:1018740068B90F2C01D901200AE0002221464FF05B
:10188400FF3000F013FE054B1C60002000E0012037
:1018940010BD00BF0000002008000020040000204C
:1018A40008B5074A136843F010031360032000F0DF
:1018B400EBFD0020FFF7CEFFFFF7AAFA002008BDDA
:1018C40000200240034A1168034B1B780B44136049
:1018D400704700BFE415002000000020014B186889
:1018E400704700BFE415002038B50446FFF7F6FF43
:1018F4000546B4F1FF3F02D0044B1B781C44FFF7AC
:10190400EDFF401BA042FAD338BD00BF0000002009
:1019140082B0084B1B68084AA2FB03235B0A00FB46
:1019240003F3019300BF019B5A1E0192002BF9D1CE
:1019340002B0704708000020D34D6210002800F068
:10194400F18170B582B00446036813F0010F2CD006
:10195400AA4B5B6803F00C03042B1DD0A74B5B68F8
:1019640003F00C03082B12D06368B3F5803F41D019
:10197400002B55D103F1804303F504331A6822F494
:1019840080321A601A6822F480221A6037E09B4B76
:101994005B6813F4803FE7D0984B1B6813F4003F57
:1019A40003D06368002B00F0BF81236813F0020F9B
:1019B40075D0924B5B6813F00C0F5FD08F4B5B6854
:1019C40003F00C03082B54D02369002B00F089800A
:1019D4008B4B01221A60FFF781FF0546874B1B687A
:1019E40013F0020F74D1FFF779FF401B0228F5D9D9
:1019F40003209EE1814A136843F4803313606368D3
:101A040043B3FFF76BFF05467C4B1B6813F4003FA1
:101A1400CBD1FFF763FF401B6428F5D9032088E18D
:101A2400B3F5A02F09D0754B1A6822F480321A60DE
:101A34001A6822F480221A60E1E703F18043A3F5D7
:101A44003C331A6842F480221A601A6842F48032E5
:101A54001A60D4E7FFF742FF0546684B1B6813F48E
:101A6400003FA2D0FFF73AFF401B6428F5D90320BA
:101A74005FE1624B5B6813F4803FA5D15F4B1B6849
:101A840013F0020F03D02369012B40F04F815B4A0E
:101A9400136823F0F803616943EAC1031360236800
:101AA40013F0080F32D0A369002B45D0554B012207
:101AB4001A60FFF713FF0546504B5B6A13F0020FE1
:101AC40021D1FFF70BFF401B0228F5D9032030E199
:101AD4004A4A136823F0F803616943EAC1031360B7
:101AE400DDE7474B00221A60FFF7F8FE0546434B3B
:101AF4001B6813F0020FD2D0FFF7F0FE401B022840
:101B0400F5D9032015E10120FFF702FF236813F044
:101B1400040F00F09780394BDB6913F0805F1DD10F
:101B2400364BDA6942F08052DA61DB6903F08053A4
:101B34000193019B012512E0324B00221A60FFF74A
:101B4400CDFE05462D4B5B6A13F0020FDED0FFF786
:101B5400C5FE401B0228F5D90320EAE000252A4BE4
:101B64001B6813F4807F11D0E368012B22D0002B73
:101B740038D103F1804303F504331A6A22F00102D9
:101B84001A621A6A22F004021A6218E01E4A1368E2
:101B940043F480731360FFF7A1FE06461A4B1B68DB
:101BA40013F4807FE0D1FFF799FE801B6428F5D9F8
:101BB4000320BEE0114A136A43F001031362E36891
:101BC40073B3FFF78BFE06460C4B1B6A13F0020F30
:101BD40037D1FFF783FE801B41F288339842F3D953
:101BE4000320A6E0052B11D0044B1A6A22F001024F
:101BF4001A621A6A22F004021A62E0E70010024034
:101C04000000424280044242007000404D4B1A6A78
:101C140042F004021A621A6A42F001021A62CEE722
:101C2400FFF75CFE0646474B1B6A13F0020F08D011
:101C3400FFF754FE801B41F288339842F3D9032006
:101C440077E0E5B9E369002B72D03E4A526802F0AE
:101C54000C02082A56D0022B17D03B4B00221A60E4
:101C6400FFF73CFE0446374B1B6813F0007F47D058
:101C7400FFF734FE001B0228F5D9032059E0314A4E
:101C8400D36923F08053D361DCE72F4B00221A6021
:101C9400FFF724FE05462B4B1B6813F0007F06D08C
:101CA400FFF71CFE401B0228F5D9032041E0236AFC
:101CB400B3F5803F1AD023494B6823F47413226A86
:101CC400606A024313434B601F4B01221A60FFF703
:101CD40005FE04461B4B1B6813F0007F0ED1FFF773
:101CE400FDFD001B0228F5D9032022E0154A5368A4
:101CF40023F40033A1680B435360DCE7002018E0B1
:101D0400002016E0012B16D00E4B5B6803F48031E3
:101D1400226A914211D103F47013626A93420ED184
:101D2400002006E001207047012002E0012000E0CD
:101D3400002002B070BD0120FBE70120F9E701207B
:101D4400F7E700BF001002406000424286B0164B25
:101D54000FCB0DF1180C0CE90F0040F20123ADF884
:101D64000430124B5B6803F00C02082A02D01048BE
:101D740006B07047C3F38342624412F8102C13F484
:101D8400803F0CD0094B5B68C3F34043634413F8B2
:101D9400143C074800FB02F0B0FBF3F0E8E7054809
:101DA40000FB02F0E4E700BF2449000800100240F1
:101DB40000127A0000093D00002800F0A08070B5F0
:101DC4000D460446524B1B6803F007038B420BD2AB
:101DD4004F4A136823F007030B431360136803F09F
:101DE40007038B4240F08D80236813F0020F17D055
:101DF40013F0040F04D0474A536843F4E06353607C
:101E0400236813F0080F04D0424A536843F4605324
:101E14005360404A536823F0F003A1680B435360B6
:101E2400236813F0010F31D06368012B20D0022BFB
:101E340025D0384A126812F0020F64D035494A6836
:101E440022F0030213434B60FFF748FD0646314B73
:101E54005B6803F00C036268B3EB820F16D0FFF7E4
:101E64003DFD801B41F288339842F0D9032045E0C0
:101E7400284A126812F4003FE0D101203EE0254ACE
:101E8400126812F0007FD9D1012037E0204B1B6883
:101E940003F00703AB420AD91D4A136823F0070372
:101EA4002B431360136803F00703AB422DD123685F
:101EB40013F0040F06D0174A536823F4E063E16873
:101EC4000B435360236813F0080F07D0114A53687B
:101ED40023F46053216943EAC1035360FFF736FFDB
:101EE4000C4B5B68C3F303130B4AD35CD8400B4B16
:101EF40018600B4B1868FFF7ADFC002070BD012083
:101F040070470120FAE70120F8E70120F6E700BF57
:101F14000020024000100240384900080800002058
:101F240004000020014B1868704700BF080000201F
:101F340008B5FFF7F7FF044B5B68C3F30223034ABA
:101F4400D35CD84008BD00BF0010024048490008D7
:101F540008B5FFF7E7FF044B5B68C3F3C223034AEA
:101F6400D35CD84008BD00BF0010024048490008B7
:101F740070B582B00446036813F0010F34D03E4BB1
:101F8400DB6913F0805F47D13B4BDA6942F0805242
:101F9400DA61DB6903F080530193019B0125374B20
:101FA4001B6813F4807F39D0334B1B6A13F44073DE
:101FB40011D0626802F440729A420CD02E4A136A1D
:101FC40023F440702E4901260E6000260E60106234
:101FD40013F0010F36D1284A136A23F44073616861
:101FE4000B431362002D3ED1236813F0020F06D079
:101FF400214A536823F44043A1680B435360236888
:1020040013F0100F34D01C4A536823F48003616921
:102014000B43536000202CE00025C0E7174A1368E7
:1020240043F480731360FFF759FC0646134B1B6897
:1020340013F4807FB8D1FFF751FC801B6428F5D9D5
:10204400032016E0FFF74AFC06460B4B1B6A13F00D
:10205400020FC0D1FFF742FC801B41F28833984243
:10206400F3D9032005E0D36923F08053D361BBE7A0
:10207400002002B070BD00BF00100240007000409C
:1020840040044242F0B482B000252C46ABE0854FB8
:10209400BB4210D007D9844FBB420CD007F5803720
:1020A400BB4208D013E0A7F58017BB4203D007F565
:1020B4007027BB4207D18B68002B60D0012B59D00D
:1020C4004261082503E0A7F58017BB42F3D0FF2E39
:1020D40057D88446FF2E57D8A200DCF800300F27CB
:1020E400974023EA070305FA02F21343CCF80030C1
:1020F4004B6813F0805F75D06C4B9A6942F0010213
:102104009A619B6903F001030193019BA208971C48
:10211400674B53F827C004F003039F000F23BB4011
:102124002CEA030C634B984234D003F58063984245
:1021340000F0948003F58063984200F0918003F5E9
:102144008063984200F08E8003F58063984200F02B
:102154008B8003F5806398421AD006231BE0CD6878
:10216400B5E7CD680435B2E7CD680835AFE7CD688B
:102174000C35ACE702610825A9E70025A7E704258B
:10218400A5E700F1040CA5E7A4F108029200A4E776
:10219400052300E00023BB4043EA0C030232444F12
:1021A40047F822304B6813F4803F5FD0424A1368EB
:1021B400334313604B6813F4003F5DD03E4A5368C9
:1021C400334353604B6813F4801F5BD03A4A9368DF
:1021D400334393604B6813F4001F59D0364AD368D5
:1021E4001E43D66001340B6833FA04F256D0012240
:1021F400A24003EA020632EA0303F3D14B68122B2E
:102204003FF645AF122B3FF662AF01A757F823F014
:10221400BB200008632100086D2100087F2100080D
:10222400D3200008D3200008D3200008D3200008BE
:10223400D3200008D3200008D3200008D3200008AE
:10224400D3200008D3200008D3200008D32000089E
:10225400D3200008672100087321000801239AE7AE
:10226400022398E7032396E7042394E7124A1368AA
:1022740023EA060313609DE70F4A536823EA060323
:1022840053609FE70C4A936823EA06039360A1E72F
:10229400094AD36823EA0606D660A3E702B0F0BC75
:1022A400704700BF000022100000311000100240EF
:1022B4000000014000080140000401408368194205
:1022C40001D001207047002070470AB101617047B6
:1022D40009040161704790F82130022B06D00423D1
:1022E4008363002380F8203001207047026813685C
:1022F40023F00E0313600268136823F001031360D4
:10230400036CC16B012202FA03F34B6080F82120B5
:10231400002380F8203018467047000008B590F874
:102324002130022B03D004238363012008BD0268FB
:10233400136823F00E0313600268136823F001038B
:10234400136003684B4A93424ED9783A934224D09F
:102354001432934230D0143293422FD01432934229
:102364002FD0143293422FD0143293422FD01432F0
:1023740093422FD002F5627293422ED014329342CC
:102384002DD0143293422CD01432934202D04FF405
:10239400803203E04FF4805200E00122364B5A6051
:1023A400012380F82130002380F82030436B002B78
:1023B4005ED098470020B9E71022EFE74FF480720F
:1023C400ECE74FF48052E9E74FF48032E6E74FF44C
:1023D4008012E3E74FF08072E0E70122DEE710228B
:1023E400DCE74FF48072D9E7244A934224D01432B4
:1023F400934225D01432934224D01432934224D0F1
:102404001432934224D01432934224D0143293428F
:1024140024D002F56272934223D01432934222D024
:102424001432934221D01432934202D04FF48032BA
:1024340003E04FF4805200E00122114B5A60AFE7F1
:102444001022FAE74FF48072F7E74FF48052F4E772
:102454004FF48032F1E74FF48012EEE74FF08072D0
:10246400EBE70122E9E71022E7E74FF48072E4E7A3
:1024740000205BE7800002400004024008000240A4
:1024840000000240806B7047074AD36823F4E0637E
:102494001B041B0C000200F4E060034343F0BF6321
:1024A40043F40033D360704700ED00E030B4174BC1
:1024B400DB68C3F30223C3F10704042C28BF0424FC
:1024C4001D1D062D18D9033B4FF0FF3505FA04F402
:1024D40021EA0401994005FA03F322EA03031943AC
:1024E40000280BDB0901C9B200F1604000F561402E
:1024F40080F8001330BC70470023E5E700F00F00BC
:102504000901C9B2024B1954F4E700BF00ED00E021
:1025140014ED00E0002807DB00F01F02400901234E
:102524009340024A42F82030704700BF00E100E0C7
:102534000138B0F1807F0AD2064B5860064AF02178
:1025440082F823100020986007221A607047012047
:10255400704700BF10E000E000ED00E0704708B5F0
:10256400FFF7FCFF08BD000030B4036A23F0010349
:102574000362056A4268846924F073040B681C438F
:1025840025F002058B682B43104DA84203D005F5B6
:102594000065A84205D123F00803CD682B4323F03E
:1025A40004030A4DA84203D005F50065A84205D1ED
:1025B40022F440724D6915438A692A43426084615A
:1025C4004A684263036230BC704700BF002C01407C
:1025D40030B4036A23F480730362036A4268C469F3
:1025E40024F073040D682C4323F400738D6843EACC
:1025F4000523124DA84203D005F50065A84206D173
:1026040023F40063CD6843EA052323F480630B4D70
:10261400A84203D005F50065A84207D122F4405230
:102624004D6942EA05128D6942EA05124260C461AD
:102634004A68C263036230BC704700BF002C01408B
:1026440030B4036A23F480530362036A4468C269A2
:1026540022F4E6420D6842EA052223F400538D6811
:1026640043EA0533094DA84203D005F50065A842A5
:1026740004D124F480444D6944EA85144460C26161
:102684004A680264036230BC704700BF002C0140FA
:1026940090F83D30DBB2012B2FD1022380F83D307E
:1026A4000268D36843F00103D3600368154A934278
:1026B40018D002F50062934214D0B3F1804F11D0C8
:1026C400A2F5983293420DD002F58062934209D06C
:1026D40002F58062934205D01A6842F001021A6042
:1026E400002070479A6802F00702062A07D01A6889
:1026F40042F001021A600020704701207047002058
:10270400704700BF002C01400268D36823F0010326
:10271400D3600368196A41F21112114208D1196A8F
:1027240040F24442114203D11A6822F001021A60B5
:10273400012380F83D300020704770477047704790
:10274400704710B5044603681A6912F0020F11D0DD
:10275400DA6812F0020F0DD06FF002021A61012341
:10276400037703689B6913F0030F70D0FFF7E6FF4C
:102774000023237723681A6912F0040F12D0DA6851
:1027840012F0040F0ED06FF004021A6102232377B3
:1027940023689B6913F4407F5FD02046FFF7CEFF88
:1027A4000023237723681A6912F0080F12D0DA681D
:1027B40012F0080F0ED06FF008021A610423237779
:1027C4002368DB6913F0030F4ED02046FFF7B6FFF2
:1027D4000023237723681A6912F0100F12D0DA68E5
:1027E40012F0100F0ED06FF010021A610823237735
:1027F4002368DB6913F4407F3DD02046FFF79EFF3A
:102804000023237723681A6912F0010F03D0DA68D2
:1028140012F0010F36D123681A6912F0800F03D029
:10282400DA6812F0800F34D123681A6912F0400F6D
:1028340003D0DA6812F0400F32D123681A6912F01B
:10284400200F03D0DA6812F0200F30D110BDFFF74B
:1028540074FF2046FFF773FF8AE72046FFF76DFFFA
:102864002046FFF76CFF9BE72046FFF766FF2046F4
:10287400FFF765FFACE72046FFF75FFF2046FFF751
:102884005EFFBDE76FF001021A612046FEF7A2FA6F
:10289400C1E76FF080021A61204600F04DFBC3E7E8
:1028A4006FF040021A612046FFF74AFFC5E76FF058
:1028B40020021A61204600F03EFBC7E70368244A61
:1028C400904212D002F5006290420ED0B0F1804FD7
:1028D4000BD0A2F59832904207D002F58062904264
:1028E40003D002F58062904203D123F070034A685A
:1028F4001343174A904212D002F5006290420ED060
:10290400B0F1804F0BD0A2F59832904207D002F577
:102914008062904203D002F58062904203D123F496
:102924004073CA68134323F080034A691343036066
:102934008B68C3620B688362054B984203D003F52E
:102944000063984201D10B6903630123436170471B
:10295400002C014040B310B5044690F83D30F3B16B
:10296400022384F83D30214651F8040BFFF7A6FFFB
:10297400012384F8463084F83E3084F83F3084F8EC
:10298400403084F8413084F8423084F8433084F88D
:10299400443084F8453084F83D30002010BD80F880
:1029A4003C30FDF79BFFDBE70120704740B310B5D7
:1029B400044690F83D30F3B1022384F83D302146BB
:1029C40051F8040BFFF77AFF012384F8463084F8AA
:1029D4003E3084F83F3084F8403084F8413084F845
:1029E400423084F8433084F8443084F8453084F825
:1029F4003D30002010BD80F83C30FDF7BDFFDBE723
:102A04000120704730B4036A23F010030362036AA1
:102A14004468826922F4E6420D6842EA052223F002
:102A240020038D6843EA0513114DA84203D005F530
:102A34000065A84206D123F08003CD6843EA05135C
:102A440023F040030A4DA84203D005F50065A842CF
:102A540007D124F440644D6944EA85048D6944EA4D
:102A64008504446082614A688263036230BC7047B3
:102A7400002C014038B590F83C30012B60D004465E
:102A84000D46012380F83C300C2A1AD8DFE802F006
:102A9400071919191D191919311919194400006850
:102AA400FFF762FD2268936943F00803936122688B
:102AB400936923F0040393612268936929690B43A2
:102AC4009361002084F83C0038BD0068FFF79AFF4A
:102AD4002268936943F4006393612268936923F441
:102AE4008063936122689369296943EA01239361AE
:102AF400E7E70068FFF76CFD2268D36943F0080339
:102B0400D3612268D36923F00403D3612268D369B3
:102B140029690B43D361D4E70068FFF791FD22686C
:102B2400D36943F40063D3612268D36923F48063D7
:102B3400D3612268D369296943EA0123D361C0E7D9
:102B44000220C1E710B401F01F01012303FA01F4CC
:102B5400036A23EA04030362036A02FA01F10B43E2
:102B6400036210BC7047000010B5044608460029F3
:102B74003AD194F83E30DBB2013B18BF0123002B5D
:102B840066D1002849D1022384F83E30012201464F
:102B94002068FFF7D7FF23682F4A934203D002F53A
:102BA4000062934203D15A6C42F400425A6423688F
:102BB400294A934241D002F5006293423DD0B3F1D9
:102BC400804F3AD0A2F59832934236D002F5806213
:102BD400934232D002F5806293422ED01A6842F0BA
:102BE40001021A60002032E0042908D008290DD01F
:102BF40094F84130DBB2013B18BF0123BFE794F8DE
:102C04003F30DBB2013B18BF0123B8E794F84030F2
:102C1400DBB2013B18BF0123B1E7042805D0082823
:102C240007D0022384F84130B0E7022384F83F3010
:102C3400ACE7022384F84030A8E79A6802F0070260
:102C4400062A07D01A6842F001021A60002010BD5B
:102C54000120FCE70020FAE7002C014038B50446C7
:102C64000D4600220068FFF76DFF23681D4A93425A
:102C740018D002F50062934214D02368196A41F215
:102C84001112114208D1196A40F24442114203D18F
:102C94001A6822F001021A609DB9012384F83E30BB
:102CA400002038BD196A41F211121142E5D1196AA6
:102CB40040F244421142E0D15A6C22F400425A6478
:102CC400DBE7042D05D0082D07D0012384F841301B
:102CD400E6E7012384F83F30E2E7012384F840303B
:102CE400DEE700BF002C014010B401F01F010423F3
:102CF40003FA01F4036A23EA04030362036A02FA8F
:102D040001F10B43036210BC7047000010B5044688
:102D14000846002933D194F84230DBB2013B18BF96
:102D24000123002B5FD1002842D1022384F84230D2
:102D3400042201462068FFF7D7FF2268536C43F44E
:102D44000043536423682A4A934241D002F5006247
:102D540093423DD0B3F1804F3AD0A2F598329342DA
:102D640036D002F58062934232D002F580629342FB
:102D74002ED01A6842F001021A60002032E00429C1
:102D840008D008290DD094F84530DBB2013B18BFB8
:102D94000123C6E794F84330DBB2013B18BF01239B
:102DA400BFE794F84430DBB2013B18BF0123B8E716
:102DB400042805D0082807D0022384F84530B7E753
:102DC400022384F84330B3E7022384F84430AFE7A6
:102DD4009A6802F00702062A07D01A6842F0010234
:102DE4001A60002010BD0120FCE70020FAE700BFB4
:102DF400002C014038B504460D4600220068FFF758
:102E040073FF2368196A41F21112114208D1196A39
:102E140040F24442114203D15A6C22F400425A64F3
:102E24002368196A41F21112114208D1196A40F259
:102E34004442114203D11A6822F001021A6025B9F2
:102E4400012384F84230002038BD042D05D0082D1C
:102E540007D0012384F84530F5E7012384F8433093
:102E6400F1E7012384F84430EDE7000090F83C30AA
:102E7400012B33D030B4012380F83C30022380F896
:102E84003D3003685C689D6824F070040A6822433E
:102E94005A600368124A934212D002F500629342C8
:102EA4000ED0B3F1804F0BD0A2F59832934207D0E5
:102EB40002F58062934203D002F58062934204D10A
:102EC40025F080054A6815439D60012380F83D3054
:102ED400002380F83C30184630BC7047022070470D
:102EE400002C014090F83C30012B22D0012380F8C3
:102EF4003C30CB6823F440738A68134323F4806323
:102F04004A68134323F400630A68134323F4805389
:102F14000A69134323F400534A69134323F4804397
:102F2400CA69134302685364002380F83C3018468E
:102F34007047022070477047704770470369C26842
:102F4400934204D88068801A0344581E70479B1A21
:102F5400581E70472DE9F843044688461646C5684E
:102F64008768A7EB0509914507D94068284401F013
:102F740081FC3544E560BDE8F88340684A4628444E
:102F840001F078FCED1B35442A4608EB0901606822
:102F940001F070FCE560EEE72DE9F843064688464B
:102FA4001746C5684FF0000918E0641B621EB36839
:102FB4005C1B944228BF1446BC4228BF3C46706840
:102FC40022464146284401F055FCA144A0443F1B3D
:102FD4002544B368AB4209D0F5604FB13469A542CA
:102FE400E3D3B268641B1444621EE0E70025F3E7F0
:102FF4004846BDE8F8830000114B03221A615A6168
:1030040010499961104ADA614FF480621A62002211
:103014009A625A62DA6219660C49596610219966F5
:103024001A67DA665A670A4A1068C3F80700094A39
:1030340092E803001860998020229A71704700BFBB
:10304400E81500205049000878080020680800208E
:103054005C49000860490008F8B50F461646451C4F
:1030640005EB4505164B03EBC50500EB400003EBF0
:10307400C000C46A012C11D0022C1CD014B100244D
:103084002046F8BD2846FFF759FF8642F8D8324655
:1030940039462846FFF75EFF3446F1E72846FFF736
:1030A4004DFF3446864228BF044622463946284608
:1030B400FFF750FFE4E72846FFF76EFF0446DFE71B
:1030C400E8150020F8B504460D461646094B1B7852
:1030D4006BB1EFF311874FF0200181F31188324671
:1030E40029462046FFF7B8FF87F31188F8BDFFF79C
:1030F40083FFEEE7E815002010B504468268531CF0
:103104004068834205D820688154A360E368013392
:10311400E360A26863689A4200D010BD2168206908
:10312400FFF7D0FFA368984203D04FF0FF33E3606A
:10313400F3E70023A360F0E72DE9F84F81460F463B
:1031440015461E46DDF828A00B9A0B464FF00108E1
:10315400AB4204D3B3FBF5F308F10108F8E7B0453B
:1031640000D2B04612F0010B18D1BAF1000F15D0FD
:1031740012F0020F02D0BEB1202400E02024BAF1E4
:10318400000F0BD0C24509D90AF1FF3A214648463F
:10319400FFF7B2FFD9F80C30002BF0DAD9F80C3075
:1031A400002B25DB012407E03024E8E7B7FBF4F328
:1031B4009D4206D805FB04F4012EF7D9013EF9E738
:1031C4001C46B7FBF4F304FB1377124AD15C484660
:1031D400FFF792FFD9F80C30002B03DBB4FBF5F3B7
:1031E400AC42EDD2BBF1000F02D0BAF1000F01D115
:1031F400BDE8F88FBAF1000FFAD0C245F8D90AF148
:10320400FF3A20214846FFF777FFD9F80C30002B0E
:10321400F0DAEDE7684900082DE9F04F83B0804605
:10322400894616469A460C9FDDF834B081EAE1746B
:10323400A4EBE1740125A64203DC94FBF6F401350A
:10324400F9E7554500D2554637B1B9F1000F02DB15
:103254001BF0040F00D0013F1BF0020F02D0BAF1A3
:10326400000F03D01BF0010F00D1C7B9D8F80C3000
:10327400002B11DBB9F1000F1FDB1BF0040F23D16E
:10328400D8F80C30002B07DB0BF00303022B20D003
:10329400D8F80C30002B2FDA03B0BDE8F08F002FE4
:1032A400E4D0AF42E2D9013F20214046FFF724FF9A
:1032B400D8F80C30002BF2DAD8E7C9F100092D2137
:1032C4004046FFF719FFDBE72B214046FFF714FFC9
:1032D400D6E7BAF1000FDBD1002FD9D0002FD7D019
:1032E400AF42D5D9013F30214046FFF705FFD8F85A
:1032F4000C30002BF2DACBE7CDF804B0009753463C
:10330400324649464046FFF717FFC5E72DE9F04727
:1033140098B007460C46164603AB13934023149308
:10332400002315931790169397E00025012211E0CE
:1033340045F0010501340CE045F00205013408E0D4
:1033440045F00405013404E045F00805013400E0CB
:1033540000221AB32378233B0D2BF9D801A151F88D
:1033640023F000BF4D3300085533000855330008DF
:103374005533000855330008553300085533000809
:103384005533000845330008553300083533000829
:1033940055330008553300083D3300084FF000084A
:1033A4002378A3F13002D2B2092A07D8013408EBFA
:1033B400880803EB4803A3F13008F1E72E2B03D070
:1033C4004FF00009237812E001344FF0000923780C
:1033D400A3F13002D2B2092AF4D8013409EB8909E5
:1033E40003EB4909A9F13009F1E714F8013F6C2B0B
:1033F400FBD0682BF9D0252B7ED029D3782B27D866
:10340400462B25D3463B322B22D8DFE803F07A2122
:103414002121212121212121212121212121212198
:103424004C212121212121212121211A32217A21FA
:10343400212121212121212168212159213F2121DB
:103444004C0033681A1D3260197813A8FFF754FE34
:103454000134169B002BC0F2988014F8011B00293C
:1034640000F0938025293FF460AF13A8FFF744FED2
:10347400EFE733681A1D326019680195CDF80080B2
:103484004B460A2213A8FFF7C7FEE1E733681A1D6B
:10349400326019680195CDF800804B460A2213A8C2
:1034A400FFF74AFED4E733681A1D326019680195A4
:1034B400CDF800804B46102213A8FFF73DFEC7E766
:1034C40033681A1D32601D6815F8011B0029BFD02E
:1034D40013A8FFF711FE169B002BF5DAB8E7336843
:1034E4001A1D3260196800230193082300931022E7
:1034F40013A8FFF721FEABE7252113A8FFF7FCFD76
:10350400A6E73368073323F0070303F108023260A8
:10351400D3E90001FCF738FF82460021FCF7D2FF13
:1035240070BB5046FCF7F6FF0195CDF800804B4682
:103534000A2280EAE071A1EBE07113A8FFF76CFEA8
:103544002E2113A8FFF7D8FD19495046FCF768FE51
:10355400FCF7E0FF0028B8BF4042164B83FB002372
:10356400C117C1EBA3110195CDF8008003230A22F2
:103574004FF47A7505FB110113A8FFF74DFE67E7B9
:103584002D2113A8FFF7B8FDCBE7169B002B05DD13
:10359400159A3AB9159A169B13441693169818B0AF
:1035A400BDE8F08703A93846FFF78CFDF2E700BFBA
:1035B40000007A44D34D62100EB400B582B003AB60
:1035C40053F8041B019301AAFFF7A0FE02B05DF8B3
:1035D40004EB03B07047000010B50B4C00212046EB
:1035E400FFF73CFB00212046FFF704FC074C0421B5
:1035F4002046FFF733FB04212046FFF7FBFB044B77
:10360400002283F80D2810BD101500203814002066
:103614000C00002008B5B0F1804F0FD00C4B98423D
:103624000CD003F58063984208D0FEF791FC094B57
:103634005B6813F4605F09D0400007E0FEF778FC94
:10364400044B5B6813F4E06F00D0400008BD00BF7A
:10365400000400400010024008B90020704710B573
:103664000446184B1868FFF7D5FF174BA3FB00233C
:103674009B0C164A904220D9013B013CB4F5803F93
:103684001DD2104A1268106A41F21111084208D181
:10369400106A40F24441084203D1116821F001014B
:1036A400116008490A689362D462CC6000235362B3
:1036B4006FF001031361012010BD0020FCE700201E
:1036C400FAE700BF8014002083DE1B433F420F0053
:1036D40010B50446D8B1012000F036F9042117488A
:1036E400FFF742FA08B100200AE004211348FFF76B
:1036F4000DFB30B9124B012083F80D0883F80E48F6
:1037040010BD04210D48FFF7A9FA0020F8E70020B6
:1037140000F01AF900210B48FFF726FA08B100203F
:10372400EEE700210748FFF7F1FA0028E2D0002174
:103734000448FFF793FA0020E2E700BF38140020A2
:103744000C0000201015002010B50446064B93F819
:103754000D0818B193F80E38A34204D0FFF73CFFCC
:103764002046FFF7B5FF10BD0C00002010B50B4C30
:103774006423236042F2107363600023A4F80838C2
:10378400A4F80A3884F80C3884F80D3884F80E3814
:10379400FFF722FF6068FFF75FFF10BD0C000020F9
:1037A40080B108B50246094B93F80C0860B9194674
:1037B4001A60074BB3FBF2F34B6033B11846FFF7C3
:1037C4004BFF02E000207047002008BD0C000020E1
:1037D40040420F00014B93F80C0870470C00002086
:1037E40008B50748FEF790FFFFF7F6FE054B0022E9
:1037F40083F80C28A3F80828A3F80A2808BD00BFFA
:10380400801400200C00002070B588B30C460146DB
:1038140084B3B4F5006F30D8194B93F80C680EB12B
:10382400002428E01D46224603F1080001F022F896
:10383400A5F808480023A5F80A38012285F80C28C1
:1038440085F80D38287AFFF77FFF044668B10D48E4
:10385400036800225A626FF001021A61FEF718FF32
:1038640048B1FFF7BDFF344605E0FFF7B9FF02E0BA
:10387400002400E00024204670BD0024FBE700BFC4
:103884000C0000208014002008B50268124B9A42F4
:1038940000D008BD114B93F80C38A3B10F4AB2F80D
:1038A4000A3801339BB2A2F80A38B2F808289342C6
:1038B4000FD20A4A1344187AFFF746FF0028E8D1CA
:1038C400FFF78EFFE5E70648FEF71EFFFFF784FECD
:1038D400DFE7FFF785FFDCE7000800400C0000206D
:1038E4008014002038B50446154D01224FF4807130
:1038F4002846FEF7EAFC00BF00BF00BF00BF00BFC0
:1039040000BF00BF00BF224604210E48FEF7DDFCC5
:1039140000BF00BF00BF00BF00BF00BF00BF00BFAB
:1039240000224FF480712846FEF7CFFC00BF00BF91
:1039340000BF00BF00BF00BF00BF00BF38BD00BF55
:10394400001001400008014008B510B1012803D05F
:1039540008BDFFF7C7FFFBE70120FFF7C3FFF7E749
:103964000023072B10D870B4C3F1070440FA04F401
:1039740015886E1C168004F001044C550133DBB22B
:10398400072BF1D970BC7047704770B5ADF6880D40
:10399400044615460023ADF802380E4629B1802DA1
:1039A40007D900200DF6880D70BD002AF7D000203D
:1039B400F8E7FFF70FFF002860D18DF804488DF871
:1039C400055800230224AB420AD2611CF25C0DF6B6
:1039D4008800044404F8842C0133DBB28CB2F2E78F
:1039E40021460DF6040000F0F0FD631C9BB20DF6B9
:1039F4008802224402F8840C0234A5B2C0F30720E2
:103A04000DF68802134403F8840C002309E0BDF882
:103A14000228511CADF8021801210DF802100B44C4
:103A2400DBB2012BF3D90DF6020269465520FFF7EC
:103A340097FF0024A3B2AB420CD20DF688032344B3
:103A44000DF60202694613F8840CFFF789FF01346E
:103A5400E4B2EFE7002309E0BDF80228511CADF8F9
:103A6400021800210DF802100133DBB2012BF3D947
:103A7400BDF802186846FFF7C7FE93E7002091E7F8
:103A8400034B00229A73DA731A745A749A74704747
:103A9400780C0020024B00229A750722DA757047D1
:103AA400780C002008B5084B00225A70DA741A7595
:103AB4005A755A769A7683F89B2083F89C2083F86B
:103AC4009D20FFF7E7FF08BD780C002008B5054BE3
:103AD40000221A701A735A73FFF7D2FFFFF7E2FF3E
:103AE40008BD00BF780C0020114BDB7B012B03D9F0
:103AF4000F4A927B93420DD80D4A527C12B10C4A64
:103B0400927C5AB10A4A927B012A0FD9934209D96D
:103B14000020704701230370184670470023037088
:103B24000120704700230370012070470020704774
:103B3400780C002010B540B10D4890F917400123CE
:103B4400A340DBB2847D23438375094B93F917307B
:103B540033B1013B064AD37500230B70012010BD1D
:103B6400034B9B7D137001230B70FFF793FFF5E765
:103B7400780C002038B50D4D01212846FEF79EFB38
:103B8400044602212846FEF799FB04B938B900B966
:103B94003CB944B108B1002038BD0320FCE7012042
:103BA400FAE70220F8E70320F6E700BF001001401F
:103BB40038B51546074C84F89E0004F19F0000F0C8
:103BC40059FEA4F82051012384F82231FFF77EFF27
:103BD40038BD00BF780C002010B5A2B000238DF8CA
:103BE40087308DF88630774B5B78082B00F2E680BF
:103BF400DFE803F0051A324D6C889ACFD80001280B
:103C040003D0704B0022DA74C7E06E4AD37C0133D0
:103C1400DBB2D374012B40F2C080134601225A70E8
:103C240000221A755A75B8E0664A137D40EA4300CB
:103C3400C0B21075537D0133DBB25375072B40F2CC
:103C4400AC80552802D0FFF741FFA6E013460222BC
:103C54005A70FFF71FFFA0E00DF186020DF18701F6
:103C6400FFF768FF9DF88730002B00F096809DF8E1
:103C74008630544A5376127E934201D0FF2B03D1EF
:103C8400504B03225A7088E0FFF720FF85E00DF1C6
:103C940086020DF18701FFF74DFF9DF88730002B59
:103CA4007BD09DF88630474A9376802B04D833B96D
:103CB400444B05225A7070E0FFF708FF6DE0414B5A
:103CC400002283F89B2004225A7066E00DF18602DC
:103CD4000DF18701FFF72EFF9DF88730002B5CD094
:103CE400384A92F89B104B1CDBB282F89B3011448B
:103CF4009DF88600C876927E93424ED3314B0522BE
:103D04005A704AE00DF186020DF18701FFF712FFA8
:103D14009DF88730002B40D02A4B9DF8862083F8ED
:103D24009C2006225A7038E00DF186020DF18701BD
:103D3400FFF700FF9DF887307BB3224B9DF8862068
:103D440083F89D205A7E8DF804209C7E8DF80540D2
:103D54009CB9A11C01A800F038FCC2B2194B93F81D
:103D64009C309A4206D1C0F30720164B93F89D303D
:103D740098420AD0FFF7AAFE0FE0224603F11B0186
:103D84000DF1060000F076FDE3E70E4B07225A70B2
:103D940003E020B90B4B08225A7022B010BDFFF784
:103DA40095FEFAE738B9074B9A7E03F11B01587E5A
:103DB400FFF7FEFEF1E7FFF789FEEEE7FFF786FE69
:103DC400EBE700BF780C0020494B5A6801325A6077
:103DD4001B7803B9704710B582B0FFF7CBFE0446D9
:103DE400431EDBB2012B1BD9414A536892689B1ACC
:103DF4001D2B19D83E4B1B78012B27D03C4B1B782D
:103E0400022B19D13A4B5B7B022B30D0042B3BD0D5
:103E1400052B3BD0062B3BD0082B26D0002227E0D5
:103E2400334B5A689A60DFE7314B5B78073BDBB270
:103E3400012B03D9FFF74AFE02B010BD2C4B9A7E2A
:103E440003F11B01587EFFF7B3FEF5E7284B1B7BFC
:103E54001BB1013B264A1373EEE7254B02221A706D
:103E640000225A73FFF70CFEC8E7012200E001228A
:103E7400A2B1012C0ED0022C23D0032C0ED11C494C
:103E84000A7C01320A7409E00122F1E70122EFE71A
:103E94000122EDE716498A7B01328A73042B15D07F
:103EA4000133DBB2124A5373092BC5D913460022DE
:103EB4005A730DF10700FFF717FE98B9FFF7E0FDFD
:103EC400BAE70B49CA7B0132CA73E7E7012C05D074
:103ED400022CE5D1064A01219174E1E7044A01214B
:103EE4005174DDE79DF80700FFF776FEE6E700BFB3
:103EF400780C0020002380F8083280F8093280F81A
:103F04000A32704790F80A323BB190F8093203EB59
:103F1400831318440860012070470020704790F80C
:103F24000A325BB190F80922013202F0070280F8EC
:103F34000922013B80F80A320120704700207047B3
:103F4400002380F8083280F8093280F80A3270477A
:103F540010B5044690F80A32B3B1084694F8091231
:103F640001EB81114122214400F084FC94F80932D0
:103F7400013303F0070384F8093294F80A32013B51
:103F840084F80A32012010BD0020FCE7402A1FD823
:103F940010B5044690F80A32072B1BD890F8080293
:103FA40000EB8013E2542AB121B1184620440130B9
:103FB40000F060FC94F80832013303F0070384F83E
:103FC400083294F80A32013384F80A32012010BD11
:103FD400002070470020FAE710B584B04B24029407
:103FE400074C01949DF81840009400F07FFA08B93A
:103FF40004B010BD0146024800F0C8FBF8E700BF5A
:104004008412002010B584B08DF80C300B4B93F85B
:10401400D3428DF80D4093F8DE448DF80E4093F8AA
:10402400E0344BB101238DF80F300423009303AB2C
:10403400FFF7D2FF04B010BD0023F4E79C0D00206D
:1040440030B5A5B0044600238DF84F30C27881788E
:10405400407800F0A9FA2578554B93F8DF349D4257
:1040640001D0FF2D0BD16378013B042B00F2968025
:10407400DFE803F00E264F6A0300FF2D01D125B0BF
:1040840030BD0023A27885212846FFF7BBFFF6E761
:10409400E278211D4748FFF779FF40B1FF2DEED0AC
:1040A4000023A27880212078FFF7ACFFE7E7FF2DFB
:1040B400E5D00523A27882212078FFF7A3FFDEE76D
:1040C40000238DF850303A4B93F8D3228DF85120C9
:1040D40093F8DE248DF8522093F8E034ABB1012339
:1040E4008DF8533000F042FA88B101238DF8543032
:1040F40005238DF84F30FF2DC1D0009314ABA27867
:1041040083212078FFF768FFB9E70023E8E700235D
:10411400ECE703A92848FFF71BFF60B1FF2DAED0E1
:104124009DF80C3000930DF10D03A27884212078C2
:10413400FFF752FFA3E7FF2DA1D00723A278812127
:104144002078FFF75FFF9AE781238DF80B300DF19C
:104154000B0300930DF14F0314AAE178201D00F026
:1041640028FA9DF80B3083F08003022B08D98123B1
:104174008DF80B3006238DF8503001238DF84F3025
:10418400FF2D3FF47CAF9DF84F30009314ABA27821
:104194009DF80B102078FFF71FFF70E7FF2D3FF409
:1041A4006EAF0423A27881212846FFF72BFF66E730
:1041B4009C0D0020650E00207010002000B583B017
:1041C4000DF1070000F0D2FA70B1094800F1C803FC
:1041D40000F184029DF8071000F059F90028EFD08F
:1041E4000448FFF72DFFEBE703B05DF804FB00BFC5
:1041F4009C0D0020200E002010B582B000F0D5F9EF
:1042040004461C4B93F8E03423B900F0AFF9E0B94D
:1042140002B010BD00F0AAF978B9164BD3F8E40443
:10422400201A41F288339842F2D91248002380F8C8
:10423400E034C930FFF773FEEAE70E48002380F844
:10424400E034C930FFF76BFEE2E701A90A48FFF743
:1042540059FE0028DCD0019810F8011B00F08EF9FB
:104264000028D5D0034B012283F8E024C3F8E444AA
:10427400CEE700BF9C0D0020650E002010B50F4C4A
:104284004FF49D620021204600F002FB012384F8D4
:10429400DF34204600F0F5F804F1C900FFF72AFEE8
:1042A40004F53570FFF74CFE00F0F8F900F004FA5D
:1042B40003490020FFF780F910BD00BF9C0D0020CA
:1042C4007849000808B5FFF779FFFFF795FF08BDA7
:1042D40008B500F005FA08BD08B500F017FA08BDE6
:1042E400F0B59E4673B3074601244FF0000C2046F8
:1042F400634609E001339BB2461CB6B2155401343F
:10430400E4B2FF2C10D030468B4216D270451BD23B
:10431400FD5C002DEED102F80C40441C01339BB22D
:104324008446A0B20124EFE702F80C40023080B2C8
:1043340086450BD3B4460124E6E7F44508D202F8D7
:104344000C4000E01846F0BD0020FCE70020FAE72E
:104354000020F8E7F0B584469E46002003468B42D1
:1043640026D25D1CADB21CF80330F3B1012408E081
:104374006E1C471C1CF8055015540134E4B2B8B245
:10438400B5B29C4205D28D4211D27045F0D30020C3
:104394000EE0FF2B07D08D4205D2704509D2431C95
:1043A4000024145498B22B46D9E7002000E00020E2
:1043B400F0BD0020FCE730B4054600244FF6FF7042
:1043C4000EE040080133DBB2072B07D810F0010FD1
:1043D400F7D04AF2010282EA5000F3E70134A4B2B2
:1043E4008C4203D22B5D58400023EDE730BC70476C
:1043F400F0B593B014461E4646236A46FFF7AAFF5B
:10440400052814D99DF8003023709DF8013063709D
:104414009DF80230A3709DF80350E570402D0BD831
:10442400AB1D83420CD003233370002002E003232E
:104434003370002013B0F0BD032333700020F9E77C
:10444400811E12AB0B4413F8487C013812AB18449C
:1044540010F8483C47EA032789B26846FFF7ABFFE8
:10446400874203D0022333700020E3E71DB9002301
:1044740033700120DEE72A4601A9201D00F0FAF975
:10448400F5E70023A0F8803080F88230704738B513
:104494000446A9B990F8821011B1B0F8801031B96E
:1044A4000020A4F88000012384F8823038BDFFF78F
:1044B4009FFF0023A4F88030012384F88230F5E7BD
:1044C40090F882000028F1D0B4F880207F2A05D823
:1044D400531CA4F88030A1540020E7E70020A4F87E
:1044E400800084F8820003221A70DFE770B592B06E
:1044F4009DF85840BDF86050402C32D88DF800002B
:104504008DF801108DF802208DF803402CB123B1F1
:104514002246194601A800F0ADF9A6B2043421469A
:104524006846FFF748FF731D12AA144404F8480CA8
:10453400B11DC0F30720134403F8480C012D13D90F
:10454400179A002302F8013BAB1E9BB26846FFF7A3
:10455400C7FE38B1431C00221799CA54023080B2F6
:1045640000E0002012B070BD0020FBE708B5FFF7A3
:1045740031F980F00100C0B208BD000070B50646F4
:104584000D460024A54207DD335D2246054900207F
:10459400FFF712F80134F5E7EAB231460120FFF7DC
:1045A400F4F970BD80490008704708B5FDF796F925
:1045B40008BD009910463AB133B129B10622027000
:1045C40001221A7081230B70704730B40546002411
:1045D4004FF6FF700EE040080133DBB2072B07D81B
:1045E40010F0010FF7D04AF2010282EA5000F3E71B
:1045F4000134A4B28C4203D22B5D58400023EDE772
:1046040030BC704700230380438082808160704700
:1046140010B403889BB201338488B3FBF4F204FB27
:1046240012339BB2428892B29A4207D084680288BD
:1046340092B2A1540380012010BC70470020FBE714
:10464400028892B243889BB29A4210D0826843880F
:104654009BB2D35C0B7043889BB201338188B3FB5C
:10466400F1F201FB12339BB243800120704700201A
:104674007047000008B500224FF480710148FDF72F
:1046840024FE08BD000C014008B501224FF48071DE
:104694000148FDF71AFE08BD000C014008B54FF4AF
:1046A400807203490348FFF7ADFFFFF7E3FF08BD3E
:1046B400DC120020D012002008B50122054906486A
:1046C400FCF7F5FE00B908BD04490020FEF774FFAD
:1046D400F9E700BFDC130020A01500209049000872
:1046E400074B834200D0704710B5064C217806482A
:1046F400FFF78EFF012221460148FCF7D8FE10BDCA
:10470400A0150020DC130020D0120020154B83429A
:1047140000D0704710B584B0002200921C461B687C
:1047240019680091596800910099019219680191E2
:10473400596801910199029219680291596802918C
:10474400029903921A6803925B680393039B2046C1
:10475400FCF7D8FC012204492046FCF7A8FE04B06B
:1047640010BD00BFA0150020DC13002008B520B147
:1047740001460448FFF764FF08BD0349FEF71CFF28
:104784000020F9E7D01200209849000810B338B58A
:104794000C46054609B9002038BDFFF775FF4FF4F4
:1047A4007A73224629460C48FCF740FC024648B975
:1047B400094B1B681B6813F0400FF9D0FFF75AFF31
:1047C4000120E9E705490020FEF7F6FEFFF752FF56
:1047D4000020E1E700207047A0150020A849000848
:1047E4000C480D490D4A002302E0D458C450043348
:1047F400C4188C42F9D30A4A0A4C002301E013601E
:104804000432A242FBD3FEF798FB00F00FF8FBF74B
:10481400FDFE7047000000201C080020C04900086D
:104824001C08002090160020FEE7000070B500264A
:104834000C4D0D4C641BA410A64209D100F030F8B5
:1048440000260A4D0A4C641BA410A64205D170BD73
:1048540055F8043B98470136EEE755F8043B984772
:104864000136F2E7B8490008B8490008B849000819
:10487400BC4900080A44914200F1FF3300D170475B
:1048840010B511F8014B914203F8014FF9D110BD55
:1048940003460244934200D1704703F8011BF9E731
:1048A400F8B500BFF8BC08BC9E467047F8B500BF19
:0848B400F8BC08BC9E467047E9
:1048BC006572726F7220310A000000006572726FAF
:1048CC007220320A000000006572726F7220330A87
:1048DC000000000068616C5F696E69742073756319
:1048EC00636573730A00000073797374656D636C90
:1048FC006F636B20696E6974207375636365737382
:10490C000A000000756172745F696E69745F65728C
:10491C00726F720A00000000020304050607080902
:10492C000A0B0C0D0E0F1010000000000000000010
:10493C000000000001020304060708090000000043
:10494C00010203045465726D696E616C0000000015
:10495C0052545400534547474552000030313233CE
:10496C0034353637383941424344454668686868BF
:10497C00680A0000646174615B25645D69732025BD
:10498C00780A00003F3F3F3F3F0A000062797465A0
:10499C00206973206E756C6C0A00000073656E6480
:0C49AC005F6572726F7225640A000000E3
:0449B80009020008E8
:0449BC00E501000809
:1049C00001000000100000000024F400640000005A
:1049D00010270000000000000000000000000000A0
:1049E00000000000000000000000000000000000C7
:1049F00000000000000000000000000000000000B7
:104A000000000000000000000000000000000000A6
:104A10000000000000000000000000000000000096
:04000005080047E5C3
:00000001FF
