:020000040800F2
:1000000000C0002045190008F9070008FB07000898
:10001000FD070008FF0700080108000800000000B5
:1000200000000000000000000000000003080008BD
:10003000050800080000000007080008090800087B
:100040008D1900088D1900088D1900088D190008F8
:100050008D1900088D1900088D1900088D190008E8
:100060008D1900088D1900088D1900088D190008D8
:100070008D1900088D1900088D1900088D190008C8
:100080008D1900088D1900088D1900088D190008B8
:100090008D1900088D1900088D1900088D190008A8
:1000A0008D1900088D1900088D1900088D19000898
:1000B0008D1900088D1900088D1900088D19000888
:1000C0008D1900088D1900088D1900088D19000878
:1000D0008D1900088D1900088D1900088D19000868
:1000E0008D1900088D1900088D1900088D19000858
:1000F0008D1900088D1900088D1900088D19000848
:100100008D1900088D1900088D1900088D19000837
:100110008D1900088D1900088D1900088D19000827
:100120008D1900088D1900088D1900088D19000817
:1001300000000000000000000000000000000000BF
:1001400000000000000000000000000000000000AF
:10015000000000000000000000000000000000009F
:10016000000000000000000000000000000000008F
:10017000000000000000000000000000000000007F
:10018000000000000000000000000000000000006F
:10019000000000000000000000000000000000005F
:1001A000000000000000000000000000000000004F
:1001B000000000000000000000000000000000003F
:1001C000000000000000000000000000000000002F
:1001D000000000000000000000000000000000001F
:0401E0005FF8E0F1F3
:1001E40010B5054C237833B9044B13B10448AFF36D
:1001F40000800123237010BD0C00002000000000CB
:10020400E819000808B5034B1BB103490348AFF3D1
:10021400008008BD0000000010000020E81900085C
:1002240072B6FEE700B597B000230F9311931293B3
:100234000793089309930A930B93019302930393EF
:1002440004930593069301210C914FF480320D928F
:100254000E9310910223139314924FF4E013159309
:100264000CA800F0B1FBC0B90F2307930221089139
:10027400002309934FF480620A920B9307A800F0BD
:10028400E1FD60B9102301930023069301A800F057
:100294008FFE30B917B05DF804FBFFF7C1FFFFF71D
:1002A400BFFFFFF7BDFF08B500F054FBFFF7BAFF2F
:1002B40000F00CF800F06CF800F06CF900F0C4F9F0
:1002C40000F06AFA00F00CFAFEE700002DE9F041B4
:1002D40088B000240494059406940794294B9A69E1
:1002E40042F010029A619A6902F010020092009A98
:1002F4009A6942F020029A619A6902F020020192FE
:10030400019A9A6942F004029A619A6902F004021D
:100314000292029A9A6942F008029A619B6903F078
:1003240008030393039BDFF86480224604214046BC
:1003340000F0E4FF144D224640F20271284600F01A
:10034400DDFF0423049301270597069402260796EC
:1003540004A9404600F0B6FE40F2027304930597E8
:100364000694079604A9284600F0ACFE4FF40063F7
:1003740004930594069404A9284600F0A3FE08B04B
:10038400BDE8F08100100240000C0140000801406B
:1003940008B50D480D4B03604FF48273436000238E
:1003A4008360C360036143614FF400728261C3617F
:1003B4000362436283620A23C36200F049FA00B90C
:1003C40008BDFFF72DFFFBE72800002000380040A0
:1003D40010B586B000230293039304930593026837
:1003E400174B9A4201D006B010BD03F5EC33DA691D
:1003F40042F48042DA61DA6902F480420092009A9F
:100404009A6942F008029A619B6903F00803019318
:10041400019B4FF420430293022303930323059388
:10042400084C02A9204600F04DFE4FF4804302938D
:1004340000230393049302A9204600F043FED2E76D
:1004440000380040000C014084B00368154A934210
:1004540007D0154A93420FD0144A934217D004B0E0
:100464007047134B9A6942F400629A619B6903F4E2
:1004740000630193019BF2E70D4BDA6942F002023B
:10048400DA61DB6903F002030293029BE7E7084B9E
:100494009A6942F400529A619B6903F400530393EE
:1004A400039BDCE7002C01400004004000340140C1
:1004B4000010024010B588B00023049305930693FE
:1004C400079303682C4A934207D02C4A934219D0CD
:1004D4002B4A93423BD008B010BD2A4B9A6942F094
:1004E40004029A619B6903F004030093009B4FF498
:1004F4008073049302230593079304A9224800F010
:10050400E1FDE8E71F4B9A6942F004029A619A6997
:1005140002F004020192019A9A6942F008029A6177
:100524009B6903F008030293029B80230493022433
:100534000594079404A9144800F0C4FD012304930E
:100544000594079404A9114800F0BCFDC3E70D4BC2
:100554009A6942F010029A619B6903F010030393B5
:10056400039B8023049302230593079304A908485B
:1005740000F0A8FDAFE700BF002C014000040040DC
:10058400003401400010024000080140000C01400A
:100594000010014010B592B00024109411940994F5
:1005A4000A940B940C940D940E940F9420222146DB
:1005B40001A801F00FFA2248224B036044608460D2
:1005C4004FF6FF73C36004614461846100F0D8FF97
:1005D400002829D100231093119310A9184801F081
:1005E4009BF820BB6023099300220A920B920C9281
:1005F4000D920E920F9209A9114801F025F8C8B97D
:100604000023019302930393049305934FF4005240
:100614000692089301A90A4801F0BAF868B9084893
:10062400FFF748FF12B010BDFFF7FAFDD2E7FFF75E
:10063400F7FDD7E7FFF7F4FDE2E7FFF7F1FDEEE79B
:1006440010010020002C014000B58BB0002308935A
:1006540009930193029303930493059306930793D9
:100664001D481E4A02604722426083604FF6FF72B3
:10067400C2600361836100F083FF00BB0023089321
:10068400099308A9144801F047F8D8B960230193E5
:10069400002302930393059304220DEB02010E48F9
:1006A40000F0D2FF88B9082201A90B4800F0CCFF62
:1006B40070B90948FFF7FEFE0BB05DF804FBFFF7C5
:1006C400AFFDDBE7FFF7ACFDE0E7FFF7A9FDEAE7E5
:1006D400FFF7A6FDEDE700BFC800002000040040BE
:1006E40010B592B000241094119409940A940B94B8
:1006F4000C940D940E940F942022214601A801F02D
:1007040069F92348234B0360446084604FF6FF7308
:10071400C36004614461846100F032FF00282AD17F
:1007240000231093119310A9194800F0F5FF28BB7A
:100734006023099300230A930B930C930D930E9358
:100744000F93042209A9124800F07EFFC8B90023C0
:10075400019302930393049305934FF4005206927A
:10076400089301A90A4801F013F868B90848FFF78B
:10077400A1FE12B010BDFFF753FDD1E7FFF750FD06
:10078400D6E7FFF74DFDE2E7FFF74AFDEEE700BFCE
:10079400800000200034014008B50948094B03607B
:1007A400082343600223836000238361C3610362DF
:1007B40001F017F800B908BDFFF732FDFBE700BFF1
:1007C40058010020005C00400268094B9A4200D0A6
:1007D400704782B003F5DA33DA6942F40002DA6171
:1007E400DB6903F400030193019B02B0704700BF6F
:1007F400005C0040FEE7FEE7FEE7FEE7FEE7704729
:100804007047704708B500F0B7F808BD82B00E4BCA
:100814009A6942F001029A619A6902F00102009217
:10082400009ADA6942F08052DA61DB6903F080539E
:100834000193019B054A536823F0E06343F080630E
:10084400536002B0704700BF001002400000014036
:10085400002856D010B50446436A33B94368B3F54B
:10086400827F05D00023C36102E00023036143615A
:100874000023A36294F85130002B3CD0022384F867
:1008840051302268136823F040031360636803F453
:100894008273A26802F404421343E26802F4006221
:1008A4001343226902F002021343626902F0010257
:1008B4001343A26902F400721343E26902F038029E
:1008C4001343226A02F080021343A26A02F4005224
:1008D400216813430B60638B226803F004035360A5
:1008E4002268D36923F40063D36100206065012387
:1008F40084F8513010BD84F850302046FFF768FD6D
:10090400BCE701207047000010B504460E4B187870
:100914004FF47A73B3FBF0F30C4A1068B0FBF3F0B6
:1009240000F038FD68B90F2C01D901200AE000223B
:1009340021464FF0FF3000F0F9FC054B1C6000200D
:1009440000E0012010BD00BF0000002008000020CE
:100954000400002008B5074A136843F0100313602D
:10096400032000F0D1FC0020FFF7CEFFFFF74EFF7D
:10097400002008BD00200240034A1168034B1B7885
:100984000B441360704700BF4404002000000020A3
:10099400014B1868704700BF4404002082B0084B24
:1009A4001B68084AA2FB03235B0A00FB03F30193C1
:1009B40000BF019B5A1E0192002BF9D102B070476F
:1009C40008000020D34D6210002800F0F18170B5BA
:1009D40082B00446036813F0010F2CD0AA4B5B6865
:1009E40003F00C03042B1DD0A74B5B6803F00C032E
:1009F400082B12D06368B3F5803F41D0002B55D14A
:100A040003F1804303F504331A6822F480321A6038
:100A14001A6822F480221A6037E09B4B5B6813F457
:100A2400803FE7D0984B1B6813F4003F03D0636802
:100A3400002B00F0BF81236813F0020F75D0924B96
:100A44005B6813F00C0F5FD08F4B5B6803F00C03F3
:100A5400082B54D02369002B00F089808B4B012292
:100A64001A60FFF795FF0546874B1B6813F0020FCA
:100A740074D1FFF78DFF401B0228F5D903209EE1B6
:100A8400814A136843F480331360636843B3FFF708
:100A94007FFF05467C4B1B6813F4003FCBD1FFF767
:100AA40077FF401B6428F5D9032088E1B3F5A02F14
:100AB40009D0754B1A6822F480321A601A6822F43D
:100AC40080221A60E1E703F18043A3F53C331A68FE
:100AD40042F480221A601A6842F480321A60D4E721
:100AE400FFF756FF0546684B1B6813F4003FA2D07E
:100AF400FFF74EFF401B6428F5D903205FE1624BEA
:100B04005B6813F4803FA5D15F4B1B6813F0020FA1
:100B140003D02369012B40F04F815B4A136823F013
:100B2400F803616943EAC1031360236813F0080FF3
:100B340032D0A369002B45D0554B01221A60FFF730
:100B440027FF0546504B5B6A13F0020F21D1FFF7D4
:100B54001FFF401B0228F5D9032030E14A4A1368DD
:100B640023F0F803616943EAC1031360DDE7474BEF
:100B740000221A60FFF70CFF0546434B1B6813F075
:100B8400020FD2D0FFF704FF401B0228F5D903203F
:100B940015E10120FFF702FF236813F0040F00F0B2
:100BA4009780394BDB6913F0805F1DD1364BDA69CE
:100BB40042F08052DA61DB6903F080530193019BB8
:100BC400012512E0324B00221A60FFF7E1FE0546D0
:100BD4002D4B5B6A13F0020FDED0FFF7D9FE401BEA
:100BE4000228F5D90320EAE000252A4B1B6813F4F8
:100BF400807F11D0E368012B22D0002B38D103F180
:100C0400804303F504331A6A22F001021A621A6A55
:100C140022F004021A6218E01E4A136843F4807337
:100C24001360FFF7B5FE06461A4B1B6813F4807F6A
:100C3400E0D1FFF7ADFE801B6428F5D90320BEE0A8
:100C4400114A136A43F001031362E36873B3FFF7B5
:100C54009FFE06460C4B1B6A13F0020F37D1FFF7B9
:100C640097FE801B41F288339842F3D90320A6E013
:100C7400052B11D0044B1A6A22F001021A621A6A77
:100C840022F004021A62E0E700100240000042422F
:100C940080044242007000404D4B1A6A42F0040244
:100CA4001A621A6A42F001021A62CEE7FFF770FE76
:100CB4000646474B1B6A13F0020F08D0FFF768FE85
:100CC400801B41F288339842F3D9032077E0E5B9D9
:100CD400E369002B72D03E4A526802F00C02082AE3
:100CE40056D0022B17D03B4B00221A60FFF750FE60
:100CF4000446374B1B6813F0007F47D0FFF748FECC
:100D0400001B0228F5D9032059E0314AD36923F0A6
:100D14008053D361DCE72F4B00221A60FFF738FEC3
:100D240005462B4B1B6813F0007F06D0FFF730FEFF
:100D3400401B0228F5D9032041E0236AB3F5803F24
:100D44001AD023494B6823F47413226A606A02435D
:100D540013434B601F4B01221A60FFF719FE044630
:100D64001B4B1B6813F0007F0ED1FFF711FE001B15
:100D74000228F5D9032022E0154A536823F40033EE
:100D8400A1680B435360DCE7002018E0002016E064
:100D9400012B16D00E4B5B6803F48031226A91421A
:100DA40011D103F47013626A93420ED1002006E05D
:100DB40001207047012002E0012000E0002002B081
:100DC40070BD0120FBE70120F9E70120F7E700BF30
:100DD400001002406000424286B0164B0FCB0DF16A
:100DE400180C0CE90F0040F20123ADF80430124B4B
:100DF4005B6803F00C02082A02D0104806B0704762
:100E0400C3F38342624412F8102C13F4803F0CD0D5
:100E1400094B5B68C3F34043634413F8143C07482D
:100E240000FB02F0B0FBF3F0E8E7054800FB02F03A
:100E3400E4E700BF001A00080010024000127A0024
:100E440000093D00002800F0A08070B50D4604465E
:100E5400524B1B6803F007038B420BD24F4A1368B3
:100E640023F007030B431360136803F007038B425B
:100E740040F08D80236813F0020F17D013F0040F95
:100E840004D0474A536843F4E0635360236813F083
:100E9400080F04D0424A536843F460535360404AF5
:100EA400536823F0F003A1680B435360236813F0E5
:100EB400010F31D06368012B20D0022B25D0384A92
:100EC400126812F0020F64D035494A6822F0030216
:100ED40013434B60FFF75CFD0646314B5B6803F040
:100EE4000C036268B3EB820F16D0FFF751FD801B31
:100EF40041F288339842F0D9032045E0284A126829
:100F040012F4003FE0D101203EE0254A126812F0BD
:100F1400007FD9D1012037E0204B1B6803F0070381
:100F2400AB420AD91D4A136823F007032B4313600D
:100F3400136803F00703AB422DD1236813F0040FA9
:100F440006D0174A536823F4E063E1680B43536007
:100F5400236813F0080F07D0114A536823F4605331
:100F6400216943EAC1035360FFF736FF0C4B5B680A
:100F7400C3F303130B4AD35CD8400B4B18600B4BE1
:100F84001868FFF7C1FC002070BD012070470120E4
:100F9400FAE70120F8E70120F6E700BF002002404D
:100FA40000100240141A0008080000200400002069
:100FB40070B582B00446036813F0010F34D03E4B81
:100FC400DB6913F0805F47D13B4BDA6942F0805212
:100FD400DA61DB6903F080530193019B0125374BF0
:100FE4001B6813F4807F39D0334B1B6A13F44073AE
:100FF40011D0626802F440729A420CD02E4A136AED
:1010040023F440702E4901260E6000260E60106203
:1010140013F0010F36D1284A136A23F44073616830
:101024000B431362002D3ED1236813F0020F06D048
:10103400214A536823F44043A1680B435360236857
:1010440013F0100F34D01C4A536823F480036169F1
:101054000B43536000202CE00025C0E7174A1368B7
:1010640043F480731360FFF793FC0646134B1B682D
:1010740013F4807FB8D1FFF78BFC801B6428F5D96B
:10108400032016E0FFF784FC06460B4B1B6A13F0A3
:10109400020FC0D1FFF77CFC801B41F288339842D9
:1010A400F3D9032005E0D36923F08053D361BBE770
:1010B400002002B070BD00BF00100240007000406C
:1010C40040044242F0B482B000252C46ABE0854F88
:1010D400BB4210D007D9844FBB420CD007F58037F0
:1010E400BB4208D013E0A7F58017BB4203D007F535
:1010F4007027BB4207D18B68002B60D0012B59D0DD
:101104004261082503E0A7F58017BB42F3D0FF2E08
:1011140057D88446FF2E57D8A200DCF800300F279A
:10112400974023EA070305FA02F21343CCF8003090
:101134004B6813F0805F75D06C4B9A6942F00102E2
:101144009A619B6903F001030193019BA208971C18
:10115400674B53F827C004F003039F000F23BB40E1
:101164002CEA030C634B984234D003F58063984215
:1011740000F0948003F58063984200F0918003F5B9
:101184008063984200F08E8003F58063984200F0FB
:101194008B8003F5806398421AD006231BE0CD6848
:1011A400B5E7CD680435B2E7CD680835AFE7CD685B
:1011B4000C35ACE702610825A9E70025A7E704255B
:1011C400A5E700F1040CA5E7A4F108029200A4E746
:1011D400052300E00023BB4043EA0C030232444FE2
:1011E40047F822304B6813F4803F5FD0424A1368BB
:1011F400334313604B6813F4003F5DD03E4A536899
:10120400334353604B6813F4801F5BD03A4A9368AE
:10121400334393604B6813F4001F59D0364AD368A4
:101224001E43D66001340B6833FA04F256D001220F
:10123400A24003EA020632EA0303F3D14B68122BFD
:101244003FF645AF122B3FF662AF01A757F823F0E4
:10125400FB100008A3110008AD110008BF1100081D
:1012640013110008131100081311000813110008CA
:1012740013110008131100081311000813110008BA
:1012840013110008131100081311000813110008AA
:1012940013110008A7110008B311000801239AE7ED
:1012A400022398E7032396E7042394E7124A13687A
:1012B40023EA060313609DE70F4A536823EA0603F3
:1012C40053609FE70C4A936823EA06039360A1E7FF
:1012D400094AD36823EA0606D660A3E702B0F0BC45
:1012E400704700BF000022100000311000100240BF
:1012F4000000014000080140000401400AB10161FE
:101304007047090401617047074AD36823F4E06316
:101314001B041B0C000200F4E060034343F0BF63B2
:1013240043F40033D360704700ED00E030B4174B52
:10133400DB68C3F30223C3F10704042C28BF04248D
:101344001D1D062D18D9033B4FF0FF3505FA04F493
:1013540021EA0401994005FA03F322EA030319433D
:1013640000280BDB0901C9B200F1604000F56140BF
:1013740080F8001330BC70470023E5E700F00F004D
:101384000901C9B2024B1954F4E700BF00ED00E0B3
:1013940014ED00E00138B0F1807F0AD2064B5860AA
:1013A400064AF02182F823100020986007221A6070
:1013B40070470120704700BF10E000E000ED00E03E
:1013C40030B4036A23F001030362056A4268846946
:1013D40024F073040B681C4325F002058B682B432F
:1013E400104DA84203D005F50065A84205D123F0AD
:1013F4000803CD682B4323F004030A4DA84203D00D
:1014040005F50065A84205D122F440724D691543E3
:101414008A692A43426084614A684263036230BC39
:10142400704700BF002C014030B4036A23F480737A
:101434000362036A4268C46924F073040D682C4390
:1014440023F400738D6843EA0523124DA84203D0A8
:1014540005F50065A84206D123F40063CD6843EA8C
:10146400052323F480630B4DA84203D005F50065E2
:10147400A84207D122F440524D6942EA05128D690F
:1014840042EA05124260C4614A68C263036230BC26
:10149400704700BF002C014030B4036A23F480532A
:1014A4000362036A4468C26922F4E6420D6842EAB0
:1014B400052223F400538D6843EA0533094DA842FD
:1014C40003D005F50065A84204D124F480444D6995
:1014D40044EA85144460C2614A680264036230BC11
:1014E400704700BF002C01400368244A904212D088
:1014F40002F5006290420ED0B0F1804F0BD0A2F5FD
:101504009832904207D002F58062904203D002F5EF
:101514008062904203D123F070034A681343174A50
:10152400904212D002F5006290420ED0B0F1804F8A
:101534000BD0A2F59832904207D002F58062904217
:1015440003D002F58062904203D123F44073CA6849
:10155400134323F080034A69134303608B68C36217
:101564000B688362054B984203D003F500639842ED
:1015740001D10B690363012343617047002C0140CF
:1015840040B310B5044690F83D30F3B1022384F81B
:101594003D30214651F8040BFFF7A6FF012384F8E0
:1015A400463084F83E3084F83F3084F8403084F884
:1015B400413084F8423084F8433084F8443084F86D
:1015C400453084F83D30002010BD80F83C30FEF7F3
:1015D4003BFFDBE70120704730B4036A23F01003BC
:1015E4000362036A4468826922F4E6420D6842EAAF
:1015F400052223F020038D6843EA0513114DA84208
:1016040003D005F50065A84206D123F08003CD6818
:1016140043EA051323F040030A4DA84203D005F51D
:101624000065A84207D124F440644D6944EA850466
:101634008D6944EA8504446082614A688263036276
:1016440030BC7047002C014038B590F83C30012B79
:1016540060D004460D46012380F83C300C2A1AD889
:10166400DFE802F0071919191D1919193119191987
:1016740044000068FFF7A4FE2268936943F008035E
:1016840093612268936923F0040393612268936948
:1016940029690B439361002084F83C0038BD00683D
:1016A400FFF79AFF2268936943F400639361226809
:1016B400936923F48063936122689369296943EAF7
:1016C40001239361E7E70068FFF7AEFE2268D36960
:1016D40043F00803D3612268D36923F00403D36180
:1016E4002268D36929690B43D361D4E70068FFF703
:1016F400D3FE2268D36943F40063D3612268D369BB
:1017040023F48063D3612268D369296943EA0123FE
:10171400D361C0E70220C1E790F83C30012B33D0FD
:1017240030B4012380F83C30022380F83D30036854
:101734005C689D6824F070040A6822435A60036858
:10174400124A934212D002F5006293420ED0B3F1D2
:10175400804F0BD0A2F59832934207D002F58062F5
:10176400934203D002F58062934204D125F08005B0
:101774004A6815439D60012380F83D30002380F8BA
:101784003C30184630BC704702207047002C0140A2
:1017940090F83C30012B22D0012380F83C30CB68F8
:1017A40023F440738A68134323F480634A68134321
:1017B40023F400630A68134323F480530A69134330
:1017C40023F400534A69134323F48043CA6913433F
:1017D40002685364002380F83C30184670470220A6
:1017E4007047F0B587B000287FD0044690F8A9323E
:1017F400DBB1032384F8A932206800F07FF8254682
:1018040055F8107B6E460FCD0FC62B683360231D31
:101814000ECB384600F06BF8054658B1022384F825
:10182400A9320125284607B0F0BD80F8A832FEF79A
:10183400CBFFDEE70021206800F06AF82B4619E0B0
:101844005A1C02EB820104EBC1010120487002EB37
:10185400820104F8313003EB830104EBC101CB8630
:1018640002EB820604EBC6060020F0708863C863AE
:101874000864D3B261688B42E2D316E005EB8503BA
:1018840004EBC303002283F8692183F8685183F8C9
:101894006B21C3F87821C3F87C2105EB850304EBA5
:1018A400C303C3F880210135EDB2A942E6D8254629
:1018B40055F8107B6E460FCD0FC62B683360231D81
:1018C4000ECB384600F026F8054620B1022384F8F2
:1018D400A9320125A6E7002384F82430012384F8E3
:1018E400A932206800F029F89CE701259AE784B022
:1018F40001A880E80E00002004B07047B0F8403022
:1019040023F47C535B045B0CA0F840300020704748
:101914000020704784B010B4044602A880E80E008A
:101924000123A4F840300020A4F84000A4F84400A7
:10193400A4F8500010BC04B07047002070477047F2
:101944000C480D490D4A002302E0D458C450043316
:10195400C4188C42F9D30A4A0A4C002301E01360EC
:101964000432A242FBD3FFF7EAFF00F00FF8FEF7C0
:101974009AFC7047000000200C0000202C1A00087C
:101984000C00002048040020FEE7000070B500268B
:101994000C4D0D4C641BA410A64209D100F022F892
:1019A40000260A4D0A4C641BA410A64205D170BD42
:1019B40055F8043B98470136EEE755F8043B984741
:1019C4000136F2E7241A0008241A0008241A000831
:1019D400281A000803460244934200D1704703F8D2
:1019E400011BF9E7F8B500BFF8BC08BC9E46704778
:0C19F400F8B500BFF8BC08BC9E46704768
:101A000002030405060708090A0B0C0D0E0F10103F
:101A100000000000000000000000000001020304BC
:041A200006070809A4
:041A240009020008AB
:041A2800E5010008CC
:0C1A2C0001000000100000000024F40085
:040000050800194591
:00000001FF
