:020000040800F2
:1000000000C0002001470008DD100008DF100008D4
:10001000E1100008E3100008E510000800000000EF
:10002000000000000000000000000000E7100008D1
:10003000E910000800000000EB100008ED100008B7
:100040004947000849470008494700084947000850
:10005000494700084947000849470008A11000081F
:100060004947000849470008494700084947000830
:100070004947000849470008494700084947000820
:100080004947000849470008BD10000849470008D3
:100090004947000849470008494700084947000800
:1000A00049470008494700084947000849470008F0
:1000B000AD100008494700084947000849470008B3
:1000C00049470008494700084947000849470008D0
:1000D0004947000849470008494700086D0F0008D4
:1000E00049470008494700084947000849470008B0
:1000F00049470008494700084947000849470008A0
:10010000494700084947000849470008494700088F
:100110004947000849470008CD1000084947000832
:10012000494700084947000849470008494700086F
:1001300000000000000000000000000000000000BF
:1001400000000000000000000000000000000000AF
:10015000000000000000000000000000000000009F
:10016000000000000000000000000000000000008F
:10017000000000000000000000000000000000007F
:10018000000000000000000000000000000000006F
:10019000000000000000000000000000000000005F
:1001A000000000000000000000000000000000004F
:1001B000000000000000000000000000000000003F
:1001C000000000000000000000000000000000002F
:1001D000000000000000000000000000000000001F
:0401E0005FF8E0F1F3
:1001E40010B5054C237833B9044B13B10448AFF36D
:1001F40000800123237010BD0C00002000000000CB
:10020400C047000808B5034B1BB103490348AFF3CB
:10021400008008BD0000000010000020C047000856
:100224004FF0FF0C1CEAD0521EBF1CEAD15392EAD5
:100234000C0F93EA0C0F6FD01A4480EA010C4002B1
:1002440018BF5FEA41211ED04FF0006343EA50100B
:1002540043EA5111A0FB01310CF00040B1F5000F4D
:100264003EBF490041EAD3715B0040EA010062F1FC
:100274007F02FD2A1DD8B3F1004F40EBC25008BFE6
:1002840020F00100704790F0000F0CF0004C08BF04
:1002940049024CEA502040EA51207F3AC2BFD2F1D1
:1002A400FF0340EAC250704740F400004FF00003DF
:1002B400013A5DDC12F1190FDCBF00F00040704719
:1002C400C2F10002410021FA02F1C2F1200200FA57
:1002D40002FC5FEA310040F1000053EA4C0308BF1E
:1002E40020EADC70704792F0000F00F0004C02BF6F
:1002F400400010F4000F013AF9D040EA0C0093F0EA
:10030400000F01F0004C02BF490011F4000F013B43
:10031400F9D041EA0C018FE70CEAD15392EA0C0FB1
:1003240018BF93EA0C0F0AD030F0004C18BF31F01C
:10033400004CD8D180EA010000F00040704790F0F2
:10034400000F17BF90F0004F084691F0000F91F096
:10035400004F14D092EA0C0F01D142020FD193EA5C
:100364000C0F03D14B0218BF084608D180EA0100E4
:1003740000F0004040F0FE4040F40000704740F0C0
:10038400FE4040F4400070474FEA4102B2F1E043BE
:1003940024BFB3F5001CDCF1FE5C0DD901F0004C68
:1003A4004FEAC0024CEA5070B2F1004F40EB8300B8
:1003B40008BF20F00100704711F0804F21D113F1E4
:1003C4003872BCBF01F00040704741F480114FEA1D
:1003D4005252C2F11802C2F1200C10FA0CF320FAA6
:1003E40002F018BF40F001004FEAC1234FEAD323C3
:1003F40003FA0CFC40EA0C0023FA02F34FEA43032D
:10040400CCE77FEA625307D150EA01331EBF4FF0B5
:10041400FE4040F44000704701F0004040F0FE40D0
:1004240040F40000704700BF80F0004002E000BFCD
:1004340081F0004142001FBF5FEA410392EA030FCB
:100444007FEA226C7FEA236C6AD04FEA1262D2EB15
:100454001363C1BFD218414048404140B8BF5B421A
:10046400192B88BF704710F0004F40F4000020F0B3
:100474007F4018BF404211F0004F41F4000121F0C9
:100484007F4118BF494292EA030F3FD0A2F1010213
:1004940041FA03FC10EB0C00C3F1200301FA03F151
:1004A40000F0004302D5494260EB4000B0F5000F74
:1004B40013D3B0F1807F06D340084FEA310102F133
:1004C4000102FE2A51D2B1F1004F40EBC25008BFE5
:1004D40020F0010040EA03007047490040EB0000AF
:1004E400013A28BFB0F5000FEDD2B0FA80FCACF1B0
:1004F400080CB2EB0C0200FA0CF0AABF00EBC250DD
:1005040052421843BCBFD0401843704792F0000FCA
:1005140081F4000106BF80F400000132013BB5E71D
:100524004FEA41037FEA226C18BF7FEA236C21D093
:1005340092EA030F04D092F0000F08BF08467047F8
:1005440090EA010F1CBF0020704712F07F4F04D1C6
:10055400400028BF40F00040704712F100723CBFD9
:1005640000F50000704700F0004343F0FE4040F403
:10057400000070477FEA226216BF08467FEA2363C1
:100584000146420206BF5FEA412390EA010F40F4AC
:10059400800070474FF0000304E000BF10F00043F8
:1005A40048BF40425FEA000C08BF704743F09643DF
:1005B40001464FF000001CE050EA010208BF7047FA
:1005C4004FF000030AE000BF50EA010208BF704781
:1005D40011F0004302D5404261EB41015FEA010C96
:1005E40002BF84460146002043F0B64308BFA3F18E
:1005F4008053A3F50003BCFA8CF2083AA3EBC25370
:1006040010DB01FA02FC634400FA02FCC2F120028E
:10061400BCF1004F20FA02F243EB020008BF20F0C5
:100624000100704702F1200201FA02FCC2F120022B
:1006340050EA4C0021FA02F243EB020008BF20EA20
:10064400DC7070474FF0FF3C06E000BF4FF0010C38
:1006540002E000BF4FF0010C4DF804CD4FEA400218
:100664004FEA41037FEA226C18BF7FEA236C11D062
:1006740001B052EA530C18BF90EA010F58BFB2EB15
:10068400030088BFC81738BF6FEAE17018BF40F095
:10069400010070477FEA226C02D15FEA402C05D149
:1006A4007FEA236CE4D15FEA412CE1D05DF8040BCE
:1006B400704700BF844608466146FFE70FB5FFF761
:1006C400C9FF002848BF10F1000F0FBD4DF808ED19
:1006D400FFF7F4FF0CBF012000205DF808FB00BF0A
:1006E4004DF808EDFFF7EAFF34BF012000205DF864
:1006F40008FB00BF4DF808EDFFF7E0FF94BF0120B1
:1007040000205DF808FB00BF4DF808EDFFF7D2FFAD
:1007140094BF012000205DF808FB00BF4DF808EDF0
:10072400FFF7C8FF34BF012000205DF808FB00BFBD
:100734004FEA4002B2F1FE4F0FD34FF09E03B3EBEA
:1007440012620DD94FEA002343F0004310F0004F2A
:1007540023FA02F018BF404270474FF00000704780
:1007640012F1610F01D1420205D110F0004008BF1F
:100774006FF0004070474FF00000704700B583B041
:1007840000230093694601A803F076FA00990198C2
:1007940003F086FB03B05DF804FB00B585B001AA45
:1007A40002A903A803F056F9019A0299039803F0E9
:1007B40085FB05B05DF804FB08B5054B01221A70F2
:1007C40003F018FE0349002003F070F808BD00BFD1
:1007D40000000020D847000872B6FEE700B597B0C5
:1007E40000230F93119312930793089309930A9389
:1007F4000B930193029303930493059306930121AE
:100804000C914FF480320D920E93109102231393A6
:1008140014924FF4E01315930CA801F06BFCC0B9CB
:100824000F23079302210891002309934FF4806258
:100834000A920B9307A801F09BFE80B91023019341
:100844000023069301A801F06FFF70B917B05DF89B
:1008540004FB0949002003F029F8FFF7BDFF07490D
:10086400002003F023F8FFF7B7FF0549002003F049
:100874001DF8FFF7B1FF00BFE4470008F047000888
:10088400FC47000810B501F0E7FB3549002003F0F0
:100894000DF8FFF7A3FF3349002003F007F8324AAD
:1008A400536823F0E06343F000735360536823F00C
:1008B400C00343F0E06343F04003536000F064F886
:1008C40000F0F2F800F0F0F900F04EF900F046FA0A
:1008D40003F0AEF800F0C4FB4FF4165000F0DEFA5B
:1008E40003F024F803F068FA204802F0DFF96420EA
:1008F40001F0D6FB03F0A6F903F014FA1C4900201A
:1009040002F0D4FF4FF4FA6001F0CAFB0122194946
:100914004FF4FA6003F068FA012217494FF4FA60C1
:1009240003F062FA11E00022144B1A7014491420E7
:1009340003F05AFAE4B222461249002002F0B6FF4C
:10094400204603F03BFD03F07BFE00F0E9FA041EB1
:10095400F9DB0A4B1B78DBB2012BEBD1E3E700BFD9
:10096400084800081C48000800000140C80700208F
:1009740038480008810700089F070008000000208D
:10098400BD070008544800082DE9F04788B000244A
:1009940004940594069407943F4B9A6942F010021C
:1009A4009A619A6902F010020092009A9A6942F0E0
:1009B40020029A619A6902F020020192019A9A69CE
:1009C40042F004029A619A6902F004020292029AC5
:1009D4009A6942F008029A619B6903F00803039341
:1009E400039BDFF8BC8022460421404602F049F80C
:1009F400DFF8B09022460421484602F042F8274E20
:100A0400224640F20271304602F03BF8042304937C
:100A14000127059706940225079504A9404601F08D
:100A24000DFF41F20273049305970694079504A9F8
:100A3400304601F003FF4FF4827304930597069444
:100A440004A9484601F0FAFE4FF48079CDF81090DD
:100A540005954FF0030ACDF81CA004A9404601F007
:100A6400EDFE802304930595CDF81CA004A940460F
:100A740001F0E4FE2023049305970694079504A946
:100A8400304601F0DBFE22464946304601F0F9FFCC
:100A940008B0BDE8F08700BF00100240000C014020
:100AA400000801400010014008B50F480F4B0360D7
:100AB4004FF48273436000238360C36002220261A7
:100AC400012242614FF4007282611822C261036202
:100AD400436283620A23C36200F0EEFC00B908BDDE
:100AE400FFF77AFEFBE700BF28070020003800402C
:100AF40010B586B000230293039304930593026810
:100B0400174B9A4201D006B010BD03F5EC33DA69F5
:100B140042F48042DA61DA6902F480420092009A77
:100B24009A6942F008029A619B6903F008030193F1
:100B3400019B4FF420430293022303930323059361
:100B4400084C02A9204601F079FE4FF48043029339
:100B540000230393049302A9204601F06FFED2E719
:100B640000380040000C014000B583B0124BDA6934
:100B740042F01002DA61DB6903F010030193019B78
:100B84000E480F4B0360472343600023836040F209
:100B9400E732C260836102F0EBF950B900221146DA
:100BA400362001F095FF362001F0C6FF03B05DF852
:100BB40004FBFFF711FEF1E700100240C807002014
:100BC4000010004082B003680E4A934204D00E4ADB
:100BD40093420CD002B070470C4B9A6942F4006205
:100BE4009A619B6903F400630093009BF2E7074B4F
:100BF4009A6942F400529A619B6903F40053019389
:100C0400019BE7E7002C0140003401400010024042
:100C140030B587B0002302930393049305930368CC
:100C24001C4A934204D01C4A93421FD007B030BDE3
:100C34001A4B9A6942F004029A619B6903F0040317
:100C44000093009B4FF48073029302240394059451
:100C5400134D02A9284601F0F1FD80230293039469
:100C6400059402A9284601F0E9FDDFE70B4B9A69D8
:100C740042F010029A619B6903F010030193019BF7
:100C84008023029302230393059302A9054801F0EC
:100C9400D5FDCBE7002C0140003401400010024098
:100CA400000801400010014010B592B000241094D7
:100CB400119409940A940B940C940D940E940F942B
:100CC4002022214601A803F071FD2248224B036033
:100CD4002F23436084607223C36004614461846190
:100CE40002F072F900282CD100231093119310A95B
:100CF400184802F035FA38BB6023099300220A929F
:100D04000B920C920D920E920F9209A9114802F0C7
:100D1400BFF9E0B90023019302930393AD22049237
:100D240005934FF4005306934FF480430893094C02
:100D340001A9204602F050FA2046FFF769FF12B0DD
:100D440010BDFFF749FDCFE7FFF746FDD4E7FFF7F6
:100D540043FDDFE710080020002C014010B592B0DD
:100D640000241094119409940A940B940C940D94F7
:100D74000E940F942022214601A803F017FD234866
:100D8400234B0360446084604FF6FF73C3600461C7
:100D94004461846102F018F900282AD100231093D9
:100DA400119310A9194802F0DBF928BB60230993B9
:100DB40000230A930B930C930D930E930F93042229
:100DC40009A9124802F064F9C8B9002301930293F7
:100DD4000393049305934FF400520692089301A9D8
:100DE4000A4802F0F9F968B90848FFF711FF12B090
:100DF40010BDFFF7F1FCD1E7FFF7EEFCD6E7FFF7F4
:100E0400EBFCE2E7FFF7E8FCEEE700BF8007002019
:100E14000034014030B589B01E4B9A6942F001029A
:100E24009A619A6902F001020192019A9A6942F068
:100E340008029A619A6902F008020292029ADA6937
:100E440042F48022DA61DB6903F480230393039B79
:100E5400002406944FF48063049302230593032330
:100E640007930D4D04A9284601F0E8FC4FF40063F4
:100E740004930594069404A9284601F0DFFC224655
:100E84000121272001F024FE272001F055FE09B09E
:100E940030BD00BF00100240000C014010B50446F4
:100EA400FFF7B8FF0F48104B0360446000238360D2
:100EB400C36003610C2242618361C36100F0ADF938
:100EC40050B9084B1B68DA6842F02002DA605A69AC
:100ED40042F001025A6110BD0449002002F0E6FC10
:100EE400EFE700BFA0080020004800406048000869
:100EF40010B10A46014602B9704708B54FF0FF33F6
:100F040092B2024800F0B8F908BD00BFA008002062
:100F140020B108B5FFF7ECFF012008BD00207047A1
:100F24000E4B1A8892B20E4B1B889BB29A4211D078
:100F34000B4A13889BB20B49C85C13889BB20133DC
:100F44005942C3F30803C1F3080158BF4B429BB293
:100F5400138070474FF0FF30704700BF2802002015
:100F64002A02002028000020114B1B681A6812F086
:100F74002F0F1BD05968C9B20E4B1B889BB201338B
:100F84005A42C3F30803C2F3080258BF53429BB248
:100F9400094A128892B29A4208D010B405480288CD
:100FA40092B2064CA154038010BC7047704700BF36
:100FB400A0080020280200202A0200202800002087
:100FC40082B00D4B9A6942F004029A619A6902F068
:100FD40004020092009A9A6942F400729A619A6932
:100FE40002F400720192019A5A6822F4404242F4D7
:100FF40000425A6002B070470010024000B585B04C
:10100400002302930393012300930323019369466E
:10101400024801F013FC05B05DF804FB0008014030
:1010240070B584B00C4C0D4B23600025A56025736E
:1010340025756560012626614FF46023E36120462F
:1010440000F052FF019502960723039301A920465D
:1010540000F0C6FD04B070BD2C0200200024014045
:1010640008B5FFF7ADFFFFF7C9FFFFF7D9FF08BDCC
:1010740010B504460268074B9A4204D02368B3F1C2
:10108400804F03D010BD02F0D3FEF7E7024800F012
:1010940087FEF7E7001000409009002008B5022001
:1010A40001F0F6FC08BD000008B5024801F057FE47
:1010B40008BD00BF5808002008B5024800F009FD2B
:1010C40008BD00BF9009002008B5024801F047FEA2
:1010D40008BD00BFC8070020FEE7FEE7FEE7FEE705
:1010E400FEE770477047704708B500F0C7FF08BDBA
:1010F40082B00A4B9A6942F001029A619A6902F03D
:1011040001020092009ADA6942F08052DA61DB69E6
:1011140003F080530193019B02B07047001002401A
:1011240010B504460268136923F44053C1680B43A5
:10113400136183680269134342691A430168CB68E7
:1011440023F4B05323F00C031343CB6002685369B8
:1011540023F4407381690B4353610268124B9A4232
:101164001FD001F0C1FA00EB800303EB8303626834
:101174009200B3FBF2F20D48A0FB0231490964234B
:1011840003FB11231B013233A0FB03235B0903F090
:10119400F00202EB011203F00F03216813448B6089
:1011A40010BD01F0B1FADEE7003801401F85EB51B4
:1011B4002DE9F84305460F4616469946DDF820808A
:1011C4002C68246837EA04030CBF01240024B442C9
:1011D4001FD1B8F1FF3FF3D0B8F1000F05D000F0F4
:1011E40059FFA0EB09004045EAD92A68D36823F4E3
:1011F400D073D3602A68536923F001035361202319
:1012040085F83D3085F83E30002385F83C300320D6
:1012140000E00020BDE8F883704758B310B50446D9
:1012240090F83D300BB3242384F83D302268D36812
:1012340023F40053D3602046FFF772FF226813693A
:1012440023F4904313612268536923F02A03536102
:101254002268D36843F40053D36000202064202321
:1012640084F83D3084F83E3010BD80F83C30FFF700
:10127400D3FFD8E7012070472DE9F04182B01E4624
:1012840090F83D30DBB2202B54D104460D469046F5
:10129400002953D0002A53D090F83C30012B51D070
:1012A400012380F83C3000230364212380F83D307F
:1012B40000F0F0FE0746A4F82480A4F82680A36872
:1012C400B3F5805F05D04FF00008002384F83C306C
:1012D40012E0236913B14FF00008F6E7A846002591
:1012E400F3E738F8023B2268C3F308035360E28C47
:1012F40092B2013A92B2E284E38C9BB273B100964B
:101304003B46002280212046FFF752FFE0B9002D22
:10131400E7D015F8012B23685A60E8E700963B46AE
:10132400002240212046FFF743FF78B9202384F8A8
:101334003D3000E0022002B0BDE8F0810120FAE770
:101344000120F8E70220F6E70320F4E70320F2E7A0
:101354002DE9F04782B00546884617461E4600F040
:1013640099FE0A9B1B1A03EB060900F093FE8246C2
:101374002A4B1B68C3F3CB3309FB03F301932B689C
:101384009C6838EA04030CBF01240024BC4240D00A
:10139400B6F1FF3FF3D000F07DFEA0EB0A00484514
:1013A4000AD2B9F1000F07D0019A02B14A46019B53
:1013B400013B01939146E2E72A68536823F0E00376
:1013C40053606B68B3F5827F0BD0AB6AB3F5005FF3
:1013D40014D0012385F85130002385F850300320C0
:1013E40018E0AB68B3F5004F02D0B3F5806FECD1D1
:1013F4002A68136823F040031360E6E72A68136839
:1014040023F4005313602A68136843F400531360F1
:10141400DFE7002002B0BDE8F08700BF080000202D
:1014240010B582B004460B46009200228021FFF7DB
:101434008FFF08B902B010BD636D43F020036365EC
:101444000320F7E710B582B004460B464168B1F5B6
:10145400827F10D06168B1F5827F03D1A168B1F5B4
:10146400806F15D00092002280212046FFF770FF84
:10147400E0B902B010BD8168B1F5004F02D0B1F5FA
:10148400806FE7D12068016821F040010160E1E745
:101494000092002201212046FFF75AFF0028E8D0DD
:1014A400636D43F0200363650320E2E7636D43F05B
:1014B400200363650320DCE7002856D010B50446FA
:1014C400436A33B94368B3F5827F05D00023C3610F
:1014D40002E00023036143610023A36294F85130C6
:1014E400002B3CD0022384F851302268136823F087
:1014F40040031360636803F48273A26802F4044235
:101504001343E26802F400621343226902F0020208
:101514001343626902F001021343A26902F40072E8
:101524001343E26902F038021343226A02F0800294
:101534001343A26A02F40052216813430B60638BC5
:10154400226803F0040353602268D36923F4006320
:10155400D36100206065012384F8513010BD84F804
:1015640050302046FFF7C4FABCE7012070472DE94C
:10157400F04383B01D4690F85030012B00F0CC802E
:10158400044688469146012380F8503000F082FDDD
:10159400074694F85160F6B2012E40F0AA80B8F1E3
:1015A400000F00F0A780B9F1000F00F0A38003231F
:1015B40084F8513000236365C4F83080A4F8349073
:1015C400A4F83690A363A387E38763642364A368C2
:1015D400B3F5004F1ED023681A6812F0400F03D1F0
:1015E4001A6842F040021A60E368B3F5006F1CD039
:1015F400636813B1B9F1010F52D1226B23681278D9
:101604001A73236B01332363E38E9BB2013B9BB2BA
:10161400E38645E02268136823F0400313602268E0
:10162400136843F480431360D5E7636813B1B9F1D9
:10163400010F16D1226B23681288DA60236B023300
:101644002363E38E9BB2013B9BB2E38609E000F087
:1016540021FDC01BA84202D3B5F1FF3F54D1002D98
:1016640054D0E38E9BB2002B2ED023689A6812F0DC
:10167400020FECD0226B1288DA60236B02332363EF
:10168400E38E9BB2013B9BB2E386EAE700F002FDE6
:10169400C01BA84202D3B5F1FF3F39D1002D39D088
:1016A400E38E9BB283B123689A6812F0020FEDD0E7
:1016B400226B12781A73236B01332363E28E92B286
:1016C400013A92B2E286EBE73A4629462046FFF712
:1016D400A7FE08B120236365A36833B90193236887
:1016E400DA6801929B680193019B636D13B900262C
:1016F40000E00226012384F85130002384F850309E
:10170400304603B0BDE8F0830326F3E70326F1E790
:101714000326EFE70326EDE70226F1E72DE9F04380
:1017240083B01F460A9D90F85030012B00F01081C1
:10173400044688469146012380F8503000F0AAFC04
:10174400064694F85130DBB26268012B0AD0B2F538
:10175400827F40F0E380A268002A40F0E980042BF5
:1017640040F0E880B8F1000F00F0E680B9F1000F16
:1017740000F0E480002F00F0E38094F85130DBB2F5
:10178400042B02D0052384F8513000236365C4F888
:101794003890E787A787C4F83080E786A786236454
:1017A400636423681A6812F0400F03D11A6842F088
:1017B40040021A60E368B3F5006F11D063680BB19F
:1017C400012F0BD1226B236812781A73236B013318
:1017D4002363E38E9BB2013B9BB2E38601276BE05C
:1017E40063680BB1012F0BD1226B23681288DA6076
:1017F400236B02332363E38E9BB2013B9BB2E386EC
:1018040001271CE023689A6812F0010F0ED0E28FC2
:1018140092B25AB1DA68A36B1A80A36B0233A36342
:10182400E38F9BB2013B9BB2E387012700F032FCBC
:10183400801BA84203D3B5F1FF3F40F08380E38EC1
:101844009BB21BB9E38F9BB2002B53D023689A68D9
:1018540012F0020FD6D0E28E92B2002AD2D0002F1C
:10186400D0D0226B1288DA60236B02332363E38EB9
:101874009BB2013B9BB2E3860027C3E723689A68C7
:1018840012F0010F0ED0E28F92B25AB1DA68A36B54
:101894001A70A36B0133A363E38F9BB2013B9BB22A
:1018A400E387012700F0F6FB831BAB4202D3B5F1BB
:1018B400FF3F49D1002D49D0E38E9BB213B9E38F8A
:1018C4009BB2BBB123689A6812F0020FD6D0E28EA5
:1018D40092B2002AD2D0002FD0D0226B12781A7381
:1018E400236B01332363E38E9BB2013B9BB2E386FC
:1018F4000027C3E7324629462046FFF791FD48B941
:10190400A36863B901932368DA6801929B68019321
:10191400019B04E020236365012000E002200123F1
:1019240084F85130002384F8503003B0BDE8F083CC
:101934000220F4E70220F2E70120F0E70120EEE7BD
:101944000120ECE70320EAE70320E8E70320E6E7C9
:101954000220EAE72DE9F04383B004468846914625
:101964001D464368B3F5827F38D094F85030012B7C
:1019740000F0A880012384F8503000F08BFB074668
:1019840094F85160F6B2012E40F08980B8F1000F4E
:1019940000F08680B9F1000F00F08280042384F8FF
:1019A400513000236365C4F83880A4F83C90A4F84F
:1019B4003E902363A386E38623646364A368B3F53C
:1019C400004F18D023681A6812F0400F03D11A6828
:1019D40042F040021A60E36813B340E08368002BCE
:1019E400C3D1042380F85130009513460A46FFF70B
:1019F40095FE06465AE02268136823F040031360FC
:101A04002268136823F480431360DBE700F042FB91
:101A1400C01BA84202D3B5F1FF3F4BD1002D4BD0E0
:101A2400E38F9BB2002B2ED023689A6812F0010F2B
:101A3400ECD0A26B1B7B1370A36B0133A363E38F06
:101A44009BB2013B9BB2E387EAE700F023FBC01B98
:101A5400A84202D3B5F1FF3F30D1002D30D0E38F3F
:101A64009BB283B123689A6812F0010FEDD0DA6853
:101A7400A36B1A80A36B0233A363E28F92B2013A81
:101A840092B2E287EBE73A4629462046FFF7DAFCB2
:101A940008B120236365636D13B9002600E00226B4
:101AA400012384F85130002384F85030304603B0C9
:101AB400BDE8F0830326F3E70326F1E70326EFE707
:101AC4000326EDE70226F1E770470368D86C7047F8
:101AD400704710B5044603685A6812F0200F18D0F6
:101AE4001A6812F0020F14D0826A12F0100F03D198
:101AF400826A42F4007282629A6802F46022B2F549
:101B0400602F38D0204601F03FFF23686FF01202A7
:101B14001A6023685A6812F0800F22D01A6812F0F3
:101B2400040F1ED0A26A12F0100F03D1A26A42F46D
:101B34000052A2629A6802F4E042B2F5E04F31D05A
:101B44005A6812F4806F05D19A6802F46022B2F5E3
:101B5400602F24D0204601F03FFF23686FF00C0271
:101B64001A6023685A6812F0400F03D01B6813F000
:101B7400010F28D110BD227B002AC3D15A6822F05C
:101B840020025A60A36A23F48073A362A36A13F445
:101B9400805FB7D1A36A43F00103A362B2E7227B5B
:101BA400002AD7D15A6822F080025A60A36A23F42B
:101BB4008053A362A36A13F4807FCBD1A36A43F05A
:101BC4000103A362C6E7A36A43F48033A3622046F9
:101BD400FFF77EFF23686FF001021A60CAE7000076
:101BE40030B482B00022019290F82420012A00F03F
:101BF4008B800346012280F824204A68062A29D8CB
:101C04000568686B02EB8202053A1F24944020EABF
:101C140004000C6804FA02F202436A630A68092A9F
:101C240038D91D68E86802EB42021E3A0724944042
:101C340020EA04008C6804FA02F20243EA600A68AB
:101C4400103A012A34D90020002283F8242002B05B
:101C540030BC70470C2A0ED80568286B02EB820250
:101C6400233A1F24944020EA04000C6804FA02F288
:101C740002432A63D2E70568E86A02EB8202413A2A
:101C84001F24944020EA04000C6804FA02F2024380
:101C9400EA62C3E71D68286902EB42020724944004
:101CA40020EA04008C6804FA02F202432A61C6E7BF
:101CB4001A681648824205D09A6A42F020029A6253
:101CC4000120C1E7906810F4000F1BD1906840F424
:101CD400000090600A68102A01D00020B4E70C4A82
:101CE40012680C49A1FB0212920C02EB8202520010
:101CF400019202E0019A013A0192019A002AF9D173
:101D04000020A1E700209FE70220A0E70024014073
:101D14000800002083DE1B4330B583B00023019309
:101D240003689A6812F0010F32D104469A6842F0AF
:101D340001029A60184B1B68184AA2FB03239B0CF0
:101D44000193019B1BB1019B013B0193F9E700F057
:101D5400A1F9054623689B6813F0010F16D100F022
:101D640099F9431B022BF5D923689B6813F0010FE3
:101D7400F0D1A36A43F01003A362E36A43F00103C2
:101D8400E362002384F82430012002E0002000E014
:101D9400002003B030BD00BF0800002083DE1B43D9
:101DA40090F82430012B6DD010B50446012380F83F
:101DB4002430FFF7B1FF002860D1A36A23F47063D5
:101DC40023F0010343F48073A36223682E4A9342F1
:101DD4002CD0A26A22F48012A2625A6812F4806F94
:101DE40005D0A26A22F4405242F48052A262A26A4E
:101DF40012F4805F30D0E26A22F00602E26200222E
:101E040084F824206FF002021A602268536843F0B9
:101E14002003536023689A6802F46022B2F5602FAD
:101E24001DD09A6842F480129A602AE0A2F580627A
:101E3400526812F4702FCCD0A26A42F48012A262CB
:101E4400124A526812F4806FD1D0A26A22F440522E
:101E540042F48052A262CAE70022E262CFE70A4A51
:101E6400934204D09A6842F4A0029A6009E0A2F571
:101E74008062526812F4702FD3D1F3E7002384F800
:101E8400243010BD02207047002801400024014086
:101E940038B503689A6812F0010F01D1002038BDEB
:101EA40004469A6822F001029A6000F0F3F80546AD
:101EB40023689B6813F0010F13D000F0EBF8431B69
:101EC400022BF5D923689B6813F0010FF0D0A36AA5
:101ED40043F01003A362E36A43F00103E3620120C9
:101EE400DDE70020DBE70000002800F08680F8B57D
:101EF4000446836A002B50D02046FFF7C9FFA36A2B
:101F040013F0100373D1002871D1A26A22F488520D
:101F140022F0020242F00202A26262682668384994
:101F24008E4240D0E1690A43217B42EA4102A5681E
:101F3400B5F5807F02D0012D3CD01D46277D012FB1
:101F44003BD0716821F46941294371602568AE680A
:101F54002C4931401143A960A168B1F5807F01D0BB
:101F6400012902D12369013B1B052568E96A21F493
:101F740070010B43EB6223689968234B0B409A4230
:101F84002CD0A36A23F0120343F01003A362E36A84
:101F940043F00103E36201202EE0C36280F82430A1
:101FA400FFF792FDA8E7E169B1F5402FBBD14FF4EB
:101FB4000021B8E74FF48075C0E731B9A169013950
:101FC40045EA413141F40065BBE7A16A41F02001D3
:101FD400A162E16A41F00101E162B2E70023E36238
:101FE400A36A23F0030343F00103A36204E0A36A9A
:101FF40043F01003A3620120F8BD0120704700BF25
:10200400003C0140FDF7E1FFFE0E1FFF10B5044642
:102014000E4B18784FF47A73B3FBF0F30C4A106844
:10202400B0FBF3F000F096FD68B90F2C01D9012044
:102034000AE0002221464FF0FF3000F049FD054B35
:102044001C60002000E0012010BD00BF0100002042
:10205400080000200400002008B5074A136843F074
:1020640010031360032000F021FD0020FFF7CEFFD2
:10207400FFF73EF8002008BD00200240034A116823
:10208400034B1B780B441360704700BFE408002027
:1020940001000020014B1868704700BFE4080020CD
:1020A40038B50446FFF7F6FF0546B4F1FF3F02D00A
:1020B400044B1B781C44FFF7EDFF401BA042FAD3EE
:1020C40038BD00BF0100002082B0084B1B68084ADD
:1020D400A2FB03235B0A00FB03F3019300BF019BF4
:1020E4005A1E0192002BF9D102B07047080000205B
:1020F400D34D6210002800F0F18170B582B004461F
:10210400036813F0010F2CD0AA4B5B6803F00C0397
:10211400042B1DD0A74B5B6803F00C03082B12D0D3
:102124006368B3F5803F41D0002B55D103F1804360
:1021340003F504331A6822F480321A601A6822F410
:1021440080221A6037E09B4B5B6813F4803FE7D032
:10215400984B1B6813F4003F03D06368002B00F016
:10216400BF81236813F0020F75D0924B5B6813F0A4
:102174000C0F5FD08F4B5B6803F00C03082B54D01B
:102184002369002B00F089808B4B01221A60FFF732
:1021940081FF0546874B1B6813F0020F74D1FFF7CC
:1021A40079FF401B0228F5D903209EE1814A136878
:1021B40043F480331360636843B3FFF76BFF054652
:1021C4007C4B1B6813F4003FCBD1FFF763FF401B2C
:1021D4006428F5D9032088E1B3F5A02F09D0754B05
:1021E4001A6822F480321A601A6822F480221A6073
:1021F400E1E703F18043A3F53C331A6842F48022FB
:102204001A601A6842F480321A60D4E7FFF742FF7A
:102214000546684B1B6813F4003FA2D0FFF73AFF52
:10222400401B6428F5D903205FE1624B5B6813F41B
:10223400803FA5D15F4B1B6813F0020F03D02369C5
:10224400012B40F04F815B4A136823F0F803616966
:1022540043EAC1031360236813F0080F32D0A36963
:10226400002B45D0554B01221A60FFF713FF05469A
:10227400504B5B6A13F0020F21D1FFF70BFF401B99
:102284000228F5D9032030E14A4A136823F0F80301
:10229400616943EAC1031360DDE7474B00221A601A
:1022A400FFF7F8FE0546434B1B6813F0020FD2D02C
:1022B400FFF7F0FE401B0228F5D9032015E10120A9
:1022C400FFF702FF236813F0040F00F09780394BE7
:1022D400DB6913F0805F1DD1364BDA6942F080521E
:1022E400DA61DB6903F080530193019B012512E05D
:1022F400324B00221A60FFF7CDFE05462D4B5B6A78
:1023040013F0020FDED0FFF7C5FE401B0228F5D9FB
:102314000320EAE000252A4B1B6813F4807F11D0C8
:10232400E368012B22D0002B38D103F1804303F55D
:1023340004331A6A22F001021A621A6A22F00402B1
:102344001A6218E01E4A136843F480731360FFF79F
:10235400A1FE06461A4B1B6813F4807FE0D1FFF7F9
:1023640099FE801B6428F5D90320BEE0114A136A44
:1023740043F001031362E36873B3FFF78BFE064671
:102384000C4B1B6A13F0020F37D1FFF783FE801B3F
:1023940041F288339842F3D90320A6E0052B11D0EB
:1023A400044B1A6A22F001021A621A6A22F0040229
:1023B4001A62E0E7001002400000424280044242F8
:1023C400007000404D4B1A6A42F004021A621A6A05
:1023D40042F001021A62CEE7FFF75CFE0646474B65
:1023E4001B6A13F0020F08D0FFF754FE801B41F262
:1023F40088339842F3D9032077E0E5B9E369002BE9
:1024040072D03E4A526802F00C02082A56D0022BBF
:1024140017D03B4B00221A60FFF73CFE0446374BB3
:102424001B6813F0007F47D0FFF734FE001B02281F
:10243400F5D9032059E0314AD36923F08053D3619D
:10244400DCE72F4B00221A60FFF724FE05462B4BD6
:102454001B6813F0007F06D0FFF71CFE401B022808
:10246400F5D9032041E0236AB3F5803F1AD023490C
:102474004B6823F47413226A606A024313434B606B
:102484001F4B01221A60FFF705FE04461B4B1B6815
:1024940013F0007F0ED1FFF7FDFD001B0228F5D9D4
:1024A400032022E0154A536823F40033A1680B4348
:1024B4005360DCE7002018E0002016E0012B16D062
:1024C4000E4B5B6803F48031226A914211D103F40C
:1024D4007013626A93420ED1002006E00120704717
:1024E400012002E0012000E0002002B070BD0120C4
:1024F400FBE70120F9E70120F7E700BF00100240E5
:102504006000424286B0164B0FCB0DF1180C0CE95B
:102514000F0040F20123ADF80430124B5B6803F066
:102524000C02082A02D0104806B07047C3F3834255
:10253400624412F8102C13F4803F0CD0094B5B68F2
:10254400C3F34043634413F8143C074800FB02F010
:10255400B0FBF3F0E8E7054800FB02F0E4E700BF56
:10256400744800080010024000127A0000093D007F
:10257400002800F0A08070B50D460446524B1B683D
:1025840003F007038B420BD24F4A136823F007036F
:102594000B431360136803F007038B4240F08D80F4
:1025A400236813F0020F17D013F0040F04D0474A26
:1025B400536843F4E0635360236813F0080F04D0B6
:1025C400424A536843F460535360404A536823F0CB
:1025D400F003A1680B435360236813F0010F31D05B
:1025E4006368012B20D0022B25D0384A126812F0E0
:1025F400020F64D035494A6822F0030213434B604A
:10260400FFF748FD0646314B5B6803F00C03626834
:10261400B3EB820F16D0FFF73DFD801B41F28833E8
:102624009842F0D9032045E0284A126812F4003F8A
:10263400E0D101203EE0254A126812F0007FD9D192
:10264400012037E0204B1B6803F00703AB420AD993
:102654001D4A136823F007032B431360136803F028
:102664000703AB422DD1236813F0040F06D0174A99
:10267400536823F4E063E1680B435360236813F069
:10268400080F07D0114A536823F46053216943EAC1
:10269400C1035360FFF736FF0C4B5B68C3F30313AE
:1026A4000B4AD35CD8400B4B18600B4B1868FFF7F0
:1026B400ADFC002070BD012070470120FAE7012025
:1026C400F8E70120F6E700BF0020024000100240B6
:1026D400884800080800002004000020014B186806
:1026E400704700BF0800002008B5FFF7F7FF044B50
:1026F4005B68C3F30223034AD35CD84008BD00BF20
:10270400001002409848000808B5FFF7E7FF044BA3
:102714005B68C3F3C223034AD35CD84008BD00BF3F
:10272400001002409848000870B582B0044603685F
:1027340013F0010F34D03E4BDB6913F0805F47D1B7
:102744003B4BDA6942F08052DA61DB6903F0805373
:102754000193019B0125374B1B6813F4807F39D00B
:10276400334B1B6A13F4407311D0626802F4407255
:102774009A420CD02E4A136A23F440702E49012643
:102784000E6000260E60106213F0010F36D1284A45
:10279400136A23F4407361680B431362002D3ED126
:1027A400236813F0020F06D0214A536823F44043F0
:1027B400A1680B435360236813F0100F34D01C4AF4
:1027C400536823F4800361690B43536000202CE0B9
:1027D4000025C0E7174A136843F480731360FFF7BA
:1027E40059FC0646134B1B6813F4807FB8D1FFF7DE
:1027F40051FC801B6428F5D9032016E0FFF74AFC3E
:1028040006460B4B1B6A13F0020FC0D1FFF742FCC4
:10281400801B41F288339842F3D9032005E0D36941
:1028240023F08053D361BBE7002002B070BD00BF2A
:10283400001002400070004040044242F0B482B0F4
:1028440000252C46ABE0854FBB4210D007D9844FFE
:10285400BB420CD007F58037BB4208D013E0A7F584
:102864008017BB4203D007F57027BB4207D18B68A2
:10287400002B60D0012B59D04261082503E0A7F555
:102884008017BB42F3D0FF2E57D88446FF2E57D86B
:10289400A200DCF800300F27974023EA070305FA6B
:1028A40002F21343CCF800304B6813F0805F75D00C
:1028B4006C4B9A6942F001029A619B6903F001032F
:1028C4000193019BA208971C674B53F827C004F09F
:1028D40003039F000F23BB402CEA030C634B984275
:1028E40034D003F58063984200F0948003F580634C
:1028F400984200F0918003F58063984200F08E8046
:1029040003F58063984200F08B8003F5806398425E
:102914001AD006231BE0CD68B5E7CD680435B2E7CD
:10292400CD680835AFE7CD680C35ACE70261082502
:10293400A9E70025A7E70425A5E700F1040CA5E70E
:10294400A4F108029200A4E7052300E00023BB40A1
:1029540043EA0C030232444F47F822304B6813F425
:10296400803F5FD0424A1368334313604B6813F4CB
:10297400003F5DD03E4A5368334353604B6813F4C1
:10298400801F5BD03A4A9368334393604B6813F4D7
:10299400001F59D0364AD3681E43D66001340B68F1
:1029A40033FA04F256D00122A24003EA020632EAC4
:1029B4000303F3D14B68122B3FF645AF122B3FF6BE
:1029C40062AF01A757F823F0732800081B290008F9
:1029D40025290008372900088B2800088B280008BF
:1029E4008B2800088B2800088B2800088B280008F7
:1029F4008B2800088B2800088B2800088B280008E7
:102A04008B2800088B2800088B2800081F29000841
:102A14002B29000801239AE7022398E7032396E76A
:102A2400042394E7124A136823EA060313609DE71C
:102A34000F4A536823EA060353609FE70C4A9368DE
:102A440023EA06039360A1E7094AD36823EA06064A
:102A5400D660A3E702B0F0BC704700BF00002210AC
:102A64000000311000100240000001400008014045
:102A7400000401408368194201D0012070470020FE
:102A840070470AB101617047090401617047000091
:102A940008B5054B5B69034200D108BD024B586180
:102AA40000F05AFFF9E700BF00040140074AD36869
:102AB40023F4E0631B041B0C000200F4E0600343F6
:102AC40043F0BF6343F40033D360704700ED00E08C
:102AD40030B4174BDB68C3F30223C3F10704042C9F
:102AE40028BF04241D1D062D18D9033B4FF0FF35C4
:102AF40005FA04F421EA0401994005FA03F322EAF1
:102B04000303194300280BDB0901C9B200F160403B
:102B140000F5614080F8001330BC70470023E5E7FE
:102B240000F00F000901C9B2024B1954F4E700BFC9
:102B340000ED00E014ED00E0002807DB00F01F02C8
:102B4400400901239340024A42F82030704700BFF5
:102B540000E100E00138B0F1807F0AD2064B5860F2
:102B6400064AF02182F823100020986007221A6098
:102B740070470120704700BF10E000E000ED00E066
:102B840030B4036A23F001030362056A426884696E
:102B940024F073040B681C4325F002058B682B4357
:102BA400104DA84203D005F50065A84205D123F0D5
:102BB4000803CD682B4323F004030A4DA84203D035
:102BC40005F50065A84205D122F440724D6915430C
:102BD4008A692A43426084614A684263036230BC62
:102BE400704700BF002C014030B4036A23F48073A3
:102BF4000362036A4268C46924F073040D682C43B9
:102C040023F400738D6843EA0523124DA84203D0D0
:102C140005F50065A84206D123F40063CD6843EAB4
:102C2400052323F480630B4DA84203D005F500650A
:102C3400A84207D122F440524D6942EA05128D6937
:102C440042EA05124260C4614A68C263036230BC4E
:102C5400704700BF002C014030B4036A23F4805352
:102C64000362036A4468C26922F4E6420D6842EAD8
:102C7400052223F400538D6843EA0533094DA84225
:102C840003D005F50065A84204D124F480444D69BD
:102C940044EA85144460C2614A680264036230BC39
:102CA400704700BF002C01407047000090F83D3091
:102CB400DBB2012B2FD1022380F83D300268D368A8
:102CC40043F00103D3600368154A934218D002F518
:102CD4000062934214D0B3F1804F11D0A2F5983220
:102CE40093420DD002F58062934209D002F58062CE
:102CF400934205D01A6842F001021A60002070471E
:102D04009A6802F00702062A07D01A6842F0010204
:102D14001A6000207047012070470020704700BFF0
:102D2400002C01400268D36823F00103D3600368D8
:102D3400196A41F21112114208D1196A40F244424F
:102D4400114203D11A6822F001021A60012380F8AB
:102D54003D3000207047704770477047704710B58A
:102D6400044603681A6912F0020F11D0DA6812F0EF
:102D7400020F0DD06FF002021A610123037703687A
:102D84009B6913F0030F70D0FFF7E6FF002323774E
:102D940023681A6912F0040F12D0DA6812F0040FD3
:102DA4000ED06FF004021A610223237723689B6913
:102DB40013F4407F5FD02046FFF7CEFF0023237734
:102DC40023681A6912F0080F12D0DA6812F0080F9B
:102DD4000ED06FF008021A61042323772368DB699D
:102DE40013F0030F4ED02046FFF7B6FF00232377DE
:102DF40023681A6912F0100F12D0DA6812F0100F5B
:102E04000ED06FF010021A61082323772368DB6960
:102E140013F4407F3DD02046FFF79EFF0023237725
:102E240023681A6912F0010F03D0DA6812F0010F57
:102E340036D123681A6912F0800F03D0DA6812F0D1
:102E4400800F34D123681A6912F0400F03D0DA6876
:102E540012F0400F32D123681A6912F0200F03D008
:102E6400DA6812F0200F30D110BDFFF774FF20464E
:102E7400FFF773FF8AE72046FFF76DFF2046FFF751
:102E84006CFF9BE72046FFF766FF2046FFF765FFD0
:102E9400ACE72046FFF75FFF2046FFF75EFFBDE784
:102EA4006FF001021A612046FEF7E2F8C1E76FF005
:102EB40080021A61204600F0B9F9C3E76FF04002BE
:102EC4001A612046FFF74AFFC5E76FF020021A6136
:102ED400204600F0AAF9C7E70368244A904212D0BA
:102EE40002F5006290420ED0B0F1804F0BD0A2F5F3
:102EF4009832904207D002F58062904203D002F5E6
:102F04008062904203D123F070034A681343174A46
:102F1400904212D002F5006290420ED0B0F1804F80
:102F24000BD0A2F59832904207D002F5806290420D
:102F340003D002F58062904203D123F44073CA683F
:102F4400134323F080034A69134303608B68C3620D
:102F54000B688362054B984203D003F500639842E3
:102F640001D10B690363012343617047002C0140C5
:102F740040B310B5044690F83D30F3B1022384F811
:102F84003D30214651F8040BFFF7A6FF012384F8D6
:102F9400463084F83E3084F83F3084F8403084F87A
:102FA400413084F8423084F8433084F8443084F863
:102FB400453084F83D30002010BD80F83C30FFF7E8
:102FC40073FEDBE70120704740B310B5044690F868
:102FD4003D30F3B1022384F83D30214651F8040B0F
:102FE400FFF77AFF012384F8463084F83E3084F8F2
:102FF4003F3084F8403084F8413084F8423084F81B
:10300400433084F8443084F8453084F83D3000205F
:1030140010BD80F83C30FDF7D5FDDBE7012070479B
:1030240030B4036A23F010030362036A44688269BC
:1030340022F4E6420D6842EA052223F020038D685B
:1030440043EA0513114DA84203D005F50065A842D3
:1030540006D123F08003CD6843EA051323F040032F
:103064000A4DA84203D005F50065A84207D124F40F
:1030740040644D6944EA85048D6944EA85044460EA
:1030840082614A688263036230BC7047002C01404D
:1030940038B590F83C30012B60D004460D4601232E
:1030A40080F83C300C2A1AD8DFE802F00719191905
:1030B4001D1919193119191944000068FFF760FD29
:1030C4002268936943F0080393612268936923F0AB
:1030D400040393612268936929690B439361002077
:1030E40084F83C0038BD0068FFF79AFF22689369B2
:1030F40043F4006393612268936923F480639361CA
:1031040022689369296943EA01239361E7E7006828
:10311400FFF76AFD2268D36943F00803D36122688C
:10312400D36923F00403D3612268D36929690B436B
:10313400D361D4E70068FFF78FFD2268D36943F4B5
:103144000063D3612268D36923F48063D361226866
:10315400D369296943EA0123D361C0E70220C1E7A7
:1031640090F83C30012B33D030B4012380F83C304C
:10317400022380F83D3003685C689D6824F0700485
:103184000A6822435A600368124A934212D002F535
:10319400006293420ED0B3F1804F0BD0A2F5983267
:1031A400934207D002F58062934203D002F5806215
:1031B400934204D125F080054A6815439D6001239C
:1031C40080F83D30002380F83C30184630BC70470E
:1031D40002207047002C014090F83C30012B22D093
:1031E400012380F83C30CB6823F440738A6813438E
:1031F40023F480634A68134323F400630A68134387
:1032040023F480530A69134323F400534A69134394
:1032140023F48043CA69134302685364002380F88B
:103224003C3018467047022070477047704770471B
:103234000369C268934204D88068801A0344581E04
:1032440070479B1A581E70472DE9F8430446884678
:103254001646C5688768A7EB0509914507D94068F4
:10326400284401F095FA3544E560BDE8F8834068E8
:103274004A46284401F08CFAED1B35442A4608EBF3
:103284000901606801F084FAE560EEE72DE9F8438E
:10329400064688461746C5684FF0000918E0641BC7
:1032A400621EB3685C1B944228BF1446BC4228BF0C
:1032B4003C46706822464146284401F069FAA1441C
:1032C400A0443F1B2544B368AB4209D0F5604FB11D
:1032D4003469A542E3D3B268641B1444621EE0E778
:1032E4000025F3E74846BDE8F8830000114B0322AC
:1032F4001A615A6110499961104ADA614FF4806287
:103304001A6200229A625A62DA6219660C49596694
:10331400102199661A67DA665A670A4A1068C3F870
:103324000700094A92E803001860998020229A71E4
:10333400704700BFE8080020A04800086C02002085
:103344005C020020AC480008B0480008F8B50F46FD
:103354001646451C05EB4505164B03EBC50500EB6E
:10336400400003EBC000C46A012C11D0022C1CD015
:1033740014B100242046F8BD2846FFF759FF8642C1
:10338400F8D8324639462846FFF75EFF3446F1E75F
:103394002846FFF74DFF3446864228BF044622469E
:1033A40039462846FFF750FFE4E72846FFF76EFF4B
:1033B4000446DFE7E8080020F8B504460D46164643
:1033C400094B1B786BB1EFF311874FF0200181F3A8
:1033D4001188324629462046FFF7B8FF87F3118843
:1033E400F8BDFFF783FFEEE7E808002010B50446B8
:1033F4008268531C4068834205D820688154A360C6
:10340400E3680133E360A26863689A4200D010BDA8
:1034140021682069FFF7D0FFA368984203D04FF0DA
:10342400FF33E360F3E70023A360F0E72DE9F84FEF
:1034340081460F4615461E46DDF828A00B9A0B461A
:103444004FF00108AB4204D3B3FBF5F308F10108D4
:10345400F8E7B04500D2B04612F0010B18D1BAF12A
:10346400000F15D012F0020F02D0BEB1202400E0EC
:103474002024BAF1000F0BD0C24509D90AF1FF3A52
:1034840021464846FFF7B2FFD9F80C30002BF0DA9A
:10349400D9F80C30002B25DB012407E03024E8E7C1
:1034A400B7FBF4F39D4206D805FB04F4012EF7D9CB
:1034B400013EF9E71C46B7FBF4F304FB1377124A09
:1034C400D15C4846FFF792FFD9F80C30002B03DBA0
:1034D400B4FBF5F3AC42EDD2BBF1000F02D0BAF16C
:1034E400000F01D1BDE8F88FBAF1000FFAD0C24540
:1034F400F8D90AF1FF3A20214846FFF777FFD9F8B7
:103504000C30002BF0DAEDE7B84800082DE9F04F55
:1035140083B08046894616469A460C9FDDF834B03F
:1035240081EAE174A4EBE1740125A64203DC94FB77
:10353400F6F40135F9E7554500D2554637B1B9F1EE
:10354400000F02DB1BF0040F00D0013F1BF0020F41
:1035540002D0BAF1000F03D01BF0010F00D1C7B99C
:10356400D8F80C30002B11DBB9F1000F1FDB1BF076
:10357400040F23D1D8F80C30002B07DB0BF0030326
:10358400022B20D0D8F80C30002B2FDA03B0BDE882
:10359400F08F002FE4D0AF42E2D9013F2021404612
:1035A400FFF724FFD8F80C30002BF2DAD8E7C9F182
:1035B40000092D214046FFF719FFDBE72B21404688
:1035C400FFF714FFD6E7BAF1000FDBD1002FD9D0F3
:1035D400002FD7D0AF42D5D9013F30214046FFF765
:1035E40005FFD8F80C30002BF2DACBE7CDF804B0A5
:1035F40000975346324649464046FFF717FFC5E752
:103604002DE9F04798B007460C46164603AB1393D2
:1036140040231493002315931790169397E00025E5
:10362400012211E045F0010501340CE045F00205EA
:10363400013408E045F00405013404E045F00805D0
:10364400013400E000221AB32378233B0D2BF9D870
:1036540001A151F823F000BF4136000849360008A3
:10366400493600084936000849360008493600083A
:10367400493600084936000839360008493600083A
:103684002936000849360008493600083136000852
:103694004FF000082378A3F13002D2B2092A07D8E8
:1036A400013408EB880803EB4803A3F13008F1E781
:1036B4002E2B03D04FF00009237812E001344FF091
:1036C40000092378A3F13002D2B2092AF4D80134D4
:1036D40009EB890903EB4909A9F13009F1E714F869
:1036E400013F6C2BFBD0682BF9D0252B7ED029D33E
:1036F400782B27D8462B25D3463B322B22D8DFE81C
:1037040003F07A212121212121212121212121219B
:10371400212121214C212121212121212121211A71
:1037240032217A212121212121212121682121599C
:10373400213F21214C0033681A1D3260197813A8E7
:10374400FFF754FE0134169B002BC0F2988014F846
:10375400011B002900F0938025293FF460AF13A8D2
:10376400FFF744FEEFE733681A1D326019680195CC
:10377400CDF800804B460A2213A8FFF7C7FEE1E705
:1037840033681A1D326019680195CDF800804B46E4
:103794000A2213A8FFF74AFED4E733681A1D3260E1
:1037A40019680195CDF800804B46102213A8FFF745
:1037B4003DFEC7E733681A1D32601D6815F8011B0A
:1037C4000029BFD013A8FFF711FE169B002BF5DAD2
:1037D400B8E733681A1D326019680023019308237F
:1037E4000093102213A8FFF721FEABE7252113A8AD
:1037F400FFF7FCFDA6E73368073323F0070303F163
:1038040008023260D3E90001FCF7BEFD82460021C4
:10381400FCF766FF70BB5046FCF78AFF0195CDF8B4
:1038240000804B460A2280EAE071A1EBE07113A804
:10383400FFF76CFE2E2113A8FFF7D8FD1949504657
:10384400FCF7EEFCFCF774FF0028B8BF4042164BAF
:1038540083FB0023C117C1EBA3110195CDF80080B0
:1038640003230A224FF47A7505FB110113A8FFF70D
:103874004DFE67E72D2113A8FFF7B8FDCBE7169B94
:10388400002B05DD159A3AB9159A169B1344169325
:10389400169818B0BDE8F08703A93846FFF78CFDE9
:1038A400F2E700BF00007A44D34D62100EB400B5B5
:1038B40082B003AB53F8041B019301AAFFF7A0FEE7
:1038C40002B05DF804EB03B070470000064AD36809
:1038D40043F08073D360054B00225A601A6842F0AB
:1038E40001021A60704700BFF0ED00E0001000E034
:1038F400074B1B68074AA2FB03239B0C00FB03F046
:10390400054B5A68044B5B689B1A8342FAD3704791
:103914000800002083DE1B43001000E0024B1B68FC
:1039240000225A63704700BF1008002008B5FFF753
:10393400F5FF002204210648FFF7A3F800224FF404
:1039440080710448FFF79DF8FFF7C0FF08BD00BF72
:103954000008014000100140022800D0704708B55B
:103964000023064A1370064A1370064803686FF072
:1039740001021A61FFF79AF908BD00BF6D06002025
:103984006C0600205808002002680F4B9A4200D0B1
:10399400704710B5FEF799F880B2B0F5FA6F94BF8E
:1039A4000020012009490B789840094C22781043E3
:1039B40020700133DBB20B70072B00D810BD054813
:1039C400FFF7B0F9FAE700BF002401406C060020BD
:1039D4006D060020580800207047000000B583B031
:1039E40000F07F008DF804008DF8051000224FF4DC
:1039F40080510C48FFF745F84FF0FF33022201A92C
:103A04000948FDF7B4FD40B901224FF4805105483F
:103A1400FFF737F803B05DF804FB04490020FFF713
:103A240045FFF1E7000C014028070020C8480008C2
:103A340008B50A20FEF734FB0A212C20FFF7CEFF3D
:103A44000A213120FFF7CAFF08212D20FFF7C6FF06
:103A540008BD00002DE9F04182B080460F461646AD
:103A6400F2238DF80730254C00224FF48051204674
:103A7400FFF707F8224D4FF0FF3301220DF1070144
:103A84002846FDF774FD4FF0FF33062269462846A9
:103A9400FDF760FF01224FF480512046FEF7F1FF4D
:103AA4009DF801301B021BB29DF800009DF80350E5
:103AB4002D022DB29DF8022015439DF805402402E5
:103AC40024B29DF8042014431843FCF767FD0D4904
:103AD400FCF7A6FBC8F800002846FCF75FFD09497F
:103AE400FCF79EFB38602046FCF758FD0549FCF7BF
:103AF40097FB306002B0BDE8F08100BF000C0140CC
:103B04002807002024977F3B00B585B00423009349
:103B1400112301930023029303230393694603486B
:103B2400FEF78CFE05B05DF804FB00BF00100140F9
:103B340000B585B0002303930422009201930293FD
:103B440069460348FEF77AFE05B05DF804FB00BF42
:103B54000010014008B5FFF7CBFE08BD10B5FFF714
:103B6400D3FF0A4C002204212046FEF78AFF4FF4BB
:103B74004870FFF7EFFF012204212046FEF781FF82
:103B84001E20FFF7E7FFFFF7D3FF10BD0010014031
:103B940010B504210C48FEF76DFF0028F9D000246D
:103BA40004210948FEF766FF012806D10134642C7C
:103BB40003D80120FFF7CEFFF2E7142C01D8002030
:103BC40010BD0120FCE700BF0010014038B50725F7
:103BD400002007E04000C4B2FFF7DAFF2043C0B280
:103BE400013D6DB2002DF5DA38BD000010B500249A
:103BF40004211248FEF73EFF012806D10134642C4B
:103C040019D80120FFF7A6FFF2E7002404210B488E
:103C1400FEF730FF034630B90134642C09D8012083
:103C2400FFF798FFF2E7224605490020FFF73EFE22
:103C34000123184610BD0023FBE700BF001001401C
:103C4400E848000800B583B0094B9A6942F01002B5
:103C54009A619B6903F010030193019BFFF754FFE2
:103C6400012204210348FEF70CFF03B05DF804FBB6
:103C74000010024000100140F0B583B006460D4626
:103C8400002300938DF80430FFF768FFFFF7AEFFC1
:103C940010B9012003B0F0BD3220FFF729FE002443
:103CA400042C08D8FFF792FF02AB234403F8080C56
:103CB4000134E4B2F4E79DF804109DF800009DF887
:103CC400012083189DF802703B449DF8034023446F
:103CD400DBB2994221D142EA0020FCF75FFC104993
:103CE400FCF79EFA286044EA0724204614F4004FA7
:103CF40007D1FCF753FC0A49FCF792FA3060002024
:103D0400C8E7C4F30E00FCF749FC0549FCF788FA40
:103D140000F1004030600020BCE70220BAE700BF99
:103D2400CDCCCC3DF0B587B0002404941F4B9A69E8
:103D340042F004029A619A6902F004020092009A25
:103D44009A6942F008029A619B6903F0080301939F
:103D5400019B302302930127039703230593144DFA
:103D640002A92846FEF76AFD124E2246202130465B
:103D7400FEF787FE402302930394049402A9284685
:103D8400FEF75CFD3846FEF78BF9224610212846E3
:103D9400FEF777FE224620212846FEF772FE2246D1
:103DA40020213046FEF76DFE07B0F0BD0010024042
:103DB40000080140000C01400023072B11DC10B463
:103DC400084C03EB83029000221800212154516017
:103DD4009160D160012111740B44072BF0DD10BCFC
:103DE40070477047700600200023072B1ADCF0B4DC
:103DF40003EB83040D4D15F8244034B10133072B34
:103E0400F6DD4FF0FF30F0BC704703EB830605EBA3
:103E14008604012705F826706060A060E1602274C2
:103E240058B2F0E74FF0FF30704700BF7006002033
:103E340010B500240CE0194B13445A689A6006E04C
:103E440004EB84029100154A0A44013B9360013457
:103E5400072C22DC04EB84029300104AD35C002B71
:103E6400F5D004EB84039A000C4B13449B68002B9D
:103E7400E6D10A4B1344DB6803B1984704EB84038F
:103E84009A00064B13441B7C012BD4D004EB840210
:103E94009300024A0021D154D9E710BD70060020D6
:103EA400014B18605960704710070020024B1A68D4
:103EB40002605B680B60704710070020024B98603B
:103EC400D9601A61704700BF1007002010B4044B7A
:103ED4009C680460D86808601B69136010BC704754
:103EE40010070020032803D9102803D101207047AC
:103EF400012070470020704730B5A1B005460C463C
:103F04000A460146684600F043FC2146284600F074
:103F1400DDFB631CDBB220AA2244010A02F8801CE8
:103F24000234E4B220AA134403F8800C0C4D01229D
:103F34004FF480712846FEF7A4FD0320FEF7B0F885
:103F440021466846FCF7E4FF0520FEF7A9F80022A5
:103F54004FF480712846FEF794FD21B030BD00BFB8
:103F6400000C014000B583B00023052B08D8084A93
:103F7400D15C02AA1A4402F8081C0133DBB2F4E74C
:103F840006216846FFF7B8FF03B05DF804FB00BFE5
:103F9400C009002000B583B00A4B1A788DF80420BC
:103FA4005B7863F07F038DF805308DF806000321FC
:103FB40001A8FFF7A1FF04490020FFF777FC03B035
:103FC4005DF804FBC0090020F848000838B51B4B15
:103FD400002283F821209B7F082B0AD0174B032251
:103FE40083F82120154B93F8210020BBFFF7BAFF7B
:103FF40038BD134D284600F063FB0446A81C00F0AE
:104004005FFB012812D840F201139C42EAD0B4F5B8
:10401400817FE7D040F203139C42E3D0B4F5827F62
:10402400E0D0064B022283F82120DBE7AB1E0322FB
:1040340083F82120D6E7FFF7ADFFD9E7C0090020B8
:10404400C209002038B5144B002283F821209B7F3D
:10405400082B0AD0104B032283F821200E4B93F82F
:104064002100A8B9FFF77EFF38BD0C4D284600F0AB
:1040740027FB0446A81C00F023FB01462046FFF75B
:1040840031FF0128EAD0AB1E022283F82120E5E7A4
:10409400FFF780FFE8E700BFC0090020C209002045
:1040A400F8B51B4B002283F821209B7F0A2B0AD8EA
:1040B400174B032283F82120154B93F8210020BBD2
:1040C400FFF750FFF8BD134C204600F0F9FA0746FD
:1040D400A01C00F0F5FA0646002401E00134E4B225
:1040E400A5B2B542E8D2630007330948184400F08A
:1040F400E7FA01463D44A8B2FFF7F4FE0128EDD0EB
:10410400034B022283F82120D6E7FFF743FFD9E7C8
:10411400C0090020C2090020344B002283F821206A
:104124009B7F082B04D0314B032283F82120704756
:1041340070B584B02E4C204600F0C2FA0546A01C8F
:1041440000F0BEFAC41D20D4E610C4F3CF04B5F5C4
:10415400807F04D918B10544B5F5837F17DB234B61
:10416400022283F82120214B93F82100002839D121
:104174001A7883F822205A7883F82320032283F8BC
:10418400A22083F82460002322E00734DCE7002324
:10419400A34207D204AA1A44002102F80C1C0133DA
:1041A4009BB2F5E7002301E001339BB28342FBD3CA
:1041B400D9E70E4A92F8A210481C82F8A20004A87B
:1041C400184410F80C0C0A4482F8220001339BB204
:1041D400A342EED3054890F8A2102230FFF78CFEDC
:1041E40004B070BDFFF7D6FEFAE700BFC009002097
:1041F400C2090020344B002283F821209B7F082B26
:1042040004D0314B032283F82120704770B584B069
:104214002E4C204600F054FA0546A01C00F050FA3B
:10422400C41D20D4E610C4F3CF04B5F5007F04D92F
:1042340018B10544B5F5017F17DD234B022283F83D
:104244002120214B93F82100002839D11A7883F8D2
:1042540022205A7883F82320032283F8A22083F8AB
:104264002460002322E00734DCE70023A34207D2C2
:1042740004AA1A44002102F80C1C01339BB2F5E78E
:10428400002301E001339BB28342FBD3D9E70E4AFA
:1042940092F8A210481C82F8A20004A8184410F84E
:1042A4000C0C0A4482F8220001339BB2A342EED3E1
:1042B400054890F8A2102230FFF71EFE04B070BD2E
:1042C400FFF768FEFAE700BFC0090020C20900201A
:1042D40070B586B0002601960296ADF80C60354B99
:1042E40083F821609B7F082B16D0324B032283F87E
:1042F4002120304B93F82100002857D11A7883F8F5
:1043040022205A7883F82320032283F8A220720003
:1043140083F8242000223FE0274D284600F0D0F9FE
:104324000446A81C00F0CCF90646B4F5806F05D904
:1043340020B1221840F202439A4215DD1D4B02229D
:1043440083F82120D5E70134A4B201339BB2B342F0
:10435400CFD240F201429442F5D0002106AA02EBEA
:10436400430222F8141CEEE70023F0E706AB03EB4C
:10437400420333F8145C0F4B93F8A240611CC9B29A
:104384001C44280A84F82200481C83F8A2000B4429
:1043940083F82250013292B29642E7D8054890F849
:1043A400A2102230FFF7A8FD06B070BDFFF7F2FDA2
:1043B400FAE700BFC0090020C20900200A4B00220E
:1043C4001A700A4B9B7F1D2B00D9704710B5044609
:1043D400024607490020FFF769FA044B9A7F511CF3
:1043E40099779C5410BD00BF24070020C009002009
:1043F40008490008014B01221A7070472407002065
:10440400704710B586B00C460023049301930A2824
:104414006ED8DFE800F0060F18212A343E48525CBB
:10442400660004A905A8FFF741FD0598FFF7E8FF1A
:10443400000C57E004A905A8FFF738FD0598FFF71D
:10444400DFFF80B24EE004A905A8FFF72FFD049812
:10445400FFF7D6FF000C45E004A905A8FFF726FDE9
:104464000498FFF7CDFF80B23CE001AA02A903A89B
:10447400FFF72CFD0398FFF7C3FF000C32E001AAFD
:1044840002A903A8FFF722FD0398FFF7B9FF80B242
:1044940028E001AA02A903A8FFF718FD0298FFF774
:1044A400AFFF000C1EE001AA02A903A8FFF70EFD4E
:1044B4000298FFF7A5FF80B214E001AA02A903A89D
:1044C400FFF704FD0198FFF79BFF000C0AE001AA27
:1044D40002A903A8FFF7FAFC0198FFF791FF80B245
:1044E40000E00020030A23706070012006B010BDB4
:1044F4000020FBE770B590B0344B002283F82120F4
:104504009B7F082B17D0314B032283F821200025F1
:104514002E4B93F82100002855D11A7883F82220D5
:104524005A7883F82320032283F8A2206A0083F8B0
:10453400242000233DE0264C204600F0C1F8064626
:10454400A01C00F0BDF8054620280DD80024AC427C
:10455400DED20DEB44013046FFF753FF48B101367C
:10456400B6B20134A4B2F2E7A31E032283F82120D9
:10457400CEE7164B022283F82120C9E75900134ADB
:1045840092F8A200441CE4B210AE06EB430616F8FF
:10459400406C104480F822600131601C82F8A20053
:1045A40010A8014411F8401C224482F8221001335F
:1045B4009BB29D42E2D8054890F8A2102230FFF742
:1045C4009BFC10B070BDFFF7E5FCFAE7C0090020C2
:1045D400C209002010B5184C627818490020FFF772
:1045E40065F96378013B0F2B1ED8DFE803F0080B55
:1045F4000E1114171D1D1D1D1D1D1D1D1D1AFFF758
:104604008BFD10BDFFF7F6FDFBE7FFF773FFF8E73F
:10461400FFF75EFEF5E7FFF7D9FCF2E7FFF712FDBF
:10462400EFE7FFF73DFDECE70120034B83F82100A2
:10463400FFF7B0FCE5E700BFC009002014490008FB
:1046440008B5184B1B78FBB1164B00221A70164B99
:104654009B7F032B11D915490020FFF727F9124836
:10466400817F00F033F880B90F4B1B78012B11D0F8
:104674000F490020FFF71AF903E00E491046FFF72F
:1046840015F9094B00229A7708BD0B490020FFF762
:104694000DF9F6E7FFF79EFF08490020FFF706F93A
:1046A400EFE700BF24070020C009002030490008BC
:1046B4004449000824490008384900084C490008C6
:1046C4000278407840EA02207047000030B4FF25A9
:1046D4002C464B1E9AB249B110F8013B6340054980
:1046E400CC5C6C400449CD5C1146F2E745EA0420F9
:1046F40030BC704754490008544A00080C480D491E
:104704000D4A002302E0D458C4500433C4188C4228
:10471400F9D30A4A0A4C002301E013600432A2428E
:10472400FBD3FEF784FD00F00FF8FCF7ABF87047FD
:10473400000000200C0000205C4B00080C0000204E
:10474400640A0020FEE7000070B500260C4D0D4CF5
:10475400641BA410A64209D100F030F800260A4DCB
:104764000A4C641BA410A64205D170BD55F8043B45
:1047740098470136EEE755F8043B98470136F2E7CF
:10478400544B0008544B0008544B0008584B000885
:104794000A44914200F1FF3300D1704710B511F87B
:1047A400014B914203F8014FF9D110BD0346024475
:1047B400934200D1704703F8011BF9E7F8B500BF35
:1047C400F8BC08BC9E467047F8B500BFF8BC08BCEE
:0447D4009E46704746
:1047D800746573745F72656C6F650A006572726FD9
:1047E8007220310A000000006572726F7220320A6E
:1047F800000000006572726F7220330A000000002A
:1048080068616C5F696E697420737563636573733F
:104818000A00000073797374656D636C6F636B20B5
:10482800696E697420737563636573730A000000A9
:104838007065726970686572616C20696E69742050
:10484800737563636573730A0000000064617461C3
:104858002069732025780A00756172745F696E6932
:10486800745F6572726F720A00000000020304052B
:10487800060708090A0B0C0D0E0F101000000000A7
:1048880000000000000000000102030406070809F8
:1048980000000000010203045465726D696E616CCA
:1048A8000000000052545400534547474552000049
:1048B800303132333435363738394142434445464E
:1048C80077726974655F7265675F7370695F747228
:1048D800616E736D6974206572726F720A000000F0
:1048E8007473737373732069732025640A0000005E
:1048F80073656E645F61636B5F6572720A000000C6
:10490800627974652069732025780A006D6F647375
:104918002069732025640A20000000005278436F44
:10492800756E740A00000000686572650A00000070
:104938006572725F7265740A0000000061646472D7
:104948000A00000074686572650A000000C18140B1
:1049580001C0804101C0804100C1814001C0804147
:1049680000C1814000C1814001C0804101C0804137
:1049780000C1814000C1814001C0804100C1814027
:1049880001C0804101C0804100C1814001C0804117
:1049980000C1814000C1814001C0804100C1814007
:1049A80001C0804101C0804100C1814000C18140F7
:1049B80001C0804101C0804100C1814001C08041E7
:1049C80000C1814000C1814001C0804101C08041D7
:1049D80000C1814000C1814001C0804100C18140C7
:1049E80001C0804101C0804100C1814000C18140B7
:1049F80001C0804101C0804100C1814001C08041A7
:104A080000C1814000C1814001C0804100C1814096
:104A180001C0804101C0804100C1814001C0804186
:104A280000C1814000C1814001C0804101C0804176
:104A380000C1814000C1814001C0804100C1814066
:104A480001C0804101C0804100C1814000C0C10156
:104A5800C30302C2C60607C705C5C404CC0C0DCDE6
:104A68000FCFCE0E0ACACB0BC90908C8D81819D956
:104A78001BDBDA1A1EDEDF1FDD1D1CDC14D4D51586
:104A8800D71716D6D21213D311D1D010F03031F176
:104A980033F3F23236F6F737F53534F43CFCFD3DA6
:104AA800FF3F3EFEFA3A3BFB39F9F83828E8E92996
:104AB800EB2B2AEAEE2E2FEF2DEDEC2CE42425E546
:104AC80027E7E62622E2E323E12120E0A06061A1B6
:104AD80063A3A26266A6A767A56564A46CACAD6D66
:104AE800AF6F6EAEAA6A6BAB69A9A86878B8B979D6
:104AF800BB7B7ABABE7E7FBF7DBDBC7CB47475B506
:104B080077B7B67672B2B373B17170B050909151F5
:104B18009353529296565797559594549C5C5D9D25
:104B28005F9F9E5E5A9A9B5B995958988848498915
:104B38004B8B8A4A4E8E8F4F8D4D4C8C44848545C5
:0C4B4800874746868242438341818040BB
:044B5400090200084A
:044B5800E50100086B
:0C4B5C0001010000100000000024F40023
:0400000508004701A7
:00000001FF
