:020000040800F2
:1000000000C0002081300008E90D0008EB0D000859
:10001000ED0D0008EF0D0008F10D000800000000D4
:10002000000000000000000000000000F30D0008C8
:10003000F50D000800000000F70D0008F90D00089C
:10004000C9300008C9300008C9300008C9300008AC
:10005000C9300008C9300008C9300008BD0D0008CB
:10006000C9300008C9300008C9300008C93000088C
:10007000C9300008C9300008C9300008C93000087C
:10008000C9300008C9300008D90D0008C93000087F
:10009000C9300008C9300008C9300008C93000085C
:1000A000C9300008C9300008C9300008C93000084C
:1000B000C90D0008C9300008C9300008C93000085F
:1000C000C9300008C9300008C9300008C93000082C
:1000D000C9300008C9300008C9300008C93000081C
:1000E000C9300008C9300008C9300008C93000080C
:1000F000C9300008C9300008C9300008C9300008FC
:10010000C9300008C9300008C9300008C9300008EB
:10011000C9300008C9300008C9300008C9300008DB
:10012000C9300008C9300008C9300008C9300008CB
:1001300000000000000000000000000000000000BF
:1001400000000000000000000000000000000000AF
:10015000000000000000000000000000000000009F
:10016000000000000000000000000000000000008F
:10017000000000000000000000000000000000007F
:10018000000000000000000000000000000000006F
:10019000000000000000000000000000000000005F
:1001A000000000000000000000000000000000004F
:1001B000000000000000000000000000000000003F
:1001C000000000000000000000000000000000002F
:1001D000000000000000000000000000000000001F
:0401E0005FF8E0F1F3
:1001E40010B5054C237833B9044B13B10448AFF36D
:1001F40000800123237010BD0C00002000000000CB
:100204004031000808B5034B1BB103490348AFF361
:10021400008008BD000000001000002040310008EC
:100224004FEA4102B2F1E04324BFB3F5001CDCF114
:10023400FE5C0DD901F0004C4FEAC0024CEA50704C
:10024400B2F1004F40EB830008BF20F0010070477B
:1002540011F0804F21D113F13872BCBF01F000407E
:10026400704741F480114FEA5252C2F11802C2F1B0
:10027400200C10FA0CF320FA02F018BF40F0010031
:100284004FEAC1234FEAD32303FA0CFC40EA0C00E3
:1002940023FA02F34FEA4303CCE77FEA625307D120
:1002A40050EA01331EBF4FF0FE4040F44000704757
:1002B40001F0004040F0FE4040F40000704700BFF1
:1002C4004FF0FF0C1CEAD0521EBF1CEAD15392EA35
:1002D4000C0F93EA0C0F6FD01A4480EA010C400211
:1002E40018BF5FEA41211ED04FF0006343EA50106B
:1002F40043EA5111A0FB01310CF00040B1F5000FAD
:100304003EBF490041EAD3715B0040EA010062F15B
:100314007F02FD2A1DD8B3F1004F40EBC25008BF45
:1003240020F00100704790F0000F0CF0004C08BF63
:1003340049024CEA502040EA51207F3AC2BFD2F130
:10034400FF0340EAC250704740F400004FF000033E
:10035400013A5DDC12F1190FDCBF00F00040704778
:10036400C2F10002410021FA02F1C2F1200200FAB6
:1003740002FC5FEA310040F1000053EA4C0308BF7D
:1003840020EADC70704792F0000F00F0004C02BFCE
:10039400400010F4000F013AF9D040EA0C0093F049
:1003A400000F01F0004C02BF490011F4000F013BA3
:1003B400F9D041EA0C018FE70CEAD15392EA0C0F11
:1003C40018BF93EA0C0F0AD030F0004C18BF31F07C
:1003D400004CD8D180EA010000F00040704790F052
:1003E400000F17BF90F0004F084691F0000F91F0F6
:1003F400004F14D092EA0C0F01D142020FD193EABC
:100404000C0F03D14B0218BF084608D180EA010043
:1004140000F0004040F0FE4040F40000704740F01F
:10042400FE4040F4400070474FF0FF0C1CEAD052ED
:100434001EBF1CEAD15392EA0C0F93EA0C0F69D049
:10044400A2EB030280EA010C49024FEA402037D0B4
:100454004FF0805343EA111143EA10130CF00040AB
:100464008B4238BF5B0042F17D024FF4000C8B429B
:1004740024BF5B1A40EA0C00B3EB510F24BFA3EB7B
:10048400510340EA5C00B3EB910F24BFA3EB91034B
:1004940040EA9C00B3EBD10F24BFA3EBD10340EAA5
:1004A400DC001B0118BF5FEA1C1CE0D1FD2A3FF6EB
:1004B40050AF8B4240EBC25008BF20F001007047A0
:1004C4000CF0004C4CEA50207F32C2BFD2F1FF0343
:1004D40040EAC250704740F400004FF00003013A74
:1004E40037E792F0000F00F0004C02BF400010F418
:1004F400000F013AF9D040EA0C0093F0000F01F02C
:10050400004C02BF490011F4000F013BF9D041EA4D
:100514000C0195E70CEAD15392EA0C0F08D1420280
:100524007FF47DAF93EA0C0F7FF470AF084676E753
:1005340093EA0C0F04D14B023FF44CAF08466EE72C
:1005440030F0004C18BF31F0004CCAD130F00042FA
:100554007FF45CAF31F000437FF43CAF5FE700BF52
:100564004FF0FF3C06E000BF4FF0010C02E000BF7B
:100574004FF0010C4DF804CD4FEA40024FEA41031D
:100584007FEA226C18BF7FEA236C11D001B052EAD3
:10059400530C18BF90EA010F58BFB2EB030088BF99
:1005A400C81738BF6FEAE17018BF40F00100704708
:1005B4007FEA226C02D15FEA402C05D17FEA236CEA
:1005C400E4D15FEA412CE1D05DF8040B704700BF31
:1005D400844608466146FFE70FB5FFF7C9FF0028C8
:1005E40048BF10F1000F0FBD4DF808EDFFF7F4FF01
:1005F4000CBF012000205DF808FB00BF4DF808ED9A
:10060400FFF7EAFF34BF012000205DF808FB00BFBC
:100614004DF808EDFFF7E0FF94BF012000205DF8DE
:1006240008FB00BF4DF808EDFFF7D2FF94BF01208F
:1006340000205DF808FB00BF4DF808EDFFF7C8FF88
:1006440034BF012000205DF808FB00BF4FEA4002E0
:10065400B2F1FE4F0FD34FF09E03B3EB12620DD9EC
:100664004FEA002343F0004310F0004F23FA02F056
:1006740018BF404270474FF00000704712F1610FFD
:1006840001D1420205D110F0004008BF6FF00040D4
:1006940070474FF00000704772B6FEE700B597B0A0
:1006A40000230F93119312930793089309930A93CA
:1006B4000B930193029303930493059306930121EF
:1006C4000C914FF480320D920E93109102231393E8
:1006D40014924FF4E01315930CA800F00DFFC0B969
:1006E4000F23079302210891002309934FF480629A
:1006F4000A920B9307A801F03DF980B910230193E6
:100704000023069301A801F0EBF970B917B05DF866
:1007140004FB0949002002F0F5FAFFF7BDFF074981
:10072400002002F0EFFAFFF7B7FF0549002002F0BE
:10073400E9FAFFF7B1FF00BF58310008643100083F
:100744007031000808B500F089FE1D49002002F050
:10075400D9FA1C4A536823F0E06343F000735360F2
:10076400FFF79CFF1849002002F0CCFA00F030F8A3
:1007740000F0AAF800F020FA00F078FA00F0C0FACD
:1007840002F0AAFB02F002FB02F0FDFB0F4900207D
:1007940002F0B8FA102002F04FFC052000F082FEAF
:1007A400AB21102002F0F6FB052000F07BFE1020A8
:1007B40002F018FC4FF47A7000F074FEEAE700BF10
:1007C4007C3100080000014090310008AC31000881
:1007D4002DE9F04389B00024049405940694079409
:1007E400354B9A6942F010029A619A6902F010023C
:1007F4000092009A9A6942F020029A619A6902F082
:1008040020020192019A9A6942F004029A619A695B
:1008140002F004020292029A9A6942F008029A6172
:100824009B6903F008030393039B244E224604218F
:10083400304601F002FBDFF888802246042140465E
:1008440001F0FBFADFF87C90224640F20271484640
:1008540001F0F3FA04230493012705970694022573
:10086400079504A9304601F0C5F941F202730493D7
:1008740005970694079504A9484601F0BBF9049529
:100884000597069404A9404601F0B4F94FF4807327
:10089400049305950324079404A9304601F0AAF9AA
:1008A400802304930595079404A9304601F0A2F926
:1008B40009B0BDE8F08300BF001002400008014009
:1008C40000100140000C014008B50F480F4B0360B5
:1008D4004FF48273436000238360C3600222026189
:1008E400012242614FF4007282611822C2610362E4
:1008F400436283620A23C36200F012FB00B908BD9D
:10090400FFF7CAFEFBE700BF3C04002000380040AC
:1009140010B586B0002302930393049305930268F1
:10092400174B9A4201D006B010BD03F5EC33DA69D7
:1009340042F48042DA61DA6902F480420092009A59
:100944009A6942F008029A619B6903F008030193D3
:10095400019B4FF420430293022303930323059343
:10096400084C02A9204601F045F94FF48043029354
:1009740000230393049302A9204601F03BF9D2E734
:1009840000380040000C01402DE9F04184B00024FF
:100994000294302300934FF00108CDF80480032320
:1009A4000393134D6946284601F024F92026009646
:1009B400104F6946384601F01DF940230093019415
:1009C40002946946284601F015F922463146284624
:1009D40001F033FA42461021284601F02EFA22464D
:1009E4003146384601F029FA04B0BDE8F08100BF71
:1009F40000080140000C0140F8B507464C1E0025D4
:100A04000DE000222021174801F017FA00222021CE
:100A1400154801F012FA012002F096F9013C002C6D
:100A24001DDB27FA04F202F0010220210E4801F036
:100A340004FA012002F088F90A4E012220213046EE
:100A440001F0FBF9012002F07FF96D0040213046EE
:100A540001F0ECF90028D4D045F00105D1E728468F
:100A6400F8BD00BF00080140000C014084B00368D9
:100A7400154A934207D0154A93420FD0144A934221
:100A840017D004B07047134B9A6942F400629A611C
:100A94009B6903F400630193019BF2E70D4BDA6950
:100AA40042F00202DA61DB6903F002030293029B63
:100AB400E7E7084B9A6942F400529A619B6903F490
:100AC40000530393039BDCE7002C01400004004027
:100AD400003401400010024010B588B00023049394
:100AE40005930693079303682C4A934207D02C4A34
:100AF400934219D02B4A93423BD008B010BD2A4BE5
:100B04009A6942F004029A619B6903F0040300931A
:100B1400009B4FF48073049302230593079304A965
:100B2400224801F067F8E8E71F4B9A6942F0040293
:100B34009A619A6902F004020192019A9A6942F058
:100B440008029A619B6903F008030293029B8023C5
:100B5400049302240594079404A9144801F04AF864
:100B6400012304930594079404A9114801F042F861
:100B7400C3E70D4B9A6942F010029A619B6903F036
:100B840010030393039B8023049302230593079389
:100B940004A9084801F02EF8AFE700BF002C01407B
:100BA40000040040003401400010024000080140ED
:100BB400000C01400010014010B592B000241094C4
:100BC400119409940A940B940C940D940E940F941C
:100BD4002022214601A802F0A9FA2248224B0360F0
:100BE4004723436084600923C360046144618461D2
:100BF40001F08AFB002829D100231093119310A936
:100C0400184801F0D9FC20BB6023099300220A9202
:100C14000B920C920D920E920F9209A9114801F0B9
:100C2400D7FBC8B90023019302930393049305935C
:100C34004FF400520692089301A90A4801F0F8FC07
:100C440068B90848FFF748FF12B010BDFFF724FD4C
:100C5400D2E7FFF721FDD7E7FFF71EFDE2E7FFF735
:100C64001BFDEEE724050020002C014000B58BB0ED
:100C74000023089309930193029303930493059328
:100C8400069307931C481D4A026047224260836012
:100C94000922C2600361836101F036FB00BB0023BB
:100CA4000893099308A9144801F086FCD8B9602375
:100CB4000193002302930393059304220DEB020195
:100CC4000D4801F085FB88B9082201A90A4801F002
:100CD4007FFB70B90848FFF7FFFE0BB05DF804FB1B
:100CE400FFF7DAFCDBE7FFF7D7FCE0E7FFF7D4FC1C
:100CF400EAE7FFF7D1FCEDE7DC0400200004004044
:100D040010B592B000241094119409940A940B9491
:100D14000C940D940E940F942022214601A802F005
:100D240005FA2348234B0360446084604FF6FF7345
:100D3400C36004614461846101F0E6FA00282AD1A9
:100D440000231093119310A9194801F035FC28BB16
:100D54006023099300230A930B930C930D930E9332
:100D64000F93042209A9124801F032FBC8B90023E9
:100D7400019302930393049305934FF40052069254
:100D8400089301A90A4801F053FC68B90848FFF721
:100D9400A3FE12B010BDFFF77FFCD1E7FFF77CFC88
:100DA400D6E7FFF779FCE2E7FFF776FCEEE700BF52
:100DB400940400200034014008B5022001F044F8F6
:100DC40008BD000008B5024801F095F908BD00BF50
:100DD4006C05002008B5024800F0D8F908BD00BF32
:100DE40060060020FEE7FEE7FEE7FEE7FEE7704749
:100DF4007047704708B500F043FB08BD82B00A4B4A
:100E04009A6942F001029A619A6902F00102009221
:100E1400009ADA6942F08052DA61DB6903F08053A8
:100E24000193019B02B07047001002402DE9F04786
:100E340082B00546884617461E4600F02DFB0A9BE5
:100E44001B1A03EB060900F027FB82462A4B1B689A
:100E5400C3F3CB3309FB03F301932B689C6838EA93
:100E640004030CBF01240024BC4240D0B6F1FF3F70
:100E7400F3D000F011FBA0EB0A0048450AD2B9F107
:100E8400000F07D0019A02B14A46019B013B01932E
:100E94009146E2E72A68536823F0E00353606B68E5
:100EA400B3F5827F0BD0AB6AB3F5005F14D0012396
:100EB40085F85130002385F85030032018E0AB68E2
:100EC400B3F5004F02D0B3F5806FECD12A681368F4
:100ED40023F040031360E6E72A68136823F4005301
:100EE40013602A68136843F400531360DFE700209B
:100EF40002B0BDE8F08700BF0800002010B582B042
:100F040004460B46009200228021FFF78FFF08B9A8
:100F140002B010BD636D43F0200363650320F7E75F
:100F2400002856D010B50446436A33B94368B3F574
:100F3400827F05D00023C36102E000230361436183
:100F44000023A36294F85130002B3CD0022384F890
:100F540051302268136823F040031360636803F47C
:100F64008273A26802F404421343E26802F400624A
:100F74001343226902F002021343626902F0010280
:100F84001343A26902F400721343E26902F03802C7
:100F94001343226A02F080021343A26A02F400524D
:100FA400216813430B60638B226803F004035360CE
:100FB4002268D36923F40063D361002060650123B0
:100FC40084F8513010BD84F850302046FFF7A0FC5F
:100FD400BCE7012070472DE9F04383B01D4690F82B
:100FE4005030012B00F0CC80044688469146012302
:100FF40080F8503000F050FA074694F85160F6B289
:10100400012E40F0AA80B8F1000F00F0A780B9F1DA
:10101400000F00F0A380032384F85130002363659C
:10102400C4F83080A4F83490A4F83690A363A3875E
:10103400E38763642364A368B3F5004F1ED0236879
:101044001A6812F0400F03D11A6842F040021A6085
:10105400E368B3F5006F1CD0636813B1B9F1010FF5
:1010640052D1226B236812781A73236B01332363E2
:10107400E38E9BB2013B9BB2E38645E02268136892
:1010840023F0400313602268136843F48043136021
:10109400D5E7636813B1B9F1010F16D1226B236848
:1010A4001288DA60236B02332363E38E9BB2013B25
:1010B4009BB2E38609E000F0EFF9C01BA84202D31B
:1010C400B5F1FF3F54D1002D54D0E38E9BB2002BD9
:1010D4002ED023689A6812F0020FECD0226B12888B
:1010E400DA60236B02332363E38E9BB2013B9BB232
:1010F400E386EAE700F0D0F9C01BA84202D3B5F1B9
:10110400FF3F39D1002D39D0E38E9BB283B12368E0
:101114009A6812F0020FEDD0226B12781A73236BC7
:1011240001332363E28E92B2013A92B2E286EBE794
:101134003A4629462046FFF7E1FE08B120236365BD
:10114400A36833B901932368DA6801929B68019319
:10115400019B636D13B9002600E00226012384F885
:101164005130002384F85030304603B0BDE8F0839A
:101174000326F3E70326F1E70326EFE70326EDE76B
:101184000226F1E70368D86C7047704710B504462F
:1011940003685A6812F0200F18D01A6812F0020F70
:1011A40014D0826A12F0100F03D1826A42F40072E2
:1011B40082629A6802F46022B2F5602F38D0204629
:1011C40001F036FE23686FF012021A6023685A6831
:1011D40012F0800F22D01A6812F0040F1ED0A26AF7
:1011E40012F0100F03D1A26A42F40052A2629A686C
:1011F40002F4E042B2F5E04F31D05A6812F4806F45
:1012040005D19A6802F46022B2F5602F24D02046FA
:1012140001F036FE23686FF00C021A6023685A68E6
:1012240012F0400F03D01B6813F0010F28D110BD3A
:10123400227B002AC3D15A6822F020025A60A36A92
:1012440023F48073A362A36A13F4805FB7D1A36A03
:1012540043F00103A362B2E7227B002AD7D15A6884
:1012640022F080025A60A36A23F48053A362A36A23
:1012740013F4807FCBD1A36A43F00103A362C6E7D2
:10128400A36A43F48033A3622046FFF77EFF2368FA
:101294006FF001021A60CAE730B583B000230193EE
:1012A40003689A6812F0010F32D104469A6842F03A
:1012B40001029A60184B1B68184AA2FB03239B0C7B
:1012C4000193019B1BB1019B013B0193F9E700F0E2
:1012D400E3F8054623689B6813F0010F16D100F06C
:1012E400DBF8431B022BF5D923689B6813F0010F2D
:1012F400F0D1A36A43F01003A362E36A43F001034D
:10130400E362002384F82430012002E0002000E09E
:10131400002003B030BD00BF0800002083DE1B4363
:1013240090F82430012B6DD010B50446012380F8C9
:101334002430FFF7B1FF002860D1A36A23F470635F
:1013440023F0010343F48073A36223682E4A93427B
:101354002CD0A26A22F48012A2625A6812F4806F1E
:1013640005D0A26A22F4405242F48052A262A26AD8
:1013740012F4805F30D0E26A22F00602E2620022B8
:1013840084F824206FF002021A602268536843F044
:101394002003536023689A6802F46022B2F5602F38
:1013A4001DD09A6842F480129A602AE0A2F5806205
:1013B400526812F4702FCCD0A26A42F48012A26256
:1013C400124A526812F4806FD1D0A26A22F44052B9
:1013D40042F48052A262CAE70022E262CFE70A4ADC
:1013E400934204D09A6842F4A0029A6009E0A2F5FC
:1013F4008062526812F4702FD3D1F3E7002384F88B
:10140400243010BD02207047002801400024014010
:1014140010B504460E4B18784FF47A73B3FBF0F30F
:101424000C4A1068B0FBF3F000F062FD68B90F2CB1
:1014340001D901200AE0002221464FF0FF3000F0DC
:1014440023FD054B1C60002000E0012010BD00BFFF
:1014540000000020080000200400002008B5074A0E
:10146400136843F010031360032000F0FBFC00201A
:10147400FFF7CEFFFFF7C2FC002008BD00200240AA
:10148400034A1168034B1B780B441360704700BF79
:10149400B405002000000020014B1868704700BF0D
:1014A400B405002038B50446FFF7F6FF0546B4F14D
:1014B400FF3F02D0044B1B781C44FFF7EDFF401B99
:1014C400A042FAD338BD00BF0000002082B0084B10
:1014D4001B68084AA2FB03235B0A00FB03F3019386
:1014E40000BF019B5A1E0192002BF9D102B0704734
:1014F40008000020D34D6210002800F0F18170B57F
:1015040082B00446036813F0010F2CD0AA4B5B6829
:1015140003F00C03042B1DD0A74B5B6803F00C03F2
:10152400082B12D06368B3F5803F41D0002B55D10E
:1015340003F1804303F504331A6822F480321A60FD
:101544001A6822F480221A6037E09B4B5B6813F41C
:10155400803FE7D0984B1B6813F4003F03D06368C7
:10156400002B00F0BF81236813F0020F75D0924B5B
:101574005B6813F00C0F5FD08F4B5B6803F00C03B8
:10158400082B54D02369002B00F089808B4B012257
:101594001A60FFF781FF0546874B1B6813F0020FA3
:1015A40074D1FFF779FF401B0228F5D903209EE18F
:1015B400814A136843F480331360636843B3FFF7CD
:1015C4006BFF05467C4B1B6813F4003FCBD1FFF740
:1015D40063FF401B6428F5D9032088E1B3F5A02FED
:1015E40009D0754B1A6822F480321A601A6822F402
:1015F40080221A60E1E703F18043A3F53C331A68C3
:1016040042F480221A601A6842F480321A60D4E7E5
:10161400FFF742FF0546684B1B6813F4003FA2D056
:10162400FFF73AFF401B6428F5D903205FE1624BC2
:101634005B6813F4803FA5D15F4B1B6813F0020F66
:1016440003D02369012B40F04F815B4A136823F0D8
:10165400F803616943EAC1031360236813F0080FB8
:1016640032D0A369002B45D0554B01221A60FFF7F5
:1016740013FF0546504B5B6A13F0020F21D1FFF7AD
:101684000BFF401B0228F5D9032030E14A4A1368B6
:1016940023F0F803616943EAC1031360DDE7474BB4
:1016A40000221A60FFF7F8FE0546434B1B6813F04F
:1016B400020FD2D0FFF7F0FE401B0228F5D9032019
:1016C40015E10120FFF702FF236813F0040F00F077
:1016D4009780394BDB6913F0805F1DD1364BDA6993
:1016E40042F08052DA61DB6903F080530193019B7D
:1016F400012512E0324B00221A60FFF7CDFE0546A9
:101704002D4B5B6A13F0020FDED0FFF7C5FE401BC2
:101714000228F5D90320EAE000252A4B1B6813F4BC
:10172400807F11D0E368012B22D0002B38D103F144
:10173400804303F504331A6A22F001021A621A6A1A
:1017440022F004021A6218E01E4A136843F48073FC
:101754001360FFF7A1FE06461A4B1B6813F4807F43
:10176400E0D1FFF799FE801B6428F5D90320BEE081
:10177400114A136A43F001031362E36873B3FFF77A
:101784008BFE06460C4B1B6A13F0020F37D1FFF792
:1017940083FE801B41F288339842F3D90320A6E0EC
:1017A400052B11D0044B1A6A22F001021A621A6A3C
:1017B40022F004021A62E0E70010024000004242F4
:1017C40080044242007000404D4B1A6A42F0040209
:1017D4001A621A6A42F001021A62CEE7FFF75CFE4F
:1017E4000646474B1B6A13F0020F08D0FFF754FE5E
:1017F400801B41F288339842F3D9032077E0E5B99E
:10180400E369002B72D03E4A526802F00C02082AA7
:1018140056D0022B17D03B4B00221A60FFF73CFE38
:101824000446374B1B6813F0007F47D0FFF734FEA4
:10183400001B0228F5D9032059E0314AD36923F06B
:101844008053D361DCE72F4B00221A60FFF724FE9C
:1018540005462B4B1B6813F0007F06D0FFF71CFED8
:10186400401B0228F5D9032041E0236AB3F5803FE9
:101874001AD023494B6823F47413226A606A024322
:1018840013434B601F4B01221A60FFF705FE044609
:101894001B4B1B6813F0007F0ED1FFF7FDFD001BEF
:1018A4000228F5D9032022E0154A536823F40033B3
:1018B400A1680B435360DCE7002018E0002016E029
:1018C400012B16D00E4B5B6803F48031226A9142DF
:1018D40011D103F47013626A93420ED1002006E022
:1018E40001207047012002E0012000E0002002B046
:1018F40070BD0120FBE70120F9E70120F7E700BFF5
:10190400001002406000424286B0164B0FCB0DF12E
:10191400180C0CE90F0040F20123ADF80430124B0F
:101924005B6803F00C02082A02D0104806B0704726
:10193400C3F38342624412F8102C13F4803F0CD09A
:10194400094B5B68C3F34043634413F8143C0748F2
:1019540000FB02F0B0FBF3F0E8E7054800FB02F0FF
:10196400E4E700BFC83100080010024000127A000A
:1019740000093D00002800F0A08070B50D46044623
:10198400524B1B6803F007038B420BD24F4A136878
:1019940023F007030B431360136803F007038B4220
:1019A40040F08D80236813F0020F17D013F0040F5A
:1019B40004D0474A536843F4E0635360236813F048
:1019C400080F04D0424A536843F460535360404ABA
:1019D400536823F0F003A1680B435360236813F0AA
:1019E400010F31D06368012B20D0022B25D0384A57
:1019F400126812F0020F64D035494A6822F00302DB
:101A040013434B60FFF748FD0646314B5B6803F018
:101A14000C036268B3EB820F16D0FFF73DFD801B09
:101A240041F288339842F0D9032045E0284A1268ED
:101A340012F4003FE0D101203EE0254A126812F082
:101A4400007FD9D1012037E0204B1B6803F0070346
:101A5400AB420AD91D4A136823F007032B431360D2
:101A6400136803F00703AB422DD1236813F0040F6E
:101A740006D0174A536823F4E063E1680B435360CC
:101A8400236813F0080F07D0114A536823F46053F6
:101A9400216943EAC1035360FFF736FF0C4B5B68CF
:101AA400C3F303130B4AD35CD8400B4B18600B4BA6
:101AB4001868FFF7ADFC002070BD012070470120BD
:101AC400FAE70120F8E70120F6E700BF0020024012
:101AD40000100240DC31000808000020040000204F
:101AE40070B582B00446036813F0010F34D03E4B46
:101AF400DB6913F0805F47D13B4BDA6942F08052D7
:101B0400DA61DB6903F080530193019B0125374BB4
:101B14001B6813F4807F39D0334B1B6A13F4407372
:101B240011D0626802F440729A420CD02E4A136AB1
:101B340023F440702E4901260E6000260E601062C8
:101B440013F0010F36D1284A136A23F440736168F5
:101B54000B431362002D3ED1236813F0020F06D00D
:101B6400214A536823F44043A1680B43536023681C
:101B740013F0100F34D01C4A536823F480036169B6
:101B84000B43536000202CE00025C0E7174A13687C
:101B940043F480731360FFF77FFC0646134B1B6806
:101BA40013F4807FB8D1FFF777FC801B6428F5D944
:101BB400032016E0FFF770FC06460B4B1B6A13F07C
:101BC400020FC0D1FFF768FC801B41F288339842B2
:101BD400F3D9032005E0D36923F08053D361BBE735
:101BE400002002B070BD00BF001002400070004031
:101BF40040044242F0B482B000252C46ABE0854F4D
:101C0400BB4210D007D9844FBB420CD007F58037B4
:101C1400BB4208D013E0A7F58017BB4203D007F5F9
:101C24007027BB4207D18B68002B60D0012B59D0A1
:101C34004261082503E0A7F58017BB42F3D0FF2ECD
:101C440057D88446FF2E57D8A200DCF800300F275F
:101C5400974023EA070305FA02F21343CCF8003055
:101C64004B6813F0805F75D06C4B9A6942F00102A7
:101C74009A619B6903F001030193019BA208971CDD
:101C8400674B53F827C004F003039F000F23BB40A6
:101C94002CEA030C634B984234D003F580639842DA
:101CA40000F0948003F58063984200F0918003F57E
:101CB4008063984200F08E8003F58063984200F0C0
:101CC4008B8003F5806398421AD006231BE0CD680D
:101CD400B5E7CD680435B2E7CD680835AFE7CD6820
:101CE4000C35ACE702610825A9E70025A7E7042520
:101CF400A5E700F1040CA5E7A4F108029200A4E70B
:101D0400052300E00023BB4043EA0C030232444FA6
:101D140047F822304B6813F4803F5FD0424A13687F
:101D2400334313604B6813F4003F5DD03E4A53685D
:101D3400334353604B6813F4801F5BD03A4A936873
:101D4400334393604B6813F4001F59D0364AD36869
:101D54001E43D66001340B6833FA04F256D00122D4
:101D6400A24003EA020632EA0303F3D14B68122BC2
:101D74003FF645AF122B3FF662AF01A757F823F0A9
:101D84002B1C0008D31C0008DD1C0008EF1C0008F5
:101D9400431C0008431C0008431C0008431C0008A3
:101DA400431C0008431C0008431C0008431C000893
:101DB400431C0008431C0008431C0008431C000883
:101DC400431C0008D71C0008E31C000801239AE701
:101DD400022398E7032396E7042394E7124A13683F
:101DE40023EA060313609DE70F4A536823EA0603B8
:101DF40053609FE70C4A936823EA06039360A1E7C4
:101E0400094AD36823EA0606D660A3E702B0F0BC09
:101E1400704700BF00002210000031100010024083
:101E24000000014000080140000401408368194299
:101E340001D001207047002070470AB1016170474A
:101E4400090401617047000008B5054B5B69034252
:101E540000D108BD024B586100F0C6FFF9E700BF8E
:101E640000040140074AD36823F4E0631B041B0CFD
:101E7400000200F4E060034343F0BF6343F4003323
:101E8400D360704700ED00E030B4174BDB68C3F358
:101E94000223C3F10704042C28BF04241D1D062DAE
:101EA40018D9033B4FF0FF3505FA04F421EA040185
:101EB400994005FA03F322EA0303194300280BDBD4
:101EC4000901C9B200F1604000F5614080F80013D7
:101ED40030BC70470023E5E700F00F000901C9B2E8
:101EE400024B1954F4E700BF00ED00E014ED00E0EC
:101EF4000138B0F1807F0AD2064B5860064AF021BF
:101F040082F823100020986007221A60704701208D
:101F1400704700BF10E000E000ED00E030B4036A59
:101F240023F001030362056A4268846924F07304A0
:101F34000B681C4325F002058B682B43104DA84207
:101F440003D005F50065A84205D123F00803CD6848
:101F54002B4323F004030A4DA84203D005F5006582
:101F6400A84205D122F440724D6915438A692A4377
:101F7400426084614A684263036230BC704700BFB8
:101F8400002C014030B4036A23F480730362036AB3
:101F94004268C46924F073040D682C4323F400736D
:101FA4008D6843EA0523124DA84203D005F5006568
:101FB400A84206D123F40063CD6843EA052323F441
:101FC40080630B4DA84203D005F50065A84207D1F4
:101FD40022F440524D6942EA05128D6942EA051223
:101FE4004260C4614A68C263036230BC704700BF88
:101FF400002C014030B4036A23F480530362036A63
:102004004468C26922F4E6420D6842EA052223F4D8
:1020140000538D6843EA0533094DA84203D005F502
:102024000065A84204D124F480444D6944EA85142F
:102034004460C2614A680264036230BC704700BFF6
:10204400002C014090F83D30DBB2012B2FD102234C
:1020540080F83D300268D36843F00103D36003681D
:10206400154A934218D002F50062934214D0B3F19A
:10207400804F11D0A2F5983293420DD002F58062C0
:10208400934209D002F58062934205D01A6842F067
:1020940001021A60002070479A6802F00702062ABB
:1020A40007D01A6842F001021A600020704701202C
:1020B40070470020704700BF002C01400268D368BD
:1020C40023F00103D3600368196A41F2111211422B
:1020D40008D1196A40F24442114203D11A6822F02D
:1020E40001021A60012380F83D30002070477047D8
:1020F40070477047704710B5044603681A6912F0B8
:10210400020F11D0DA6812F0020F0DD06FF0020244
:102114001A610123037703689B6913F0030F70D0DE
:10212400FFF7E6FF0023237723681A6912F0040FF0
:1021340012D0DA6812F0040F0ED06FF004021A61A4
:102144000223237723689B6913F4407F5FD02046E2
:10215400FFF7CEFF0023237723681A6912F0080FD4
:1021640012D0DA6812F0080F0ED06FF008021A616C
:10217400042323772368DB6913F0030F4ED0204632
:10218400FFF7B6FF0023237723681A6912F0100FB4
:1021940012D0DA6812F0100F0ED06FF010021A612C
:1021A400082323772368DB6913F4407F3DD020465E
:1021B400FFF79EFF0023237723681A6912F0010FAB
:1021C40003D0DA6812F0010F36D123681A6912F0CD
:1021D400800F03D0DA6812F0800F34D123681A69B3
:1021E40012F0400F03D0DA6812F0400F32D12368A6
:1021F4001A6912F0200F03D0DA6812F0200F30D1E0
:1022040010BDFFF774FF2046FFF773FF8AE72046EF
:10221400FFF76DFF2046FFF76CFF9BE72046FFF7B3
:1022240066FF2046FFF765FFACE72046FFF75FFF38
:102234002046FFF75EFFBDE76FF001021A612046FA
:1022440000F0EAFDC1E76FF080021A61204600F059
:1022540019FAC3E76FF040021A612046FFF74AFFFC
:10226400C5E76FF020021A61204600F00AFAC7E7BA
:102274000368244A904212D002F5006290420ED0C4
:10228400B0F1804F0BD0A2F59832904207D002F5FE
:102294008062904203D002F58062904203D123F021
:1022A40070034A681343174A904212D002F5006241
:1022B40090420ED0B0F1804F0BD0A2F598329042EC
:1022C40007D002F58062904203D002F5806290420A
:1022D40003D123F44073CA68134323F080034A698B
:1022E400134303608B68C3620B688362054B984297
:1022F40003D003F50063984201D10B690363012302
:1023040043617047002C014040B310B5044690F877
:102314003D30F3B1022384F83D30214651F8040BDB
:10232400FFF7A6FF012384F8463084F83E3084F892
:102334003F3084F8403084F8413084F8423084F8E7
:10234400433084F8443084F8453084F83D3000202C
:1023540010BD80F83C30FEF789FBDBE701207047B5
:1023640030B4036A23F010030362036A4468826989
:1023740022F4E6420D6842EA052223F020038D6828
:1023840043EA0513114DA84203D005F50065A842A0
:1023940006D123F08003CD6843EA051323F04003FC
:1023A4000A4DA84203D005F50065A84207D124F4DC
:1023B40040644D6944EA85048D6944EA85044460B7
:1023C40082614A688263036230BC7047002C01401A
:1023D40038B590F83C30012B60D004460D460123FB
:1023E40080F83C300C2A1AD8DFE802F007191919D2
:1023F4001D1919193119191944000068FFF78EFDC8
:102404002268936943F0080393612268936923F077
:10241400040393612268936929690B439361002043
:1024240084F83C0038BD0068FFF79AFF226893697E
:1024340043F4006393612268936923F48063936196
:1024440022689369296943EA01239361E7E70068F5
:10245400FFF798FD2268D36943F00803D36122682B
:10246400D36923F00403D3612268D36929690B4338
:10247400D361D4E70068FFF7BDFD2268D36943F454
:102484000063D3612268D36923F48063D361226833
:10249400D369296943EA0123D361C0E70220C1E774
:1024A40010B401F01F01012303FA01F4036A23EAC3
:1024B40004030362036A02FA01F10B43036210BCD2
:1024C4007047000010B50446084600293AD194F834
:1024D4003E30DBB2013B18BF0123002B66D100283C
:1024E40049D1022384F83E30012201462068FFF7D7
:1024F400D7FF23682F4A934203D002F50062934228
:1025040003D15A6C42F400425A642368294A934224
:1025140041D002F5006293423DD0B3F1804F3AD0EE
:10252400A2F59832934236D002F58062934232D0BB
:1025340002F5806293422ED01A6842F001021A60BA
:10254400002032E0042908D008290DD094F8413045
:10255400DBB2013B18BF0123BFE794F83F30DBB285
:10256400013B18BF0123B8E794F84030DBB2013BCC
:1025740018BF0123B1E7042805D0082807D0022397
:1025840084F84130B0E7022384F83F30ACE70223FB
:1025940084F84030A8E79A6802F00702062A07D0B8
:1025A4001A6842F001021A60002010BD0120FCE705
:1025B4000020FAE7002C014090F83C30012B33D086
:1025C40030B4012380F83C30022380F83D300368A6
:1025D4005C689D6824F070040A6822435A600368AA
:1025E400124A934212D002F5006293420ED0B3F124
:1025F400804F0BD0A2F59832934207D002F5806247
:10260400934203D002F58062934204D125F0800501
:102614004A6815439D60012380F83D30002380F80B
:102624003C30184630BC704702207047002C0140F3
:1026340090F83C30012B22D0012380F83C30CB6849
:1026440023F440738A68134323F480634A68134372
:1026540023F400630A68134323F480530A69134381
:1026640023F400534A69134323F48043CA69134390
:1026740002685364002380F83C30184670470220F7
:1026840070477047704770470369C268934204D823
:102694008068801A0344581E70479B1A581E70475E
:1026A4002DE9F843044688461646C5688768A7EBB3
:1026B4000509914507D94068284400F029FD3544AF
:1026C400E560BDE8F88340684A46284400F020FDF0
:1026D400ED1B35442A4608EB0901606800F018FD3B
:1026E400E560EEE72DE9F843064688461746C568D7
:1026F4004FF0000918E0641B621EB3685C1B94422F
:1027040028BF1446BC4228BF3C4670682246414656
:10271400284400F0FDFCA144A0443F1B2544B368B9
:10272400AB4209D0F5604FB13469A542E3D3B26836
:10273400641B1444621EE0E70025F3E74846BDE845
:10274400F8830000114B03221A615A611049996100
:10275400104ADA614FF480621A6200229A625A6265
:10276400DA6219660C495966102199661A67DA66A5
:102774005A670A4A1068C3F80700094A92E8030036
:102784001860998020229A71704700BFB805002014
:10279400EC3100083800002028000020F83100083F
:1027A400FC310008F8B50F461646451C05EB4505F7
:1027B400164B03EBC50500EB400003EBC000C46AF5
:1027C400012C11D0022C1CD014B100242046F8BDD9
:1027D4002846FFF759FF8642F8D83246394628463C
:1027E400FFF75EFF3446F1E72846FFF74DFF344616
:1027F400864228BF0446224639462846FFF750FF42
:10280400E4E72846FFF76EFF0446DFE7B80500203B
:10281400F8B504460D461646094B1B786BB1EFF329
:1028240011874FF0200181F3118832462946204652
:10283400FFF7B8FF87F31188F8BDFFF783FFEEE7D2
:10284400B805002010B504468268531C40688342D2
:1028540005D820688154A360E3680133E360A2686B
:1028640063689A4200D010BD21682069FFF7D0FF49
:10287400A368984203D04FF0FF33E360F3E70023EB
:10288400A360F0E72DE9F84F81460F4615461E4632
:10289400DDF828A00B9A0B464FF00108AB4204D395
:1028A400B3FBF5F308F10108F8E7B04500D2B046F0
:1028B40012F0010B18D1BAF1000F15D012F0020F6B
:1028C40002D0BEB1202400E02024BAF1000F0BD0C6
:1028D400C24509D90AF1FF3A21464846FFF7B2FF3B
:1028E400D9F80C30002BF0DAD9F80C30002B25DBAA
:1028F400012407E03024E8E7B7FBF4F39D4206D84F
:1029040005FB04F4012EF7D9013EF9E71C46B7FB99
:10291400F4F304FB1377124AD15C4846FFF792FFA5
:10292400D9F80C30002B03DBB4FBF5F3AC42EDD249
:10293400BBF1000F02D0BAF1000F01D1BDE8F88F4E
:10294400BAF1000FFAD0C245F8D90AF1FF3A2021B2
:102954004846FFF777FFD9F80C30002BF0DAEDE7A3
:10296400043200082DE9F04F83B0804689461646AC
:102974009A460C9FDDF834B081EAE174A4EBE1746B
:102984000125A64203DC94FBF6F40135F9E755452D
:1029940000D2554637B1B9F1000F02DB1BF0040F2A
:1029A40000D0013F1BF0020F02D0BAF1000F03D098
:1029B4001BF0010F00D1C7B9D8F80C30002B11DB84
:1029C400B9F1000F1FDB1BF0040F23D1D8F80C3032
:1029D400002B07DB0BF00303022B20D0D8F80C30BC
:1029E400002B2FDA03B0BDE8F08F002FE4D0AF4204
:1029F400E2D9013F20214046FFF724FFD8F80C30EC
:102A0400002BF2DAD8E7C9F100092D214046FFF77F
:102A140019FFDBE72B214046FFF714FFD6E7BAF195
:102A2400000FDBD1002FD9D0002FD7D0AF42D5D99A
:102A3400013F30214046FFF705FFD8F80C30002B4A
:102A4400F2DACBE7CDF804B0009753463246494654
:102A54004046FFF717FFC5E72DE9F04798B0074652
:102A64000C46164603AB139340231493002315938B
:102A74001790169397E00025012211E045F0010517
:102A840001340CE045F00205013408E045F004058A
:102A9400013404E045F00805013400E000221AB3D3
:102AA4002378233B0D2BF9D801A151F823F000BF63
:102AB400992A0008A12A0008A12A0008A12A0008CE
:102AC400A12A0008A12A0008A12A0008A12A0008B6
:102AD400912A0008A12A0008812A0008A12A0008D6
:102AE400A12A0008892A00084FF000082378A3F1DE
:102AF4003002D2B2092A07D8013408EB880803EB64
:102B04004803A3F13008F1E72E2B03D04FF000095E
:102B1400237812E001344FF000092378A3F1300246
:102B2400D2B2092AF4D8013409EB890903EB490923
:102B3400A9F13009F1E714F8013F6C2BFBD0682BA5
:102B4400F9D0252B7ED029D3782B27D8462B25D313
:102B5400463B322B22D8DFE803F07A2121212121C0
:102B64002121212121212121212121214C21212126
:102B7400212121212121211A32217A2121212121DE
:102B84002121212168212159213F21214C00336831
:102B94001A1D3260197813A8FFF754FE0134169BEE
:102BA400002BC0F2988014F8011B002900F09380D8
:102BB40025293FF460AF13A8FFF744FEEFE733681D
:102BC4001A1D326019680195CDF800804B460A221F
:102BD40013A8FFF7C7FEE1E733681A1D32601968CE
:102BE4000195CDF800804B460A2213A8FFF74AFE50
:102BF400D4E733681A1D326019680195CDF8008056
:102C04004B46102213A8FFF73DFEC7E733681A1D91
:102C140032601D6815F8011B0029BFD013A8FFF707
:102C240011FE169B002BF5DAB8E733681A1D3260E3
:102C340019680023019308230093102213A8FFF7B7
:102C440021FEABE7252113A8FFF7FCFDA6E73368B7
:102C5400073323F0070303F108023260D3E90001CC
:102C6400FDF7DEFA82460021FDF7C8FC70BB504632
:102C7400FDF7ECFC0195CDF800804B460A2280EA72
:102C8400E071A1EBE07113A8FFF76CFE2E2113A8ED
:102C9400FFF7D8FD19495046FDF712FBFDF7D6FCA6
:102CA4000028B8BF4042164B83FB0023C117C1EB79
:102CB400A3110195CDF8008003230A224FF47A75FD
:102CC40005FB110113A8FFF74DFE67E72D2113A89B
:102CD400FFF7B8FDCBE7169B002B05DD159A3AB933
:102CE400159A169B13441693169818B0BDE8F087EE
:102CF40003A93846FFF78CFDF2E700BF00007A44D1
:102D0400D34D62100EB400B582B003AB53F8041B6C
:102D1400019301AAFFF7A0FE02B05DF804EB03B033
:102D240070470000064AD36843F08073D360054BB4
:102D340000225A601A6842F001021A60704700BF0C
:102D4400F0ED00E0001000E0074B1B68074AA2FB0F
:102D540003239B0C00FB03F0054B5A68044B5B6890
:102D64009B1A8342FAD370470800002083DE1B437A
:102D7400001000E0034B1A6800235363024A1268F0
:102D84009363704724050020DC04002008B500216B
:102D94001048FFF797FB90B904210F48FFF792FB07
:102DA40090B90E4B1A6A22F020021A621A6A42F093
:102DB40020021A62FFF7DEFFFFF7B4FF08BD0849DF
:102DC4000020FFF79FFFE7E706490020FFF79AFF7F
:102DD400E7E700BF24050020DC04002000040040D5
:102DE400143200082C320008022800D0704708B5BD
:102DF4000023064A1370064A1370064803686FF0EE
:102E040001021A61FFF71EF908BD00BF3904002052
:102E1400380400206C05002008B50368B3F1804F26
:102E240000D008BD0148FEF77BFAFAE760060020EF
:102E340002680F4B9A4200D0704710B5FEF7A2F912
:102E440080B2B0F5FA6F94BF0020012009490B78D5
:102E54009840094C2278104320700133DBB20B7088
:102E6400072B00D810BD0548FFF728F9FAE700BF83
:102E74000024014038040020390400206C0500209F
:102E84007047000000B583B000F07F008DF80400A7
:102E94008DF8051000224FF480510C48FEF7CDFF49
:102EA4004FF0FF33022201A90948FEF794F840B914
:102EB40001224FF480510548FEF7BFFF03B05DF8CF
:102EC40004FB04490020FFF71DFFF1E7000C01405B
:102ED4003C0400204432000808B50A20FEF7E2FA58
:102EE4000A212C20FFF7CEFF0A213120FFF7CAFF69
:102EF40008212D20FFF7C6FF08BD0000F8B50646DF
:102F04000C461B4D012210212846FEF796FF194F4F
:102F1400012220213846FEF790FF0120FFF714FF1D
:102F2400012220212846FEF788FF0120FFF70CFF2D
:102F3400002220212846FEF780FF0120FFF704FF2E
:102F4400611E01238B40013BC9B206EA0300FDF771
:102F540053FD002210212846FEF76FFF0022202196
:102F64003846FEF76AFF0320FFF7EEFEF8BD00BF08
:102F740000080140000C014008B50A214FF4184034
:102F8400FFF7BCFF08BD08B5FDF7FEFCFFF7F4FF33
:102F940008BD000070B505460C46104E01221021F4
:102FA4003046FEF74AFF01210846FDF725FD0821BA
:102FB40045F04000FDF720FD08212046FDF71CFDEB
:102FC400002210213046FEF738FF00222021044859
:102FD400FEF733FF0320FFF7B7FE70BD0008014082
:102FE400000C014038B50446114D01221021284639
:102FF400FEF723FF01210846FDF7FEFC082144F0FB
:103004008000FDF7F9FC0821FF20FDF7F5FCC4B2B0
:10301400002210212846FEF710FF00222021054837
:10302400FEF70BFF0320FFF78FFE204638BD00BFDD
:1030340000080140000C014038B504460D4D012242
:1030440010212846FEF7F9FE01210846FDF7D4FCBD
:1030540008212046FDF7D0FC002210212846FEF767
:10306400ECFE002220210448FEF7E7FE0320FFF7D0
:103074006BFE38BD00080140000C01400C480D49AE
:103084000D4A002302E0D458C4500433C4188C42BF
:10309400F9D30A4A0A4C002301E013600432A24225
:1030A400FBD3FFF7F0FA00F00FF8FDF74BFB704786
:1030B400000000200C0000206C3200080C000020EE
:1030C40090060020FEE7000070B500260C4D0D4C64
:1030D400641BA410A64209D100F030F800260A4D62
:1030E4000A4C641BA410A64205D170BD55F8043BDC
:1030F40098470136EEE755F8043B98470136F2E766
:10310400643200086432000864320008683200083F
:103114000A44914200F1FF3300D1704710B511F811
:10312400014B914203F8014FF9D110BD034602440B
:10313400934200D1704703F8011BF9E7F8B500BFCB
:10314400F8BC08BC9E467047F8B500BFF8BC08BC84
:043154009E467047DC
:103158006572726F7220310A000000006572726F2A
:103168007220320A000000006572726F7220330A02
:103178000000000068616C5F696E69742073756394
:10318800636573730A00000073797374656D636C0B
:103198006F636B20696E69742073756363657373FD
:1031A8000A0000007065726970686572616C206958
:1031B8006E697420737563636573730A0000000099
:1031C80002030405060708090A0B0C0D0E0F101060
:1031D80000000000000000000000000001020304DD
:1031E800060708095465726D696E616C000000007D
:1031F800525454005345474745520000303132334A
:1032080034353637383941424344454674696D315F
:10321800315F70776D5F73746172745F6572726F1E
:10322800720A000074696D33335F70776D5F737471
:103238006172745F6572726F720A000077726974E6
:10324800655F7265675F7370695F7472616E736DD5
:0C3258006974206572726F720A00000039
:043264000902000853
:04326800E501000874
:0C326C0001000000100000000024F4002D
:04000005080030813E
:00000001FF
